:020000040800F2
:1000000060070020DD020008E56F00088516000883
:10001000E16F0008B1080008C17600080000000088
:10002000000000000000000000000000A5760008AD
:10003000B508000800000000E96F0008A976000874
:10004000F7020008F7020008F7020008F7020008AC
:10005000F7020008F7020008F7020008F70200089C
:10006000F7020008F7020008F7020008F70200088C
:10007000F7020008F7020008F7020008F70200087C
:10008000F7020008F7020008F7020008F70200086C
:10009000F7020008F7020008F7020008F70200085C
:1000A000F7020008F7020008F7020008F70200084C
:1000B000F7020008F7020008F7020008F70200083C
:1000C000F7020008F7020008F7020008F70200082C
:1000D000F7020008F7020008F7020008F70200081C
:1000E000F7020008F7020008F7020008F70200080C
:1000F000F7020008F7020008F7020008F7020008FC
:10010000F7020008F7020008F7020008F7020008EB
:10011000F7020008F7020008F7020008F7020008DB
:10012000F7020008F7020008F7020008F7020008CB
:10013000F7020008F7020008F7020008F7020008BB
:10014000F7020008F7020008F7020008F7020008AB
:10015000F7020008F7020008F7020008F70200089B
:10016000F7020008F7020008F7020008F70200088B
:10017000F7020008F7020008F7020008F70200087B
:10018000F7020008F7020008F7020008F70200086B
:10019000F702000800000000F7020008F70200085C
:1001A000F7020008F7020008F7020008F70200084B
:1001B000F7020008F7020008F7020008F70200083B
:1001C000F7020008F7020008F7020008F70200082B
:1001D000F7020008F702000800F002F800F054F8F7
:1001E00014A696E8000CB244B344DA4501D100F0FD
:1001F0004BF8BAE80F000FA696E83000A5EB04050F
:1002000004EB0607AAEB0704A7F101074FEA15154F
:100210004FEA3414A4F10104AC4201D300F034F8E5
:1002200013F0010F18BFFB1A43F0010300F001F8AF
:10023000DBE7184798D00000B8D00000103A24BF80
:1002400078C878C1FAD8520724BF30C830C144BF3B
:1002500004680C6070470000704700000023002411
:1002600000250026103A28BF78C1FBD8520728BFC6
:1002700030C148BF0B6070471FB509F08BF800F024
:1002800062F81FBD10B510BD00F0A4F81146FFF7CD
:10029000F3FF07F0C3FD00F0C2F803B4FFF7F2FF6D
:1002A00003BC00F0C7F800000B49D1F800C04A6851
:1002B0005CF8043B1068184442F8040B8C4528BFD6
:1002C000A1F1DC0C8A4228BFA1F1DC02C1F800C018
:1002D0004A6020F000407047EC0000200948804749
:1002E00009480047FEE7FEE7FEE7FEE7FEE7FEE718
:1002F000FEE7FEE7FEE7FEE704480549054A064B30
:1003000070470000AD760008D901000860010020A8
:100310006007002060030020600300200B4910B537
:10032000A1F17C020A4CC2E93712372106E000EB4A
:10033000104342F82130074B00FB03400B1EA1F194
:100340000101F4DC10BD0120E8E700008C00002072
:10035000E119D666CD0D01004FF0000200B513463D
:1003600094469646203922BFA0E80C50A0E80C50D5
:10037000B1F12001BFF4F7AF090728BFA0E80C5086
:1003800048BF0CC05DF804EB890028BF40F8042B7F
:1003900008BF704748BF20F8022B11F0804F18BFEC
:1003A00000F8012B704770477047704710B500F098
:1003B00009F8006810BD10B5044600F003F80460A9
:1003C00010BD000000487047F4000020004870474E
:1003D000F40000207546FFF7F9FFAE4605006946B8
:1003E000534620F00700854618B020B5FFF784FF7C
:1003F000BDE820404FF000064FF000074FF0000826
:100400004FF0000BAC46ACE8C009ACE8C009ACE862
:10041000C009ACE8C00921F007018D46704710B54E
:100420000446AFF300802046BDE81040FFF735BF1B
:100430007047000001491820ABBEFEE7260002000D
:100440002DE9F04F81B041F228041FFA80FAC4F67A
:1004500000044FF0100B0425402750469846914663
:100460000E46C4F800B02560276044F8105C256093
:1004700044F8107C44F8105C256044F8107C44F883
:10048000105C256044F8107C44F8105C25602760FF
:1004900044F8105C2560276044F8105C25602760F4
:1004A00044F8105C2560276044F8105C25602760E4
:1004B00044F8105C2560276044F8105C25602760D4
:1004C00044F8105C2560276044F8105C25602760C4
:1004D00044F8105C2560276044F8105C25602760B4
:1004E00044F8105C2560276044F8105C25602760A4
:1004F00044F8105C256044F8107C44F8105C2560DA
:10050000276044F8105C256044F8107C44F8105CC7
:100510002560276044F8105C2560276044F8105C73
:100520002560276044F8105C2560276044F8105C63
:1005300044F810BC06F014FAB0B2C4F800B025605C
:10054000276044F8105C256044F8107C44F8105C87
:10055000256044F8107C44F8105C256044F8107C59
:1005600044F8105C2560276044F8105C2560276023
:1005700044F8105C2560276044F8105C2560276013
:1005800044F8105C2560276044F8105C2560276003
:1005900044F8105C2560276044F8105C25602760F3
:1005A00044F8105C2560276044F8105C25602760E3
:1005B00044F8105C2560276044F8105C25602760D3
:1005C00044F8105C2560276044F8105C256044F80E
:1005D000107C44F8105C2560276044F8105C2560AE
:1005E00044F8107C44F8105C2560276044F8105CE7
:1005F0002560276044F8105C2560276044F8105C93
:10060000256044F8107C44F8105C44F810BC06F0F7
:10061000A7F91FFA89F63046C4F800B025602760B4
:1006200044F8105C256044F8107C44F8105C2560A8
:1006300044F8107C44F8105C256044F8107C44F8C1
:10064000105C2560276044F8105C2560276044F842
:10065000105C2560276044F8105C2560276044F832
:10066000105C2560276044F8105C2560276044F822
:10067000105C2560276044F8105C2560276044F812
:10068000105C2560276044F8105C2560276044F802
:10069000105C2560276044F8105C2560276044F8F2
:1006A000105C2560276044F8105C256044F8107CDD
:1006B00044F8105C2560276044F8105C256044F81D
:1006C000107C44F8105C2560276044F8105C2560BD
:1006D000276044F8105C256044F8107C44F8105CF6
:1006E0002560276044F8105C44F810BC06F038F927
:1006F0001FFA88F0C4F800B02560276044F8105C49
:10070000256044F8107C44F8105C256044F8107CA7
:1007100044F8105C256044F8107C44F8105C2560B7
:10072000276044F8105C2560276044F8105C256061
:10073000276044F8105C2560276044F8105C256051
:10074000276044F8105C2560276044F8105C256041
:10075000276044F8105C2560276044F8105C256031
:10076000276044F8105C2560276044F8105C256021
:10077000276044F8105C2560276044F8105C256011
:10078000276044F8105C256044F8107C44F8105C45
:100790002560276044F8105C256044F8107C44F81C
:1007A000105C2560276044F8105C2560276044F8E1
:1007B000105C256044F8107C44F8105C256044F817
:1007C000107C44F8105C44F810BC06F0C9F85046A0
:1007D000314606F025FBC4F800B02560276044F8D8
:1007E000105C256044F8107C44F8105C256044F8E7
:1007F000107C44F8105C256044F8107C44F8105CD0
:100800002560276044F8105C2560276044F8105C80
:100810002560276044F8105C2560276044F8105C70
:100820002560276044F8105C2560276044F8105C60
:100830002560276044F8105C2560276044F8105C50
:100840002560276044F8105C2560276044F8105C40
:100850002560276044F8105C2560276044F8105C30
:100860002560276044F8105C2560276044F8105C20
:10087000256044F8107C44F8105C2560276044F83B
:10088000105C2560276044F8105C2560276044F800
:10089000105C256044F8107C44F8105C25602760EB
:1008A00044F8105C44F810BC01B0BDE8F08F0000C3
:1008B000FEE700007047000010B514460A460146E6
:1008C0001346FFF7BDFD41F21800C4F600002104F5
:1008D0004FF0100C4FF004034FF0400E014600F1B2
:1008E0001002C0F810C00361C0F810E0036003619B
:1008F000C0F800E003600361C0F800E0036003613A
:10090000C0F800E003600361C0F810E00360036119
:10091000C0F810E003600361C0F800E00360036109
:10092000C0F810E00360036158BF1146C1F800E051
:10093000610401460360036158BF1146C1F800E03D
:10094000A10401460360036158BF1146C1F800E0ED
:10095000E10401460360036158BF1146C1F800E09D
:10096000210501460360036158BF1146C1F800E04C
:10097000610501460360036158BF1146C1F800E0FC
:10098000A10501460360036158BF1146C1F800E0AC
:10099000E10501460360036158BF1146C1F800E05C
:1009A000210601460360036158BF1146C1F800E00B
:1009B000610601460360036158BF1146C1F800E0BB
:1009C000A10601460360036158BF1146C1F800E06B
:1009D000E10601460360036158BF1146C1F800E01B
:1009E000210701460360036158BF1146C1F800E0CA
:1009F000610701460360036158BF1146C1F800E07A
:100A0000A10701460360036158BF1146C1F800E029
:100A100003600361E10718BF0246C2F800E003600B
:100A2000C0F800C010BD0000B0B5044600F0F6F8F4
:100A3000054640F20000C2F200004068611C18BF89
:100A4000044400BF00F0EAF8401BA042FAD3B0BD56
:100A50002DE9F04F83B00E68002E00F0CF8000F13A
:100A6000200241F2004C009200F13847C4F6000C1D
:100A700006224FEAB725604508BF0522052D38BF7D
:100A80004FEAB722002500274FF0000801920AE044
:100A90000E6808F1010836FA08F207F1020705F1BD
:100AA000040500F0AB80012202FA08FE16EA0E09E6
:100AB000EED0D1F804C003220CF0030BABF1010619
:100AC00002FA07F4012E6FEA040A11D88468CE688E
:100AD00004EA0A04BE4034438460446824EA0E06F3
:100AE000CCF3001404FA08F42643466006E000BF85
:100AF000BBF1030F02D14FF0030B21E0C6688C68F5
:100B000006EA0A06BC402643BBF1020FC66017D1B5
:100B10006FF00302009B02EA580605F01C020F2446
:100B200053F806C004FA02FE0C692CEA0E0C04FA13
:100B300002F242EA0C029A51D1F804C00CF0030B05
:100B400002680BFA07F302EA0A021A431CF4403F58
:100B500002609DD041F26003C4F202031A6840F2C1
:100B6000004E42F001021A601A68C4F2010E02F04F
:100B700001020292029A28F003024FF6084C7244D6
:100B8000CFF6FF7C52F80C3005F00C060F24B44071
:100B9000A343019C04FA06F6334342F80C30DEF816
:100BA00008204B6842EA090640F20C4CDC0258BFB0
:100BB00022EA0906CEF80860C4F2010CDCF8002035
:100BC0009C0242EA090658BF22EA0906CCF80060F6
:100BD000DEF804209C0342EA090658BF22EA09060F
:100BE000CEF80460DEF80020DB0342EA090658BFB5
:100BF00022EA0906CEF800604AE700BF03B0BDE86C
:100C0000F08F00000069084018BF01207047000005
:100C10001823002A08BF2823C150704740F25810FB
:100C2000C2F200000068704740F2000040F2581124
:100C3000C2F20000C2F2000140680A681044086075
:100C40007047000080B5032000F07AF80F2000F014
:100C500009F800281CBF012080BD00F02BF80020FF
:100C600080BD0000B0B540F20005C2F20005696821
:100C7000F1B1044640F20800C2F200004FF47A726B
:100C80000068B2FBF1F1B0FBF1F000F0E5FC0146C9
:100C90000F2C4FF001000AD8002918BFB0BD4FF04B
:100CA000FF302146002200F01FF800202C60B0BD6C
:100CB0000120B0BD82B041F25800C4F20200816848
:100CC00041F001018160816801F001010191019908
:100CD000016841F080510160006800F08050009090
:100CE000009802B000F0C4B810B54EF60C5CCEF21D
:100CF000000CDCF80030C3F3022E8EF00704042C45
:100D000028BF0424BEF103034FF0FF3E0EFA04F4A3
:100D100038BF0023A14399400EFA03F39A431143CD
:100D200000F00F0200F160430901043A03F5644347
:100D30006244002848BF02F10C03197010BD000086
:100D40004EF60C51CEF200010A684FF6FF031A402E
:100D500060F30A2242F0806040F0FD700860704746
:100D600047F21401C4F2000151F8142CB0F5007FD1
:100D70003CD0002874D1C86E02F4C06220F48070A8
:100D8000B2F5806FC8662FD151F8140C012262F3BE
:100D90004A2041F8140C40F20800C2F2000000683A
:100DA000322250434DF68362C4F21B32A0FB020292
:100DB000900C00BF0A68520511D5421C0FD00A687A
:100DC00052050CD558B10A68520508D5012806D03D
:100DD0000A68520503D50228A0F10400EAD1086888
:100DE000400544BF0320704700207047C86E02F4DE
:100DF000C06240F48070B2F5806FC866F4D151F8DB
:100E0000140C012262F34A2041F8140C40F208004D
:100E1000C2F200000068322250434DF68362C4F2F1
:100E20001B32A0FB0202900C0A68520511D5421C2D
:100E30000FD00A6852050CD558B10A68520508D57A
:100E4000012806D00A68520503D50228A0F1040043
:100E5000EAD10868400544BF03207047C4E700BFDB
:100E6000022060F34A2241F8142C00207047000051
:100E700047F20800C4F20000016841F480410160BB
:100E8000704700002DE9F047002863D042F2000AC5
:100E9000C4F2020A0446DAF800000D4600F00F0022
:100EA00088420CD2DAF8000020F00F002843CAF87C
:100EB0000000DAF8000000F00F00A8424AD12168D3
:100EC00041F20808C807C4F2020803D1880740F1BC
:100ED000D080B5E0606858F8082C022838D0032884
:100EE0003CD1920136D5D8F80420D8F8043042F22B
:100EF0000046C3F3031302F00302D8F80470013371
:100F0000C0F2F406032A04BF41F20026C0F27A06BA
:100F1000B6FBF3F2D8F80430C7F306277A43C3F3DD
:100F20004163022707EB4303B2FBF3F24BF20043AA
:100F3000C0F2C4439A4259D9D8F8002012F0F00FF9
:100F400049D0890752D5A16800294FD143E000BF9D
:100F5000910305D40120BDE8F08700BF5105F9D504
:100F6000D8F8001001F00C0104293FD0D8F8001087
:100F700001F00C01082939D0D8F8001001F00C015B
:100F80000C2933D1D8F80410D8F8042042F20047D5
:100F9000C2F3031201F00301D8F804300132C0F2A9
:100FA000F407032904BF41F20027C0F27A07B7FB18
:100FB000F2F1D8F80420C3F306235943C2F3416287
:100FC000022303EB4202B1FBF2F14BF20042C0F20A
:100FD000C44291420AD9D8F80010082262F30711DE
:100FE0004FF00109C8F8001002E000BF4FF00009FF
:100FF000D8F8001021F003010843C8F80000FFF7FB
:101000000DFE064641F28837D8F80000616800F00E
:101010000C00B0EB810F07D0FFF700FE801BB84239
:10102000F2D90320BDE8F0872168880708D4B9F118
:10103000000F1ED0D8F8000020F0F00017E000BF2D
:10104000480705D5D8F8000040F4E060C8F8000073
:10105000080706D5D8F80000072262F30D20C8F86B
:101060000000D8F80000A26820F0F0001043C8F893
:101070000000DAF8000000F00F00A8421BD9DAF8EF
:10108000000020F00F002843CAF80000FFF7C6FD5B
:10109000064641F2883700BFDAF8000000F00F0082
:1010A000A84207D0FFF7BAFD801BB842F4D903204D
:1010B000BDE8F0872168480707D5D8F80000E26846
:1010C00020F4E0601043C8F80000080708D5D8F8FD
:1010D0000000216920F4605040EAC100C8F8000017
:1010E000D8F8000042F20041C0F2F40100F00C0018
:1010F000042808462DD0D8F8000000F00C0008287D
:1011000041F20020C0F27A0023D0D8F8002002F08B
:101110000C020C2A1CD1D8F80420D8F8043002F0B4
:101120000302C3F30313D8F804700133032A08BF82
:101130000146B1FBF3F0D8F80410C7F30627C1F35A
:1011400041610222784302EB4101B0FBF1F000E083
:101150000020D8F8001049F2D842C1F30311C0F6BC
:101160000002515C40F2080201F01F0120FA01F177
:1011700040F20000C2F200000068C2F200021160FA
:10118000BDE8F047FFF76EBD002804BF012070479F
:101190002DE9F04182B00446007841F20006C00714
:1011A000C4F202061ED1207880073DD420780007C3
:1011B00064D42078400700F187802078800600F111
:1011C000D980E569002D00F04282B06800F00C0083
:1011D0000C2840F03181012D40F08E81012002B0B9
:1011E000BDE8F081B06800F00C01F068082961D01A
:1011F000032281F00C0122EA00000844B0FA80F0DA
:10120000400957D161683068B1F5803F07D0B1F52A
:10121000A02F40F0E38040F480203060306840F43C
:1012200080303060E4E000BFB068F16800F00C008E
:10123000042871D001F0030180F00C0081F002015C
:101240000844B0FA80F0400966D1E16830680029AE
:1012500000F0E08040F480703060FFF7DFFC05466E
:101260003068400500F10A81FFF7D8FC401B0228D6
:10127000F6D9032002B0BDE8F08100BF6169D6F85D
:101280009400002900F0948040F00100C6F894001A
:10129000FFF7C4FC054600BFD6F8940080073FF571
:1012A00088AFFFF7BBFC401B0228F5D9032002B032
:1012B000BDE8F081306880037FF575AF6068002875
:1012C0007FF471AF3EE000BFB06D5FEAC00808D4A4
:1012D000B06D40F08050B065B06D00F0805001906E
:1012E000019847F20007C4F200073868C0052DD402
:1012F000386840F480703860FFF790FC054600BF06
:101300003868C00522D4FFF789FC401B0228F7D9B2
:10131000032002B0BDE8F0813068400501D5E068E7
:1013200080B17068216920F0FE4040EA0160706081
:1013300040F20000C2F200000068FFF793FC0028B2
:101340003FF434AF012002B0BDE8F081A168D6F8C7
:101350009000012908D0052940F0AE8040F004003B
:10136000C6F89000D6F8900040F00100C6F8900052
:10137000AEE000BFA169D6F89800002900F0868091
:1013800040F00100C6F89800FFF748FC054600BF92
:10139000D6F8980080073FF514AFFFF73FFC401BDD
:1013A00002284FF00300F3D902B0BDE8F08100BF7E
:1013B00020F00100C6F89400FFF730FC054600BF9E
:1013C000D6F8940080077FF5F4AEFFF727FC401BAA
:1013D0000228F5D9032002B0BDE8F08120F4803066
:1013E00030603068002920F48020306000F0BE803A
:1013F000FFF714FC054600BF306880033FF5D3AE0D
:10140000FFF70CFC401B6428F6D9032002B0BDE8AE
:10141000F08100BF20F480703060FFF7FFFB0546CD
:10142000306840057FF5C2AEFFF7F8FB401B02288D
:101430004FF00300F4D9B7E7306820F080703060D7
:10144000FFF7ECFB022D05460CD100BF3068800190
:1014500040F1B880FFF7E2FB401B02284FF0030089
:10146000F4D9A1E73068800140F1EA80FFF7D6FBAC
:10147000401B02284FF00300F4D995E770682169FA
:1014800020F0FE4040EA016070608FE620F001002D
:10149000C6F89800FFF7C2FB054600BFD6F89800D3
:1014A00080077FF58EAEFFF7B9FB401B02284FF097
:1014B0000300F3D978E700BF20F00100C6F89000E0
:1014C000D6F89000002920F00400C6F890005DD006
:1014D000FFF7A4FB054641F2883700BFD6F890001D
:1014E000800765D4FFF79AFB401BB842F6D903206A
:1014F00002B0BDE8F08100BFF068216A00F003028D
:101500008A427FF41FAF626A6FF00F0300F0F001B0
:1015100003EB021291427FF415AFA16A00F4FE4280
:10152000B2EB012F7FF40EAFE16A00F07842B2EB2C
:10153000C16F7FF407AF226B0023CFF6E07303EA9D
:10154000025200F4C001A2F5001291427FF4FAAEFB
:10155000616B4FF07E4202EA016100F0C06001F170
:101560007E4188427FF4EEAE71E000BFFFF756FB8C
:10157000054600BF306880037FF515AEFFF74EFBD0
:10158000401B64284FF00300F4D90DE7FFF746FB3A
:10159000054641F2883700BFD6F89000800707D58E
:1015A000FFF73CFB401BB8424FF00300F4D9FBE6C9
:1015B000B8F1000F3FF501AEB06D20F08050B0657E
:1015C000FBE500BFF06848F20C01C0F29F1104F186
:1015D000200700EA010C8ECF6FF00F00D4E90C5405
:1015E00000EB02100022CFF6E07241EA0C0102EAA1
:1015F00005520843A2F500124FF07E4540EA032051
:1016000005EA0465104305F17E4540EAC7602843BA
:10161000F060306840F080703060F06840F08070BA
:10162000F060FFF7FBFA0446306880010FD4FFF743
:10163000F5FA001B02284FF00300F5D9B4E600BF0D
:10164000F0684FF6FC71CFF6EE610840F0600020C4
:1016500002B0BDE8F0810000411E0020B0EB116F28
:101660001CBF012070474EF21002CEF20002516002
:101670004EF62351CEF20001F0230B70072190604B
:1016800011607047FEE700002DE9F04116460A465A
:101690001C468119134441F218080139013BC4F674
:1016A0000008FEF7CDFE06FB04F041004FF0100CE1
:1016B0004FF004024FF04003C8F810C0C8F81020E3
:1016C000C8F81030C8F80020C8F81020C8F800305A
:1016D000C8F80020C8F81020C8F80030C8F800206A
:1016E000C8F81020C8F80030C8F80020C8F810204A
:1016F000C8F81030C8F80020C8F81020C8F810301A
:10170000C8F80020C8F81020C8F80030C8F8002039
:10171000C8F81020C8F81030C8F8002000F08C80FD
:10172000069EB01E10F9024F4646474646F8102F57
:10173000B4F1FF3FC8BF37463B6067064546C8F86F
:101740000020326058BF3546A70647462B60C8F8D0
:101750000020326058BF37463B60E7064746C8F86E
:101760000020326058BF37463B6027074746C8F81D
:101770000020326058BF37463B6067074746C8F8CD
:101780000020326058BF37463B60A7074746C8F87D
:101790000020326058BF37463B60E7074746C8F82D
:1017A0000020326008BF37463B60C8F8002090F93F
:1017B000014047463260B4F1FF3FC8BF37463B6047
:1017C00067064746C8F80020326058BF37463B607E
:1017D000A7064746C8F80020326058BF37463B602E
:1017E000E7064746C8F80020326058BF37463B60DE
:1017F00027074746C8F80020326058BF37463B608D
:1018000067074746C8F80020326058BF37463B603C
:10181000A7074746C8F80020326058BF37463B60EC
:10182000E707C8F80020326018BF46460239336027
:10183000C8F800207FF476AFC8F800C0BDE8F0819A
:1018400010B586B041F24C00C4F20200016841F2CA
:10185000000441F0100101600068C4F6000400F0CB
:101860001000019001987E2001900120CDE9020036
:101870000320049001A92046FFF7EAF82046102132
:101880000122FFF7C5F906B010BD0000F0B581B028
:1018900041F22804C4F60004022564202560FFF705
:1018A000C3F8322044F8105CFFF7BEF81025042678
:1018B0004027C82025602660276044F8106C266009
:1018C00044F8107C44F8106C266044F8107C44F80E
:1018D000106C266044F8107C44F8106C2660276079
:1018E00044F8106C2660276044F8106C266027606E
:1018F00044F8106C2660276044F8106C266027605E
:1019000044F8106C2660276044F8106C266027604D
:1019100044F8106C2660276044F8106C266027603D
:1019200044F8106C2660276044F8106C266027602D
:1019300044F8106C2660276044F8106C266027601D
:1019400044F8106C2660276044F8106C266027600D
:1019500044F8106C2660276044F8106C26602760FD
:1019600044F8106C2660276044F8106C26602760ED
:1019700044F8106C266044F8107C44F8106C44F86D
:10198000105C25602660276044F8106C266044F8DF
:10199000107C44F8106C266044F8107C44F8106CFD
:1019A000266044F8107C44F8106C2660276044F8E8
:1019B000106C2660276044F8106C266044F8107C98
:1019C00044F8106C2660276044F8106C266027608D
:1019D00044F8106C2660276044F8106C266027607D
:1019E00044F8106C2660276044F8106C266027606D
:1019F00044F8106C2660276044F8106C266027605D
:101A000044F8106C2660276044F8106C266027604C
:101A100044F8106C2660276044F8106C266027603C
:101A200044F8106C2660276044F8106C266027602C
:101A300044F8106C2660276044F8106C266027601C
:101A400044F8106C2660276044F8106C44F8105C71
:101A500025602660276044F8106C266044F8107CEE
:101A600044F8106C266044F8107C44F8106C266032
:101A700044F8107C44F8106C2660276044F8106C21
:101A80002660276044F8106C2660276044F8106CCC
:101A90002660276044F8106C2660276044F8106CBC
:101AA0002660276044F8106C2660276044F8106CAC
:101AB0002660276044F8106C2660276044F8106C9C
:101AC0002660276044F8106C2660276044F8106C8C
:101AD0002660276044F8106C2660276044F8106C7C
:101AE0002660276044F8106C2660276044F8106C6C
:101AF0002660276044F8106C2660276044F8106C5C
:101B00002660276044F8106C266044F8107C44F886
:101B1000106C2660276044F8106C44F8105C256057
:101B20002660276044F8106C266044F8107C44F866
:101B3000106C266044F8107C44F8106C266044F861
:101B4000107C44F8106C2660276044F8106C266006
:101B5000276044F8106C266044F8107C44F8106C40
:101B60002660276044F8106C2660276044F8106CEB
:101B70002660276044F8106C2660276044F8106CDB
:101B80002660276044F8106C2660276044F8106CCB
:101B9000266044F8107C44F8106C266044F8107CF1
:101BA00044F8106C266044F8107C44F8106C2660F1
:101BB000276044F8106C2660276044F8106C26609B
:101BC000276044F8106C2660276044F8106C26608B
:101BD000276044F8106C2660276044F8106C26607B
:101BE000276044F8106C2660276044F8106C44F8B5
:101BF000105C25602660276044F8106C266044F86D
:101C0000107C44F8106C266044F8107C44F8106C8A
:101C1000266044F8107C44F8106C2660276044F875
:101C2000106C2660276044F8106C2660276044F82A
:101C3000106C2660276044F8106C2660276044F81A
:101C4000106C2660276044F8106C2660276044F80A
:101C5000106C2660276044F8106C2660276044F8FA
:101C6000106C2660276044F8106C2660276044F8EA
:101C7000106C2660276044F8106C2660276044F8DA
:101C8000106C2660276044F8106C2660276044F8CA
:101C9000106C2660276044F8106C2660276044F8BA
:101CA000106C2660276044F8106C266044F8107CA5
:101CB00044F8106C266044F8107C44F8106C44F82A
:101CC000105C25602660276044F8106C266044F89C
:101CD000107C44F8106C266044F8107C44F8106CBA
:101CE000266044F8107C44F8106C2660276044F8A5
:101CF000106C2660276044F8106C266044F8107C55
:101D000044F8106C2660276044F8106C2660276049
:101D100044F8106C2660276044F8106C2660276039
:101D200044F8106C266044F8107C44F8106C26606F
:101D3000276044F8106C2660276044F8106C266019
:101D4000276044F8106C2660276044F8106C266009
:101D5000276044F8106C2660276044F8106C2660F9
:101D600044F8107C44F8106C266044F8107C44F869
:101D7000106C2660276044F8106C2660276044F8D9
:101D8000106C2660276044F8106C2660276044F8C9
:101D9000106C44F8105C25602660276044F8106CD5
:101DA000266044F8107C44F8106C266044F8107CDF
:101DB00044F8106C266044F8107C44F8106C2660DF
:101DC000276044F8106C2660276044F8106C266089
:101DD000276044F8106C2660276044F8106C266079
:101DE000276044F8106C2660276044F8106C266069
:101DF000276044F8106C2660276044F8106C266059
:101E0000276044F8106C2660276044F8106C266048
:101E1000276044F8106C2660276044F8106C266038
:101E2000276044F8106C2660276044F8106C266028
:101E3000276044F8106C2660276044F8106C266018
:101E4000276044F8106C266044F8107C44F8106C4D
:101E50002660276044F8106C2660276044F8106CF8
:101E600044F8105C25602660276044F8106C2660FA
:101E700044F8107C44F8106C266044F8107C44F858
:101E8000106C266044F8107C44F8106C26602760C3
:101E900044F8106C2660276044F8106C266044F803
:101EA000107C44F8106C2660276044F8106C2660A3
:101EB000276044F8106C2660276044F8106C266098
:101EC000276044F8106C2660276044F8106C266088
:101ED000276044F8106C2660276044F8106C266078
:101EE000276044F8106C2660276044F8106C266068
:101EF000276044F8106C2660276044F8106C266058
:101F0000276044F8106C2660276044F8106C266047
:101F1000276044F8106C2660276044F8106C266037
:101F2000276044F8106C2660276044F8106C44F871
:101F3000105C25602660276044F8106C266044F829
:101F4000107C44F8106C266044F8107C44F8106C47
:101F5000266044F8107C44F8106C2660276044F832
:101F6000106C2660276044F8106C2660276044F8E7
:101F7000106C2660276044F8106C2660276044F8D7
:101F8000106C2660276044F8106C2660276044F8C7
:101F9000106C2660276044F8106C2660276044F8B7
:101FA000106C2660276044F8106C2660276044F8A7
:101FB000106C2660276044F8106C2660276044F897
:101FC000106C2660276044F8106C2660276044F887
:101FD000106C2660276044F8106C266044F8107C72
:101FE00044F8106C2660276044F8106C2660276067
:101FF00044F8106C2660276044F8106C44F8105CBC
:1020000025602660276044F8106C266044F8107C38
:1020100044F8106C266044F8107C44F8106C26607C
:1020200044F8107C44F8106C2660276044F8106C6B
:102030002660276044F8106C266044F8107C44F851
:10204000106C2660276044F8106C2660276044F806
:10205000106C2660276044F8106C2660276044F8F6
:10206000106C2660276044F8106C2660276044F8E6
:10207000106C2660276044F8106C266044F8107CD1
:1020800044F8106C2660276044F8106C26602760C6
:1020900044F8106C2660276044F8106C26602760B6
:1020A00044F8106C2660276044F8106C26602760A6
:1020B00044F8106C2660276044F8106C266044F8E1
:1020C000107C44F8106C2660276044F8106C44F8CB
:1020D000105C25602660276044F8106C266044F888
:1020E000107C44F8106C266044F8107C44F8106CA6
:1020F000266044F8107C44F8106C2660276044F891
:10210000106C2660276044F8106C2660276044F845
:10211000106C2660276044F8106C2660276044F835
:10212000106C2660276044F8106C2660276044F825
:10213000106C2660276044F8106C2660276044F815
:10214000106C2660276044F8106C2660276044F805
:10215000106C2660276044F8106C2660276044F8F5
:10216000106C2660276044F8106C2660276044F8E5
:10217000106C2660276044F8106C266044F8107CD0
:1021800044F8106C2660276044F8106C26602760C5
:1021900044F8106C266044F8107C44F8106C44F845
:1021A000105C25602660276044F8106C266044F8B7
:1021B000107C44F8106C266044F8107C44F8106CD5
:1021C000266044F8107C44F8106C2660276044F8C0
:1021D000106C2660276044F8106C266044F8107C70
:1021E00044F8106C2660276044F8106C2660276065
:1021F00044F8106C2660276044F8106C2660276055
:1022000044F8106C2660276044F8106C2660276044
:1022100044F8106C2660276044F8106C2660276034
:1022200044F8106C2660276044F8106C2660276024
:1022300044F8106C2660276044F8106C2660276014
:1022400044F8106C2660276044F8106C2660276004
:1022500044F8106C2660276044F8106C26602760F4
:1022600044F8106C2660276044F8106C44F8105C49
:1022700025602660276044F8106C266044F8107CC6
:1022800044F8106C266044F8107C44F8106C26600A
:1022900044F8107C44F8106C2660276044F8106CF9
:1022A0002660276044F8106C2660276044F8106CA4
:1022B0002660276044F8106C2660276044F8106C94
:1022C0002660276044F8106C2660276044F8106C84
:1022D0002660276044F8106C2660276044F8106C74
:1022E0002660276044F8106C2660276044F8106C64
:1022F0002660276044F8106C2660276044F8106C54
:102300002660276044F8106C2660276044F8106C43
:102310002660276044F8106C266044F8107C44F86E
:10232000106C2660276044F8106C266044F8107C1E
:1023300044F8106C2660276044F8106C44F8105C78
:1023400025602660276044F8106C266044F8107CF5
:1023500044F8106C266044F8107C44F8106C266039
:1023600044F8107C44F8106C2660276044F8106C28
:102370002660276044F8106C266044F8107C44F80E
:10238000106C2660276044F8106C2660276044F8C3
:10239000106C2660276044F8106C2660276044F8B3
:1023A000106C2660276044F8106C2660276044F8A3
:1023B000106C2660276044F8106C2660276044F893
:1023C000106C2660276044F8106C2660276044F883
:1023D000106C2660276044F8106C2660276044F873
:1023E000106C2660276044F8106C2660276044F863
:1023F000106C2660276044F8106C2660276044F853
:10240000106C2660276044F8106C44F8105C25605E
:102410002660276044F8106C266044F8107C44F86D
:10242000106C266044F8107C44F8106C266044F868
:10243000107C44F8106C2660276044F8106C26600D
:10244000276044F8106C2660276044F8106C266002
:10245000276044F8106C2660276044F8106C2660F2
:10246000276044F8106C2660276044F8106C2660E2
:10247000276044F8106C2660276044F8106C2660D2
:10248000276044F8106C2660276044F8106C2660C2
:10249000276044F8106C2660276044F8106C2660B2
:1024A000276044F8106C2660276044F8106C2660A2
:1024B000276044F8106C266044F8107C44F8106CD7
:1024C000266044F8107C44F8106C2660276044F8BD
:1024D000106C2660276044F8106C44F8105C25608E
:1024E0002660276044F8106C266044F8107C44F89D
:1024F000106C266044F8107C44F8106C266044F898
:10250000107C44F8106C2660276044F8106C26603C
:10251000276044F8106C266044F8107C44F8106C76
:102520002660276044F8106C2660276044F8106C21
:102530002660276044F8106C2660276044F8106C11
:102540002660276044F8106C2660276044F8106C01
:102550002660276044F8106C2660276044F8106CF1
:102560002660276044F8106C2660276044F8106CE1
:102570002660276044F8106C2660276044F8106CD1
:102580002660276044F8106C2660276044F8106CC1
:102590002660276044F8106C2660276044F8106CB1
:1025A0002660276044F8106C44F8105C25602660B3
:1025B000276044F8106C266044F8107C44F8106CD6
:1025C000266044F8107C44F8106C266044F8107CB7
:1025D00044F8106C2660276044F8106C2660276071
:1025E00044F8106C2660276044F8106C2660276061
:1025F00044F8106C2660276044F8106C2660276051
:1026000044F8106C2660276044F8106C2660276040
:1026100044F8106C2660276044F8106C2660276030
:1026200044F8106C2660276044F8106C2660276020
:1026300044F8106C2660276044F8106C2660276010
:1026400044F8106C2660276044F8106C2660276000
:1026500044F8106C266044F8107C44F8106C266036
:1026600044F8107C44F8106C2660276044F8106C25
:10267000266044F8107C44F8106C44F8105C256027
:102680002660276044F8106C266044F8107C44F8FB
:10269000106C266044F8107C44F8106C266044F8F6
:1026A000107C44F8106C2660276044F8106C26609B
:1026B000276044F8106C266044F8107C44F8106CD5
:1026C0002660276044F8106C2660276044F8106C80
:1026D0002660276044F8106C2660276044F8106C70
:1026E0002660276044F8106C2660276044F8106C60
:1026F0002660276044F8106C2660276044F8106C50
:102700002660276044F8106C2660276044F8106C3F
:102710002660276044F8106C2660276044F8106C2F
:102720002660276044F8106C2660276044F8106C1F
:102730002660276044F8106C2660276044F8106C0F
:102740002660276044F8106C44F8105C2560266011
:10275000276044F8106C266044F8107C44F8106C34
:10276000266044F8107C44F8106C266044F8107C15
:1027700044F8106C2660276044F8106C26602760CF
:1027800044F8106C2660276044F8106C26602760BF
:1027900044F8106C2660276044F8106C26602760AF
:1027A00044F8106C2660276044F8106C266027609F
:1027B00044F8106C2660276044F8106C266027608F
:1027C00044F8106C2660276044F8106C266027607F
:1027D00044F8106C2660276044F8106C266027606F
:1027E00044F8106C2660276044F8106C266027605F
:1027F00044F8106C266044F8107C44F8106C266095
:1028000044F8107C44F8106C266044F8107C44F8BE
:10281000106C266044F8107C44F8106C44F8105C8E
:1028200025602660276044F8106C266044F8107C10
:1028300044F8106C266044F8107C44F8106C266054
:1028400044F8107C44F8106C2660276044F8106C43
:102850002660276044F8106C266044F8107C44F829
:10286000106C2660276044F8106C2660276044F8DE
:10287000106C2660276044F8106C2660276044F8CE
:10288000106C2660276044F8106C2660276044F8BE
:10289000106C2660276044F8106C2660276044F8AE
:1028A000106C2660276044F8106C2660276044F89E
:1028B000106C2660276044F8106C2660276044F88E
:1028C000106C2660276044F8106C2660276044F87E
:1028D000106C2660276044F8106C2660276044F86E
:1028E000106C2660276044F8106C44F8105C25607A
:1028F0002660276044F8106C266044F8107C44F889
:10290000106C266044F8107C44F8106C266044F883
:10291000107C44F8106C2660276044F8106C266028
:10292000276044F8106C2660276044F8106C26601D
:10293000276044F8106C2660276044F8106C26600D
:10294000276044F8106C2660276044F8106C2660FD
:10295000276044F8106C2660276044F8106C2660ED
:10296000276044F8106C2660276044F8106C2660DD
:10297000276044F8106C2660276044F8106C2660CD
:10298000276044F8106C2660276044F8106C2660BD
:1029900044F8107C44F8106C2660276044F8106CF2
:1029A0002660276044F8106C2660276044F8106C9D
:1029B0002660276044F8106C44F8105C256026609F
:1029C000276044F8106C266044F8107C44F8106CC2
:1029D000266044F8107C44F8106C266044F8107CA3
:1029E00044F8106C2660276044F8106C266027605D
:1029F00044F8106C266044F8107C44F8106C266093
:102A0000276044F8106C2660276044F8106C26603C
:102A1000276044F8106C2660276044F8106C26602C
:102A2000276044F8106C2660276044F8106C26601C
:102A3000276044F8106C2660276044F8106C26600C
:102A4000276044F8106C2660276044F8106C2660FC
:102A5000276044F8106C2660276044F8106C2660EC
:102A6000276044F8106C2660276044F8106C2660DC
:102A7000276044F8106C2660276044F8106C2660CC
:102A8000276044F8106C44F8105C256026602760CD
:102A900044F8106C266044F8107C44F8106C2660F2
:102AA00044F8107C44F8106C266044F8107C44F81C
:102AB000106C2660276044F8106C2660276044F88C
:102AC000106C2660276044F8106C2660276044F87C
:102AD000106C2660276044F8106C2660276044F86C
:102AE000106C2660276044F8106C2660276044F85C
:102AF000106C2660276044F8106C2660276044F84C
:102B0000106C2660276044F8106C2660276044F83B
:102B1000106C2660276044F8106C2660276044F82B
:102B2000106C2660276044F8106C266044F8107C16
:102B300044F8106C2660276044F8106C266027600B
:102B400044F8106C2660276044F8106C266044F846
:102B5000107C44F8106C44F8105C256026602760F7
:102B600044F8106C266044F8107C44F8106C266021
:102B700044F8107C44F8106C266044F8107C44F84B
:102B8000106C2660276044F8106C2660276044F8BB
:102B9000106C266044F8107C44F8106C26602760A6
:102BA00044F8106C2660276044F8106C266027609B
:102BB00044F8106C2660276044F8106C266027608B
:102BC00044F8106C2660276044F8106C266027607B
:102BD00044F8106C2660276044F8106C266027606B
:102BE00044F8106C2660276044F8106C266027605B
:102BF00044F8106C2660276044F8106C266027604B
:102C000044F8106C2660276044F8106C266044F885
:102C1000107C44F8106C266044F8107C44F8106C6A
:102C2000266044F8107C44F8106C44F8105C256071
:102C30002660276044F8106C266044F8107C44F845
:102C4000106C266044F8107C44F8106C266044F840
:102C5000107C44F8106C2660276044F8106C2660E5
:102C6000276044F8106C2660276044F8106C2660DA
:102C7000276044F8106C2660276044F8106C2660CA
:102C8000276044F8106C2660276044F8106C2660BA
:102C9000276044F8106C2660276044F8106C2660AA
:102CA000276044F8106C2660276044F8106C26609A
:102CB000276044F8106C2660276044F8106C26608A
:102CC000276044F8106C2660276044F8106C26607A
:102CD00044F8107C44F8106C2660276044F8106CAF
:102CE0002660276044F8106C266044F8107C44F895
:102CF000106C2660276044F8106C44F8105C256066
:102D00002660276044F8106C266044F8107C44F874
:102D1000106C266044F8107C44F8106C266044F86F
:102D2000107C44F8106C2660276044F8106C266014
:102D3000276044F8106C266044F8107C44F8106C4E
:102D40002660276044F8106C2660276044F8106CF9
:102D50002660276044F8106C2660276044F8106CE9
:102D60002660276044F8106C2660276044F8106CD9
:102D70002660276044F8106C2660276044F8106CC9
:102D80002660276044F8106C2660276044F8106CB9
:102D90002660276044F8106C2660276044F8106CA9
:102DA0002660276044F8106C2660276044F8106C99
:102DB0002660276044F8106C2660276044F8106C89
:102DC0002660276044F8106C44F8105C256026608B
:102DD000276044F8106C266044F8107C44F8106CAE
:102DE000266044F8107C44F8106C266044F8107C8F
:102DF00044F8106C2660276044F8106C2660276049
:102E000044F8106C2660276044F8106C2660276038
:102E100044F8106C2660276044F8106C2660276028
:102E200044F8106C2660276044F8106C2660276018
:102E300044F8106C2660276044F8106C2660276008
:102E400044F8106C2660276044F8106C26602760F8
:102E500044F8106C2660276044F8106C26602760E8
:102E600044F8106C2660276044F8106C266044F823
:102E7000107C44F8106C2660276044F8106C2660C3
:102E8000276044F8106C266044F8107C44F8106CFD
:102E9000266044F8107C44F8106C44F8105C2560FF
:102EA0002660276044F8106C266044F8107C44F8D3
:102EB000106C266044F8107C44F8106C266044F8CE
:102EC000107C44F8106C2660276044F8106C266073
:102ED000276044F8106C266044F8107C44F8106CAD
:102EE0002660276044F8106C2660276044F8106C58
:102EF0002660276044F8106C2660276044F8106C48
:102F00002660276044F8106C2660276044F8106C37
:102F10002660276044F8106C2660276044F8106C27
:102F20002660276044F8106C2660276044F8106C17
:102F30002660276044F8106C2660276044F8106C07
:102F40002660276044F8106C2660276044F8106CF7
:102F50002660276044F8106C2660276044F8106CE7
:102F60002660276044F8106C44F8105C25602660E9
:102F7000276044F8106C266044F8107C44F8106C0C
:102F8000266044F8107C44F8106C266044F8107CED
:102F900044F8106C2660276044F8106C26602760A7
:102FA00044F8106C2660276044F8106C2660276097
:102FB00044F8106C2660276044F8106C2660276087
:102FC00044F8106C2660276044F8106C2660276077
:102FD00044F8106C2660276044F8106C2660276067
:102FE00044F8106C2660276044F8106C2660276057
:102FF00044F8106C2660276044F8106C2660276047
:1030000044F8106C2660276044F8106C2660276036
:1030100044F8106C2660276044F8106C266044F871
:10302000107C44F8106C266044F8107C44F8106C56
:10303000266044F8107C44F8106C44F8105C25605D
:103040002660276044F8106C266044F8107C44F831
:10305000106C266044F8107C44F8106C266044F82C
:10306000107C44F8106C2660276044F8106C2660D1
:10307000276044F8106C266044F8107C44F8106C0B
:103080002660276044F8106C2660276044F8106CB6
:103090002660276044F8106C2660276044F8106CA6
:1030A0002660276044F8106C2660276044F8106C96
:1030B0002660276044F8106C2660276044F8106C86
:1030C0002660276044F8106C2660276044F8106C76
:1030D0002660276044F8106C2660276044F8106C66
:1030E0002660276044F8106C2660276044F8106C56
:1030F0002660276044F8106C2660276044F8106C46
:10310000266044F8107C44F8106C44F8105CFDF71D
:103110008BFC322025602660276044F8106C266006
:1031200044F8107C44F8106C266044F8107C44F895
:10313000106C266044F8107C44F8106C2660276000
:1031400044F8106C2660276044F8106C26602760F5
:1031500044F8106C2660276044F8106C26602760E5
:1031600044F8106C2660276044F8106C26602760D5
:1031700044F8106C2660276044F8106C26602760C5
:1031800044F8106C2660276044F8106C26602760B5
:1031900044F8106C2660276044F8106C26602760A5
:1031A00044F8106C2660276044F8106C2660276095
:1031B00044F8106C266044F8107C44F8106C2660CB
:1031C000276044F8106C2660276044F8106C266075
:1031D000276044F8106C2660276044F8106C44F8AF
:1031E000105C25602660276044F8106C266044F867
:1031F000107C44F8106C266044F8107C44F8106C85
:10320000266044F8107C44F8106C2660276044F86F
:10321000106C2660276044F8106C266044F8107C1F
:1032200044F8106C2660276044F8106C2660276014
:1032300044F8106C2660276044F8106C2660276004
:1032400044F8106C266044F8107C44F8106C26603A
:10325000276044F8106C266044F8107C44F8106C29
:10326000266044F8107C44F8106C2660276044F80F
:10327000106C266044F8107C44F8106C26602760BF
:1032800044F8106C2660276044F8106C266044F8FF
:10329000107C44F8106C2660276044F8106C26609F
:1032A000276044F8106C2660276044F8106C266094
:1032B000276044F8106C44F8105C25602660276095
:1032C00044F8106C266044F8107C44F8106C2660BA
:1032D00044F8107C44F8106C266044F8107C44F8E4
:1032E000106C2660276044F8106C2660276044F854
:1032F000106C2660276044F8106C2660276044F844
:10330000106C2660276044F8106C2660276044F833
:10331000106C2660276044F8106C2660276044F823
:10332000106C2660276044F8106C2660276044F813
:10333000106C2660276044F8106C2660276044F803
:10334000106C2660276044F8106C2660276044F8F3
:10335000106C2660276044F8106C266044F8107CDE
:1033600044F8106C2660276044F8106C26602760D3
:1033700044F8106C2660276044F8106C266044F80E
:10338000107C44F8106C44F8105C256026602760BF
:1033900044F8106C266044F8107C44F8106C2660E9
:1033A00044F8107C44F8106C266044F8107C44F813
:1033B000106C2660276044F8106C2660276044F883
:1033C000106C266044F8107C44F8106C266027606E
:1033D00044F8106C2660276044F8106C2660276063
:1033E00044F8106C2660276044F8106C2660276053
:1033F00044F8106C2660276044F8106C2660276043
:1034000044F8106C266044F8107C44F8106C266078
:10341000276044F8106C2660276044F8106C266022
:10342000276044F8106C266044F8107C44F8106C57
:103430002660276044F8106C2660276044F8106C02
:10344000266044F8107C44F8106C266044F8107C28
:1034500044F8106C266044F8107C44F8106C44F872
:10346000105CFDF7E1FA322025602660276044F801
:10347000106C266044F8107C44F8106C266044F808
:10348000107C44F8106C266044F8107C44F8106CF2
:103490002660276044F8106C2660276044F8106CA2
:1034A0002660276044F8106C2660276044F8106C92
:1034B0002660276044F8106C2660276044F8106C82
:1034C0002660276044F8106C2660276044F8106C72
:1034D0002660276044F8106C2660276044F8106C62
:1034E0002660276044F8106C2660276044F8106C52
:1034F0002660276044F8106C2660276044F8106C42
:103500002660276044F8106C266044F8107C44F86C
:10351000106C2660276044F8106C2660276044F821
:10352000106C266044F8107C44F8106C266027600C
:1035300044F8106C44F8105C25602660276044F85D
:10354000106C266044F8107C44F8106C266044F837
:10355000107C44F8106C266044F8107C44F8106C21
:103560002660276044F8106C2660276044F8106CD1
:10357000266044F8107C44F8106C2660276044F8FC
:10358000106C2660276044F8106C2660276044F8B1
:10359000106C2660276044F8106C2660276044F8A1
:1035A000106C2660276044F8106C2660276044F891
:1035B000106C2660276044F8106C2660276044F881
:1035C000106C266044F8107C44F8106C266027606C
:1035D00044F8106C2660276044F8106C266044F8AC
:1035E000107C44F8106C266044F8107C44F8106C91
:1035F000266044F8107C44F8106C2660276044F87C
:10360000106C266044F8107C44F8106C44F8105C90
:10361000FDF70AFA322025602660276044F8106C16
:10362000266044F8107C44F8106C266044F8107C46
:1036300044F8106C266044F8107C44F8106C266046
:10364000276044F8106C2660276044F8106C2660F0
:10365000276044F8106C2660276044F8106C2660E0
:10366000276044F8106C2660276044F8106C2660D0
:10367000276044F8106C2660276044F8106C2660C0
:10368000276044F8106C2660276044F8106C2660B0
:10369000276044F8106C2660276044F8106C2660A0
:1036A000276044F8106C2660276044F8106C266090
:1036B000276044F8106C266044F8107C44F8106CC5
:1036C0002660276044F8106C2660276044F8106C70
:1036D000266044F8107C44F8106C266044F8107C96
:1036E00044F8106C44F8105C25602660276044F8AC
:1036F000106C266044F8107C44F8106C266044F886
:10370000107C44F8106C266044F8107C44F8106C6F
:103710002660276044F8106C2660276044F8106C1F
:10372000266044F8107C44F8106C2660276044F84A
:10373000106C2660276044F8106C2660276044F8FF
:10374000106C2660276044F8106C266044F8107CEA
:1037500044F8106C266044F8107C44F8106C266025
:10376000276044F8106C266044F8107C44F8106C14
:103770002660276044F8106C2660276044F8106CBF
:103780002660276044F8106C2660276044F8106CAF
:103790002660276044F8106C2660276044F8106C9F
:1037A0002660276044F8106C2660276044F8106C8F
:1037B0002660276044F8106C44F8105C2560266091
:1037C000276044F8106C266044F8107C44F8106CB4
:1037D000266044F8107C44F8106C266044F8107C95
:1037E00044F8106C2660276044F8106C266027604F
:1037F00044F8106C2660276044F8106C266027603F
:1038000044F8106C2660276044F8106C266027602E
:1038100044F8106C2660276044F8106C266027601E
:1038200044F8106C2660276044F8106C266027600E
:1038300044F8106C2660276044F8106C26602760FE
:1038400044F8106C2660276044F8106C26602760EE
:1038500044F8106C266044F8107C44F8106C266024
:10386000276044F8106C266044F8107C44F8106C13
:103870002660276044F8106C2660276044F8106CBE
:10388000266044F8107C44F8106C44F8105C256005
:103890002660276044F8106C266044F8107C44F8D9
:1038A000106C266044F8107C44F8106C266044F8D4
:1038B000107C44F8106C2660276044F8106C266079
:1038C000276044F8106C266044F8107C44F8106CB3
:1038D0002660276044F8106C2660276044F8106C5E
:1038E0002660276044F8106C2660276044F8106C4E
:1038F0002660276044F8106C2660276044F8106C3E
:103900002660276044F8106C2660276044F8106C2D
:103910002660276044F8106C2660276044F8106C1D
:103920002660276044F8106C2660276044F8106C0D
:10393000266044F8107C44F8106C266044F8107C33
:1039400044F8106C266044F8107C44F8106C266033
:10395000276044F8106C266044F8107C44F8106C22
:1039600044F8105C25602660276044F8106C2660DF
:1039700044F8107C44F8106C266044F8107C44F83D
:10398000106C266044F8107C44F8106C26602760A8
:1039900044F8106C2660276044F8106C266027609D
:1039A00044F8106C2660276044F8106C266027608D
:1039B00044F8106C2660276044F8106C266027607D
:1039C00044F8106C2660276044F8106C266027606D
:1039D00044F8106C2660276044F8106C266027605D
:1039E00044F8106C2660276044F8106C266027604D
:1039F00044F8106C2660276044F8106C266044F888
:103A0000107C44F8106C2660276044F8106C266027
:103A100044F8107C44F8106C2660276044F8106C61
:103A2000266044F8107C44F8106C266044F8107C42
:103A300044F8106C44F8105C25602660276044F858
:103A4000106C266044F8107C44F8106C266044F832
:103A5000107C44F8106C266044F8107C44F8106C1C
:103A60002660276044F8106C2660276044F8106CCC
:103A7000266044F8107C44F8106C2660276044F8F7
:103A8000106C2660276044F8106C2660276044F8AC
:103A9000106C2660276044F8106C2660276044F89C
:103AA000106C2660276044F8106C2660276044F88C
:103AB000106C2660276044F8106C2660276044F87C
:103AC000106C2660276044F8106C2660276044F86C
:103AD000106C2660276044F8106C2660276044F85C
:103AE000106C266044F8107C44F8106C266044F892
:103AF000107C44F8106C2660276044F8106C266037
:103B000044F8107C44F8106C44F8105CFCF78CFF0F
:103B100025602660276044F8106C266044F8107C0D
:103B200044F8106C266044F8107C44F8106C266051
:103B300044F8107C44F8106C2660276044F8106C40
:103B40002660276044F8106C2660276044F8106CEB
:103B50002660276044F8106C2660276044F8106CDB
:103B60002660276044F8106C2660276044F8106CCB
:103B70002660276044F8106C2660276044F8106CBB
:103B80002660276044F8106C2660276044F8106CAB
:103B90002660276044F8106C2660276044F8106C9B
:103BA0002660276044F8106C266044F8107C44F8C6
:103BB000106C2660276044F8106C2660276044F87B
:103BC000106C2660276044F8106C2660276044F86B
:103BD000106C2660276044F8106C44F8105C256077
:103BE0002660276044F8106C266044F8107C44F886
:103BF000106C266044F8107C44F8106C266044F881
:103C0000107C44F8106C2660276044F8106C266025
:103C1000276044F8106C266044F8107C44F8106C5F
:103C20002660276044F8106C2660276044F8106C0A
:103C30002660276044F8106C2660276044F8106CFA
:103C40002660276044F8106C2660276044F8106CEA
:103C50002660276044F8106C2660276044F8106CDA
:103C60002660276044F8106C2660276044F8106CCA
:103C70002660276044F8106C2660276044F8106CBA
:103C80002660276044F8106C2660276044F8106CAA
:103C90002660276044F8106C2660276044F8106C9A
:103CA0002660276044F8106C44F8105C256026609C
:103CB000276044F8106C266044F8107C44F8106CBF
:103CC000266044F8107C44F8106C266044F8107CA0
:103CD00044F8106C2660276044F8106C266027605A
:103CE00044F8106C2660276044F8106C266027604A
:103CF00044F8106C2660276044F8106C266027603A
:103D000044F8106C2660276044F8106C2660276029
:103D100044F8106C2660276044F8106C2660276019
:103D200044F8106C2660276044F8106C2660276009
:103D300044F8106C2660276044F8106C26602760F9
:103D400044F8106C266044F8107C44F8106C26602F
:103D5000276044F8106C2660276044F8106C2660D9
:103D6000276044F8106C2660276044F8106C2660C9
:103D700044F8107C44F8106C44F8105C2560266010
:103D8000276044F8106C266044F8107C44F8106CEE
:103D9000266044F8107C44F8106C266044F8107CCF
:103DA00044F8106C2660276044F8106C2660276089
:103DB00044F8106C266044F8107C44F8106C2660BF
:103DC000276044F8106C2660276044F8106C266069
:103DD000276044F8106C2660276044F8106C266059
:103DE000276044F8106C2660276044F8106C266049
:103DF000276044F8106C2660276044F8106C266039
:103E0000276044F8106C2660276044F8106C266028
:103E1000276044F8106C2660276044F8106C266018
:103E2000276044F8106C2660276044F8106C266008
:103E3000276044F8106C2660276044F8106C2660F8
:103E4000276044F8106C44F8105C256026602760F9
:103E500044F8106C266044F8107C44F8106C26601E
:103E600044F8107C44F8106C266044F8107C44F848
:103E7000106C2660276044F8106C2660276044F8B8
:103E8000106C2660276044F8106C2660276044F8A8
:103E9000106C2660276044F8106C2660276044F898
:103EA000106C2660276044F8106C2660276044F888
:103EB000106C2660276044F8106C2660276044F878
:103EC000106C2660276044F8106C2660276044F868
:103ED000106C2660276044F8106C2660276044F858
:103EE000106C266044F8107C44F8106C266044F88E
:103EF000107C44F8106C2660276044F8106C266033
:103F0000276044F8106C2660276044F8106C266027
:103F1000276044F8106C44F8105C25602660276028
:103F200044F8106C266044F8107C44F8106C26604D
:103F300044F8107C44F8106C266044F8107C44F877
:103F4000106C2660276044F8106C2660276044F8E7
:103F5000106C266044F8107C44F8106C26602760D2
:103F600044F8106C2660276044F8106C26602760C7
:103F700044F8106C2660276044F8106C26602760B7
:103F800044F8106C2660276044F8106C26602760A7
:103F900044F8106C2660276044F8106C2660276097
:103FA00044F8106C2660276044F8106C2660276087
:103FB00044F8106C2660276044F8106C2660276077
:103FC00044F8106C2660276044F8106C2660276067
:103FD00044F8106C2660276044F8106C2660276057
:103FE00044F8106C44F8105C25602660276044F8A3
:103FF000106C266044F8107C44F8106C266044F87D
:10400000107C44F8106C266044F8107C44F8106C66
:104010002660276044F8106C2660276044F8106C16
:104020002660276044F8106C2660276044F8106C06
:104030002660276044F8106C2660276044F8106CF6
:104040002660276044F8106C2660276044F8106CE6
:104050002660276044F8106C2660276044F8106CD6
:104060002660276044F8106C2660276044F8106CC6
:104070002660276044F8106C2660276044F8106CB6
:10408000266044F8107C44F8106C266044F8107CDC
:1040900044F8106C2660276044F8106C2660276096
:1040A00044F8106C2660276044F8106C266044F8D1
:1040B000107C44F8106C44F8105C25602660276082
:1040C00044F8106C266044F8107C44F8106C2660AC
:1040D00044F8107C44F8106C266044F8107C44F8D6
:1040E000106C2660276044F8106C2660276044F846
:1040F000106C266044F8107C44F8106C2660276031
:1041000044F8106C2660276044F8106C2660276025
:1041100044F8106C2660276044F8106C2660276015
:1041200044F8106C2660276044F8106C266044F850
:10413000107C44F8106C266044F8107C44F8106C35
:104140002660276044F8106C2660276044F8106CE5
:104150002660276044F8106C2660276044F8106CD5
:104160002660276044F8106C2660276044F8106CC5
:10417000266044F8107C44F8106C266044F8107CEB
:1041800044F8106C266044F8107C44F8106C44F835
:10419000105C25602660276044F8106C266044F8A7
:1041A000107C44F8106C266044F8107C44F8106CC5
:1041B000266044F8107C44F8106C2660276044F8B0
:1041C000106C2660276044F8106C2660276044F865
:1041D000106C2660276044F8106C2660276044F855
:1041E000106C2660276044F8106C2660276044F845
:1041F000106C2660276044F8106C2660276044F835
:10420000106C2660276044F8106C2660276044F824
:10421000106C2660276044F8106C2660276044F814
:10422000106C2660276044F8106C266044F8107CFF
:1042300044F8106C266044F8107C44F8106C26603A
:10424000276044F8106C2660276044F8106C2660E4
:1042500044F8107C44F8106C2660276044F8106C19
:1042600044F8105C25602660276044F8106C2660D6
:1042700044F8107C44F8106C266044F8107C44F834
:10428000106C266044F8107C44F8106C266027609F
:1042900044F8106C2660276044F8106C266044F8DF
:1042A000107C44F8106C2660276044F8106C26607F
:1042B000276044F8106C2660276044F8106C266074
:1042C000276044F8106C2660276044F8106C266064
:1042D000276044F8106C2660276044F8106C266054
:1042E00044F8107C44F8106C266044F8107C44F8C4
:1042F000106C2660276044F8106C2660276044F834
:10430000106C2660276044F8106C2660276044F823
:10431000106C2660276044F8106C266044F8107C0E
:1043200044F8106C2660276044F8106C266044F84E
:10433000107C44F8106C44F8105C256026602760FF
:1043400044F8106C266044F8107C44F8106C266029
:1043500044F8107C44F8106C266044F8107C44F853
:10436000106C2660276044F8106C2660276044F8C3
:10437000106C2660276044F8106C2660276044F8B3
:10438000106C2660276044F8106C2660276044F8A3
:10439000106C2660276044F8106C2660276044F893
:1043A000106C2660276044F8106C2660276044F883
:1043B000106C2660276044F8106C2660276044F873
:1043C000106C2660276044F8106C2660276044F863
:1043D000106C266044F8107C44F8106C266044F899
:1043E000107C44F8106C2660276044F8106C26603E
:1043F00044F8107C44F8106C2660276044F8106C78
:10440000266044F8107C44F8106C44F8105C256079
:104410002660276044F8106C266044F8107C44F84D
:10442000106C266044F8107C44F8106C266044F848
:10443000107C44F8106C2660276044F8106C2660ED
:10444000276044F8106C266044F8107C44F8106C27
:104450002660276044F8106C2660276044F8106CD2
:104460002660276044F8106C2660276044F8106CC2
:104470002660276044F8106C2660276044F8106CB2
:104480002660276044F8106C2660276044F8106CA2
:104490002660276044F8106C2660276044F8106C92
:1044A0002660276044F8106C2660276044F8106C82
:1044B0002660276044F8106C2660276044F8106C72
:1044C0002660276044F8106C2660276044F8106C62
:1044D0002660276044F8106C44F8105C2560266064
:1044E000276044F8106C266044F8107C44F8106C87
:1044F000266044F8107C44F8106C266044F8107C68
:1045000044F8106C2660276044F8106C2660276021
:1045100044F8106C2660276044F8106C2660276011
:1045200044F8106C2660276044F8106C2660276001
:1045300044F8106C2660276044F8106C26602760F1
:1045400044F8106C2660276044F8106C26602760E1
:1045500044F8106C2660276044F8106C26602760D1
:1045600044F8106C2660276044F8106C26602760C1
:1045700044F8106C266044F8107C44F8106C2660F7
:1045800044F8107C44F8106C2660276044F8106CE6
:10459000266044F8107C44F8106C266044F8107CC7
:1045A00044F8106C2660276044F8106C44F8105CE6
:1045B00025602660276044F8106C266044F8107C63
:1045C00044F8106C266044F8107C44F8106C2660A7
:1045D00044F8107C44F8106C2660276044F8106C96
:1045E0002660276044F8106C266044F8107C44F87C
:1045F000106C2660276044F8106C2660276044F831
:10460000106C2660276044F8106C2660276044F820
:10461000106C266044F8107C44F8106C266027600B
:1046200044F8106C266044F8107C44F8106C266046
:1046300044F8107C44F8106C2660276044F8106C35
:104640002660276044F8106C2660276044F8106CE0
:104650002660276044F8106C2660276044F8106CD0
:104660002660276044F8106C266044F8107C44F8FB
:10467000106C2660276044F8106C2660276044F8B0
:10468000106C44F8105C25602660276044F8106CBC
:10469000266044F8107C44F8106C266044F8107CC6
:1046A00044F8106C266044F8107C44F8106C2660C6
:1046B000276044F8106C2660276044F8106C266070
:1046C000276044F8106C2660276044F8106C266060
:1046D000276044F8106C2660276044F8106C266050
:1046E000276044F8106C2660276044F8106C266040
:1046F000276044F8106C2660276044F8106C266030
:10470000276044F8106C2660276044F8106C26601F
:10471000276044F8106C2660276044F8106C26600F
:1047200044F8107C44F8106C266044F8107C44F87F
:10473000106C2660276044F8106C266044F8107CEA
:1047400044F8106C266044F8107C44F8106C266025
:1047500044F8107C44F8106C44F8105C2560266026
:10476000276044F8106C266044F8107C44F8106C04
:10477000266044F8107C44F8106C266044F8107CE5
:1047800044F8106C2660276044F8106C266027609F
:1047900044F8106C266044F8107C44F8106C2660D5
:1047A000276044F8106C2660276044F8106C26607F
:1047B000276044F8106C2660276044F8106C26606F
:1047C000276044F8106C2660276044F8106C26605F
:1047D000276044F8106C266044F8107C44F8106C94
:1047E0002660276044F8106C2660276044F8106C3F
:1047F0002660276044F8106C2660276044F8106C2F
:104800002660276044F8106C2660276044F8106C1E
:10481000266044F8107C44F8106C2660276044F849
:10482000106C2660276044F8106C44F8105C25601A
:104830002660276044F8106C266044F8107C44F829
:10484000106C266044F8107C44F8106C266044F824
:10485000107C44F8106C2660276044F8106C2660C9
:10486000276044F8106C2660276044F8106C2660BE
:10487000276044F8106C2660276044F8106C2660AE
:10488000276044F8106C2660276044F8106C26609E
:10489000276044F8106C2660276044F8106C26608E
:1048A000276044F8106C2660276044F8106C26607E
:1048B000276044F8106C2660276044F8106C26606E
:1048C000276044F8106C266044F8107C44F8106CA3
:1048D000266044F8107C44F8106C266044F8107C84
:1048E00044F8106C2660276044F8106C266027603E
:1048F00044F8106C2660276044F8106C44F8105C93
:1049000025602660276044F8106C266044F8107C0F
:1049100044F8106C266044F8107C44F8106C266053
:1049200044F8107C44F8106C2660276044F8106C42
:104930002660276044F8106C266044F8107C44F828
:10494000106C2660276044F8106C2660276044F8DD
:10495000106C2660276044F8106C2660276044F8CD
:10496000106C2660276044F8106C2660276044F8BD
:10497000106C2660276044F8106C2660276044F8AD
:10498000106C2660276044F8106C2660276044F89D
:10499000106C2660276044F8106C2660276044F88D
:1049A000106C2660276044F8106C2660276044F87D
:1049B000106C2660276044F8106C2660276044F86D
:1049C000106C266044F8107C44F8106C44F8105CBD
:1049D00025602660276044F8106C266044F8107C3F
:1049E00044F8106C266044F8107C44F8106C266083
:1049F00044F8107C44F8106C2660276044F8106C72
:104A00002660276044F8106C2660276044F8106C1C
:104A10002660276044F8106C2660276044F8106C0C
:104A20002660276044F8106C2660276044F8106CFC
:104A30002660276044F8106C2660276044F8106CEC
:104A40002660276044F8106C2660276044F8106CDC
:104A50002660276044F8106C2660276044F8106CCC
:104A60002660276044F8106C266044F8107C44F8F7
:104A7000106C266044F8107C44F8106C266044F8F2
:104A8000107C44F8106C2660276044F8106C266097
:104A9000276044F8106C266044F8107C44F8106CD1
:104AA00044F8105C25602660276044F8106C26608E
:104AB00044F8107C44F8106C266044F8107C44F8EC
:104AC000106C266044F8107C44F8106C2660276057
:104AD00044F8106C2660276044F8106C266044F897
:104AE000107C44F8106C2660276044F8106C266037
:104AF000276044F8106C2660276044F8106C26602C
:104B0000276044F8106C2660276044F8106C26601B
:104B1000276044F8106C266044F8107C44F8106C50
:104B2000266044F8107C44F8106C266044F8107C31
:104B300044F8106C2660276044F8106C26602760EB
:104B400044F8106C2660276044F8106C26602760DB
:104B500044F8106C2660276044F8106C266044F816
:104B6000107C44F8106C266044F8107C44F8106CFB
:104B7000266044F8107C44F8106C44F8105C256002
:104B80002660276044F8106C266044F8107C44F8D6
:104B9000106C266044F8107C44F8106C266044F8D1
:104BA000107C44F8106C2660276044F8106C266076
:104BB000276044F8106C2660276044F8106C26606B
:104BC000276044F8106C2660276044F8106C26605B
:104BD000276044F8106C2660276044F8106C26604B
:104BE000276044F8106C2660276044F8106C26603B
:104BF000276044F8106C2660276044F8106C26602B
:104C0000276044F8106C2660276044F8106C26601A
:104C1000276044F8106C266044F8107C44F8106C4F
:104C2000266044F8107C44F8106C266044F8107C30
:104C300044F8106C266044F8107C44F8106C266030
:104C4000276044F8106C2660276044F8106C44F824
:104C5000105C25602660276044F8106C266044F8DC
:104C6000107C44F8106C266044F8107C44F8106CFA
:104C7000266044F8107C44F8106C2660276044F8E5
:104C8000106C2660276044F8106C266044F8107C95
:104C900044F8106C2660276044F8106C266027608A
:104CA00044F8106C2660276044F8106C266027607A
:104CB00044F8106C2660276044F8106C266027606A
:104CC00044F8106C2660276044F8106C266027605A
:104CD00044F8106C2660276044F8106C266027604A
:104CE00044F8106C2660276044F8106C266027603A
:104CF00044F8106C2660276044F8106C266027602A
:104D000044F8106C2660276044F8106C2660276019
:104D100044F8106C2660276044F8106C44F8105C6E
:104D200025602660276044F8106C266044F8107CEB
:104D300044F8106C266044F8107C44F8106C26602F
:104D400044F8107C44F8106C2660276044F8106C1E
:104D50002660276044F8106C2660276044F8106CC9
:104D60002660276044F8106C2660276044F8106CB9
:104D70002660276044F8106C2660276044F8106CA9
:104D80002660276044F8106C2660276044F8106C99
:104D90002660276044F8106C2660276044F8106C89
:104DA0002660276044F8106C2660276044F8106C79
:104DB0002660276044F8106C266044F8107C44F8A4
:104DC000106C266044F8107C44F8106C266044F89F
:104DD000107C44F8106C266044F8107C44F8106C89
:104DE0002660276044F8106C266044F8107C44F874
:104DF000106C44F8105C25602660276044F8106C45
:104E0000266044F8107C44F8106C266044F8107C4E
:104E100044F8106C266044F8107C44F8106C26604E
:104E2000276044F8106C2660276044F8106C2660F8
:104E300044F8107C44F8106C2660276044F8106C2D
:104E40002660276044F8106C2660276044F8106CD8
:104E50002660276044F8106C2660276044F8106CC8
:104E60002660276044F8106C2660276044F8106CB8
:104E70002660276044F8106C2660276044F8106CA8
:104E80002660276044F8106C2660276044F8106C98
:104E90002660276044F8106C2660276044F8106C88
:104EA000266044F8107C44F8106C266044F8107CAE
:104EB00044F8106C266044F8107C44F8106C2660AE
:104EC00044F8107C44F8106C44F8105C25602660AF
:104ED000276044F8106C266044F8107C44F8106C8D
:104EE000266044F8107C44F8106C266044F8107C6E
:104EF00044F8106C2660276044F8106C2660276028
:104F000044F8106C2660276044F8106C2660276017
:104F100044F8106C2660276044F8106C2660276007
:104F200044F8106C2660276044F8106C26602760F7
:104F300044F8106C2660276044F8106C26602760E7
:104F400044F8106C2660276044F8106C26602760D7
:104F500044F8106C2660276044F8106C266044F812
:104F6000107C44F8106C2660276044F8106C2660B2
:104F700044F8107C44F8106C2660276044F8106CEC
:104F80002660276044F8106C2660276044F8106C97
:104F90002660276044F8106C44F8105C2560266099
:104FA000276044F8106C266044F8107C44F8106CBC
:104FB000266044F8107C44F8106C266044F8107C9D
:104FC00044F8106C2660276044F8106C2660276057
:104FD00044F8106C266044F8107C44F8106C26608D
:104FE000276044F8106C2660276044F8106C266037
:104FF000276044F8106C2660276044F8106C266027
:10500000276044F8106C2660276044F8106C266016
:10501000276044F8106C2660276044F8106C266006
:10502000276044F8106C2660276044F8106C2660F6
:10503000276044F8106C2660276044F8106C2660E6
:10504000276044F8106C2660276044F8106C2660D6
:10505000276044F8106C2660276044F8106C2660C6
:10506000276044F8106C44F8105C256026602760C7
:1050700044F8106C266044F8107C44F8106C2660EC
:1050800044F8107C44F8106C266044F8107C44F816
:10509000106C2660276044F8106C2660276044F886
:1050A000106C2660276044F8106C2660276044F876
:1050B000106C2660276044F8106C2660276044F866
:1050C000106C2660276044F8106C2660276044F856
:1050D000106C2660276044F8106C2660276044F846
:1050E000106C2660276044F8106C2660276044F836
:1050F000106C2660276044F8106C266044F8107C21
:1051000044F8106C2660276044F8106C266044F860
:10511000107C44F8106C2660276044F8106C266000
:10512000276044F8106C2660276044F8106C2660F5
:1051300044F8107C44F8106C44F8105C256026603C
:10514000276044F8106C266044F8107C44F8106C1A
:10515000266044F8107C44F8106C266044F8107CFB
:1051600044F8106C2660276044F8106C26602760B5
:1051700044F8106C266044F8107C44F8106C2660EB
:10518000276044F8106C2660276044F8106C266095
:10519000276044F8106C2660276044F8106C266085
:1051A000276044F8106C2660276044F8106C266075
:1051B000276044F8106C2660276044F8106C266065
:1051C000276044F8106C266044F8107C44F8106C9A
:1051D000266044F8107C44F8106C266044F8107C7B
:1051E00044F8106C2660276044F8106C266044F880
:1051F000107C44F8106C266044F8107C44F8106C65
:10520000266044F8107C44F8106C266044F8107C4A
:1052100044F8106C44F8105C25602660276044F860
:10522000106C266044F8107C44F8106C266044F83A
:10523000107C44F8106C266044F8107C44F8106C24
:105240002660276044F8106C2660276044F8106CD4
:105250002660276044F8106C2660276044F8106CC4
:105260002660276044F8106C2660276044F8106CB4
:105270002660276044F8106C2660276044F8106CA4
:105280002660276044F8106C2660276044F8106C94
:105290002660276044F8106C2660276044F8106C84
:1052A0002660276044F8106C266044F8107C44F8AF
:1052B000106C2660276044F8106C266044F8107C5F
:1052C00044F8106C2660276044F8106C2660276054
:1052D00044F8106C266044F8107C44F8106C26608A
:1052E000276044F8106C44F8105C25602660276045
:1052F00044F8106C266044F8107C44F8106C26606A
:1053000044F8107C44F8106C266044F8107C44F893
:10531000106C2660276044F8106C2660276044F803
:10532000106C266044F8107C44F8106C26602760EE
:1053300044F8106C2660276044F8106C26602760E3
:1053400044F8106C2660276044F8106C26602760D3
:1053500044F8106C2660276044F8106C26602760C3
:1053600044F8106C2660276044F8106C26602760B3
:1053700044F8106C2660276044F8106C26602760A3
:1053800044F8106C2660276044F8106C2660276093
:1053900044F8106C2660276044F8106C2660276083
:1053A00044F8106C2660276044F8106C2660276073
:1053B00044F8106C44F8105C25602660276044F8BF
:1053C000106C266044F8107C44F8106C266044F899
:1053D000107C44F8106C266044F8107C44F8106C83
:1053E0002660276044F8106C2660276044F8106C33
:1053F0002660276044F8106C2660276044F8106C23
:105400002660276044F8106C2660276044F8106C12
:105410002660276044F8106C2660276044F8106C02
:105420002660276044F8106C2660276044F8106CF2
:105430002660276044F8106C2660276044F8106CE2
:105440002660276044F8106C266044F8107C44F80D
:10545000106C2660276044F8106C266044F8107CBD
:1054600044F8106C2660276044F8106C26602760B2
:1054700044F8106C266044F8107C44F8106C2660E8
:1054800044F8107C44F8106C44F8105C25602660E9
:10549000276044F8106C266044F8107C44F8106CC7
:1054A000266044F8107C44F8106C266044F8107CA8
:1054B00044F8106C2660276044F8106C2660276062
:1054C00044F8106C266044F8107C44F8106C266098
:1054D000276044F8106C2660276044F8106C266042
:1054E000276044F8106C2660276044F8106C266032
:1054F000276044F8106C2660276044F8106C266022
:10550000276044F8106C2660276044F8106C266011
:1055100044F8107C44F8106C2660276044F8106C46
:105520002660276044F8106C266044F8107C44F82C
:10553000106C266044F8107C44F8106C266044F827
:10554000107C44F8106C266044F8107C44F8106C11
:10555000266044F8107C44F8106C266044F8107CF7
:1055600044F8106C44F8105C25602660276044F80D
:10557000106C266044F8107C44F8106C266044F8E7
:10558000107C44F8106C266044F8107C44F8106CD1
:105590002660276044F8106C2660276044F8106C81
:1055A0002660276044F8106C2660276044F8106C71
:1055B0002660276044F8106C2660276044F8106C61
:1055C0002660276044F8106C2660276044F8106C51
:1055D0002660276044F8106C2660276044F8106C41
:1055E0002660276044F8106C2660276044F8106C31
:1055F0002660276044F8106C266044F8107C44F85C
:10560000106C266044F8107C44F8106C266027600B
:1056100044F8106C2660276044F8106C2660276000
:1056200044F8106C2660276044F8106C26602760F0
:1056300044F8106C44F8105C25602660276044F83C
:10564000106C266044F8107C44F8106C266044F816
:10565000107C44F8106C266044F8107C44F8106C00
:105660002660276044F8106C2660276044F8106CB0
:10567000266044F8107C44F8106C2660276044F8DB
:10568000106C2660276044F8106C2660276044F890
:10569000106C266044F8107C44F8106C266027607B
:1056A00044F8106C2660276044F8106C266044F8BB
:1056B000107C44F8106C266044F8107C44F8106CA0
:1056C000266044F8107C44F8106C2660276044F88B
:1056D000106C2660276044F8106C2660276044F840
:1056E000106C2660276044F8106C2660276044F830
:1056F000106C2660276044F8106C2660276044F820
:10570000106C2660276044F8106C44F8105C25602B
:105710002660276044F8106C266044F8107C44F83A
:10572000106C266044F8107C44F8106C266044F835
:10573000107C44F8106C2660276044F8106C2660DA
:10574000276044F8106C2660276044F8106C2660CF
:10575000276044F8106C2660276044F8106C2660BF
:10576000276044F8106C2660276044F8106C2660AF
:10577000276044F8106C2660276044F8106C26609F
:10578000276044F8106C2660276044F8106C26608F
:10579000276044F8106C2660276044F8106C26607F
:1057A00044F8107C44F8106C266044F8107C44F8EF
:1057B000106C2660276044F8106C2660276044F85F
:1057C000106C2660276044F8106C2660276044F84F
:1057D000106C266044F8107C44F8106C44F8105C9F
:1057E00025602660276044F8106C266044F8107C21
:1057F00044F8106C266044F8107C44F8106C266065
:1058000044F8107C44F8106C2660276044F8106C53
:105810002660276044F8106C266044F8107C44F839
:10582000106C2660276044F8106C2660276044F8EE
:10583000106C2660276044F8106C2660276044F8DE
:10584000106C2660276044F8106C2660276044F8CE
:10585000106C2660276044F8106C2660276044F8BE
:10586000106C2660276044F8106C2660276044F8AE
:10587000106C2660276044F8106C2660276044F89E
:10588000106C2660276044F8106C2660276044F88E
:10589000106C2660276044F8106C2660276044F87E
:1058A000106C266044F8107C44F8106C44F8105CCE
:1058B00025602660276044F8106C266044F8107C50
:1058C00044F8106C266044F8107C44F8106C266094
:1058D00044F8107C44F8106C2660276044F8106C83
:1058E0002660276044F8106C2660276044F8106C2E
:1058F0002660276044F8106C2660276044F8106C1E
:105900002660276044F8106C2660276044F8106C0D
:105910002660276044F8106C2660276044F8106CFD
:105920002660276044F8106C2660276044F8106CED
:105930002660276044F8106C2660276044F8106CDD
:10594000266044F8107C44F8106C266044F8107C03
:1059500044F8106C2660276044F8106C266044F808
:10596000107C44F8106C2660276044F8106C2660A8
:1059700044F8107C44F8106C2660276044F8106CE2
:1059800044F8105C25602660276044F8106C26609F
:1059900044F8107C44F8106C266044F8107C44F8FD
:1059A000106C266044F8107C44F8106C2660276068
:1059B00044F8106C2660276044F8106C266044F8A8
:1059C000107C44F8106C2660276044F8106C266048
:1059D000276044F8106C2660276044F8106C26603D
:1059E000276044F8106C2660276044F8106C26602D
:1059F000276044F8106C2660276044F8106C26601D
:105A0000276044F8106C2660276044F8106C26600C
:105A1000276044F8106C2660276044F8106C2660FC
:105A2000276044F8106C2660276044F8106C2660EC
:105A3000276044F8106C2660276044F8106C2660DC
:105A4000276044F8106C2660276044F8106C44F816
:105A5000105C25602660276044F8106C266044F8CE
:105A6000107C44F8106C266044F8107C44F8106CEC
:105A7000266044F8107C44F8106C2660276044F8D7
:105A8000106C2660276044F8106C2660276044F88C
:105A9000106C2660276044F8106C2660276044F87C
:105AA000106C2660276044F8106C2660276044F86C
:105AB000106C2660276044F8106C2660276044F85C
:105AC000106C2660276044F8106C2660276044F84C
:105AD000106C2660276044F8106C266044F8107C37
