:020000040800F2
:1000000090050020ED010008CD2E00089126000883
:10001000C92E000835040008C13D0008000000009A
:10002000000000000000000000000000D52E0008C5
:10003000B504000800000000D12E0008D92E0008E9
:10004000070200080702000807020008070200086C
:10005000070200080702000807020008070200085C
:1000600007020008070200086D05000839040008AF
:10007000A904000807020008070200080702000898
:10008000070200080702000807020008070200082C
:1000900007020008070200080702000875050008AB
:1000A000070200080702000807020008070200080C
:1000B00007020008070200080702000807020008FC
:1000C00007020008070200080702000807020008EC
:1000D00007020008413D0008070200080702000867
:1000E00007020008070200080702000807020008CC
:1000F00007020008070200080702000807020008BC
:1001000007020008070200080702000807020008AB
:10011000070200080702000807020008070200089B
:10012000070200080702000807020008070200088B
:10013000070200080702000807020008070200087B
:10014000070200080702000807020008070200086B
:10015000070200080702000807020008070200085B
:10016000070200080702000807020008070200084B
:10017000070200080702000807020008070200083B
:10018000070200080702000807020008070200082B
:10019000070200080000000007020008070200082C
:1001A000070200080702000807020008070200080B
:1001B00007020008070200080702000807020008FB
:1001C00007020008070200080702000807020008EB
:1001D0000702000807020008DFF80CD000F0B6F8AC
:1001E00000480047F13F000890050020064880477E
:1001F00006480047FEE7FEE7FEE7FEE7FEE7FEE70C
:10020000FEE7FEE7FEE7FEE7652F0008D9010008DC
:100210002DE9F05F0546002092469B46884606463B
:10022000814640241BE0284641464746224600F0CE
:100230007CF853465A46C01A914110D311461846CD
:10024000224600F063F82D1A67EB01084F4622465C
:100250000120002100F05AF817EB00094E41201E42
:10026000A4F10104DFDC484631462A464346BDE896
:10027000F09F00000649074A0868504343F23902DC
:10028000104408604008704701490860704700004A
:10029000000000206D4EC64140EA01039B0703D0D9
:1002A00009E008C9121F08C0042AFAD203E011F8B5
:1002B000013B00F8013B521EF9D27047D2B201E077
:1002C00000F8012B491EFBD270470022F6E710B55B
:1002D00013460A4604461946FFF7F0FF204610BDB4
:1002E00030B50B46014600202022012409E021FA06
:1002F00002F59D4205D303FA02F5491B04FA02F503
:100300002844151EA2F10102F1DC30BD202A04DBD5
:10031000203A00FA02F1002070479140C2F1200318
:1003200020FA03F3194390407047202A04DB203A57
:1003300021FA02F00021704721FA02F3D040C2F105
:100340002002914008431946704700001CB5094837
:100350000090094801900546009C06E0E06840F0E6
:10036000010394E8070098471034AC42F6D3FFF736
:1003700037FF0000C4830008E48300082DE9F04142
:1003800007460E4641F22805502039469846144645
:10039000C4F6000502F0AEFB5120314602F0AAFB84
:1003A0005220214602F0A6FB5320414602F0A2FB58
:1003B000B8B2A1B202F088FC10200021042201236F
:1003C000A5F110044027286081F0070603FA06F61D
:1003D00016F0700F20462A6008BF2846072901F151
:1003E0000101076045F8102CEED3002104224023C0
:1003F000072901F101012A602B6045F8102CF7D381
:10040000002104220123402781F0070003FA00F0B5
:1004100010F0220F20462A6008BF2846072901F164
:100420000101076045F8102CEED3102045F8100CA0
:10043000BDE8F081FEE7000040F21C010020C2F29E
:100440000001C4F20200096800F19402914208D947
:10045000D0F80004800721D540F20440C4F2020025
:1004600003E050F8041B890718D510B5022140F2AB
:1004700080140160C2F2000440F27611C2F2000161
:1004800020461522FFF708FF40F2DC00C2F2000010
:100490002146152202F0A2F8BDE8104040F21C00EF
:1004A000C2F2000000F0F0B840F27C00C2F200009E
:1004B00000F0EAB8704700002DE9F04381B09046A3
:1004C0000A4641F2180901461346C4F60009FFF72F
:1004D00055FF1020C9F810000020042101224023FC
:1004E00080F007044D4602FA04F445F8101F14F09A
:1004F000720F18BF4D46072800F101002B60C9F8A4
:100500000010EDD3C8F3072000210422402300BFD0
:1005100081F007054F4620FA05F547F8102FED0743
:1005200018BF4F46072901F101013B60C9F80020BF
:10053000EED35FFA88F000210422402381F0070700
:100540004E4620FA07F746F8102FFF0718BF4E4611
:10055000072901F101013360C9F80020EED3102012
:10056000C9F8000001B0BDE8F0830000102000F0E1
:10057000D5BA000080B5202000F0D0FA4020BDE8B8
:10058000804000F0CBBA0000EFF3108072B600BFDD
:10059000FEE70000014690F82500022827D180B52B
:1005A0000868D1E910CE8A6C036823F00E0303605B
:1005B000136823F480731360026822F00102026062
:1005C0000EF01F00012202FA00F0CCF80400D1E97D
:1005D00013205060486D30B1026822F480720260CE
:1005E000D1E9160242600020BDE8804002E004200C
:1005F000C8630120012281F82520002281F82420EF
:100600007047000090F82510022930D180B50168AC
:10061000D0E910CE826C0B6823F00E030B600B68E0
:1006200023F001030B60116821F4807111600EF05A
:100630001F02012101FA02F2CCF80420D0E91332A2
:100640005A60426D32B1136823F480731360D0E9AD
:100650001623536080F82510826B002180F8241047
:100660000AB190470021BDE8804008467047042148
:10067000C1630121002280F8251080F8242008465B
:1006800070470000C06B7047B0B5D0E910C3026876
:10069000DCF8001003F01F030424D2F800E09C40B3
:1006A0000C4218BF1EF004051BD102249C400C42D2
:1006B00018BF1EF0020520D1D94009071CD51EF035
:1006C000080108BFB0BD116821F00E0111600121C1
:1006D00001FA03F2CCF80420C16380F82510416BC5
:1006E00018E01168890603D4116821F00401116033
:1006F000CCF80440016B91B9B0BD1168890606D4ED
:10070000116821F00A011160012180F82510CCF850
:100710000440C16A0022002980F82420ECD0BDE802
:10072000B040084700284FF0010C00F08A802DE906
:10073000F04F0021C4F2020103684FF6F83201F5D0
:10074000816ECBF6FD72734538BF02F580624CF6C0
:10075000CD441A44CCF6CC44A2FB042903F0FC029D
:10076000A2F10802A2FB042800F1080B01F5806445
:100770006FF003069BE8040C3CBF0024C4F20204A3
:1007800001F5026506EA9906734538BF01F5006573
:10079000C0E91046022480F825401C6847F6F0772F
:1007A00024EA0707D0E9054147EA0A0747EA0B07A9
:1007B000D0E907E93C43214341EA0E0141EA09013E
:1007C000114319600021C4F2020101F50861C164FE
:1007D000C8F3041173190CFA01F58364B2F5804F64
:1007E000056504BF00214160476840F68401FAB204
:1007F0001A607B1EC4F20201032B0D6012D8013A6D
:1008000001EB8203002702F01F02012643F87C7FE0
:1008100001F1BC0706FA02F2C0E91537C265C1F85A
:10082000C02003E00021C0E91511C1654FF0000CA4
:100830000121C0F83CC080F8251080F824C0BDE834
:10084000F04F60467047000090F824C0BCF1010FE3
:1008500043D04FF0010C80F824C090F825C0BCF1C3
:10086000010F37D12DE9F0414FF0020C80F825C07F
:100870004FF0000CC0F83CC0D0F800C000F14C0EA6
:100880009EE83040DCF80060BEF1000F26F0010663
:10089000CCF8006065601CBFD0E916456560D0E902
:1008A0001056846806F01F060127D0F8308007FA3A
:1008B00006F66E60CCF80430102C0B4604BF1346CD
:1008C0000A46B8F1000FCCF80830CCF80C2006D05E
:1008D0000E210BE0002180F8241002207047DCF884
:1008E000001021F00401CCF800100A21DCF80020EF
:1008F0001143CCF80010806C0168C90303D501686E
:1009000041F480710160BEF1000F05D0DEF80000F7
:1009100040F48070CEF80000DCF8000040F00100E8
:10092000CCF800000020BDE8F0810000B0B504461E
:1009300000F0DCF9054640F20C00C2F2000000684D
:10094000611C18BF044400BF00F0D0F9401BA04256
:10095000FAD3B0BD10B540283ED020281FD01028B3
:1009600040F0A5800520FFF7E1FF002042F20F7163
:10097000884200F1010000BFFAD34FF090401021EF
:1009800000F0A8F9002840F0928040F27010C2F206
:1009900000000068012873D157A45CA038E005204E
:1009A000FFF7C4FF002042F20F7100BF884200F140
:1009B000010000BFFAD34FF09040202100F08AF9E7
:1009C000002874D140F27010C2F2000000680128C3
:1009D0003ED140A444A01BE00520FFF7A7FF002064
:1009E00042F20F71884200F1010000BFFAD34FF0CC
:1009F0009040402100F06EF9002818BF10BD40F271
:100A00007010C2F200000068012808D128A42DA0AF
:100A100003F062FD2046BDE8104003F093BC40F2B5
:100A20007510C2F200000178032928BF03210131AB
:100A3000017040F21900C2F200000121017000BFF4
:100A40004FF09040402100F045F90028F8D02EE00A
:100A500040F27410C2F200000178B1FA81F1490944
:100A6000017040F21900C2F200000121017000BFC4
:100A70004FF09040202100F02DF90028F8D016E02A
:100A800040F27510C2F20000017801220129D8BF9E
:100A900011460139017040F21900C2F200000270E3
:100AA0004FF09040102100F015F90028F8D010BD4B
:100AB000413535412B58756548616F5F332B4135A2
:100AC000413500004B455933205072657373210D39
:100AD00000000000413535412B58756548616F5F56
:100AE000322B4135413500004B455932205072655B
:100AF0007373210D00000000413535412B58756599
:100B000048616F5F312B4135413500004B4559310C
:100B1000205072657373210D0000000040F21441F3
:100B2000C4F201010A68024214BF08607047FFF76F
:100B300011BF00002DE9F04F83B00E68002E00F0C9
:100B4000C68000F1200241F2004C009200F13847CB
:100B5000C4F6000C06224FEAB725604508BF0522FF
:100B6000052D38BF4FEAB722002500274FF0000AB5
:100B700001920AE00E680AF1010A36FA0AF207F158
:100B8000020705F1040500F0A280012202FA0AFC26
:100B900016EA0C09EED0D1F804B003220BF00308DA
:100BA000A8F10106012E02FA07F610D8D0F808E0E5
:100BB000CC682EEA0602BC40224382604268CBF336
:100BC000001422EA0C0204FA0AF422434260B8F14B
:100BD000030F1ED0C2688C68B243BC402243B8F1F8
:100BE000020FC26015D16FF00302009C02EA5A0B9B
:100BF00054F80BC005F01C030F22D1F8108002FA44
:100C000003FE2CEA0E0C08FA03F343EA0C0344F843
:100C10000B3002684B68B24303F00306BE40324318
:100C200013F4403F0260A5D041F26003C4F2020316
:100C30001A6840F2004E42F001021A601A68C4F2CB
:100C4000010E02F001020292029A2AF003024FF60C
:100C5000084C7244CFF6FF7C52F80C3005F00C06BD
:100C60000F24B440A343019C04FA06F6334342F830
:100C70000C30DEF808204B6842EA090640F20C4CC2
:100C8000DC0258BF22EA0906CEF80860C4F2010C63
:100C9000DCF800209C0242EA090658BF22EA090655
:100CA000CCF80060DEF804209C0342EA090658BF35
:100CB00022EA0906CEF80460DEF80020DB0342EAEF
:100CC000090658BF22EA0906CEF8006052E703B0D1
:100CD000BDE8F08F0069084018BF01207047000090
:100CE0001823002A08BF2823C150704740F28C10F7
:100CF000C2F200000068704740F20C0040F28C1114
:100D0000C2F20000C2F2000100680A6810440860E4
:100D10007047000080B5032000F098F8002000F034
:100D200009F800281CBF012080BD00F031F8002028
:100D300080BD000040F20C01C2F2000109680029E8
:100D400004BF0120704710B5044640F20800C2F20B
:100D500000004FF47A720068B2FBF1F1B0FBF1F0E1
:100D600000F004FF01460F2C4FF001000ED80029BF
:100D700018BF10BD4FF0FF302146002200F03AF8B6
:100D800040F210010020C2F200010C6010BD000012
:100D900080B582B041F25800C4F20200816841F08F
:100DA00001018160816801F00101019101990168EF
:100DB00041F080510160006800F080500090009880
:100DC000052000F043F802B0BDE8804000F0C8B84C
:100DD000002848BF704700F01F01012202FA01F10C
:100DE0001C2202EAD0004EF20012CEF20002815024
:100DF0007047000010B54EF60C5CCEF2000CDCF82B
:100E00000030C3F3022E8EF00704042C28BF042404
:100E1000BEF103034FF0FF3E0EFA04F438BF002387
:100E2000A14399400EFA03F39A43114300F1604243
:100E300000F00F03090102F56442043B63440028FB
:100E400048BF03F10C02117010BD00004EF60C51AA
:100E5000CEF200010A684FF6FF031A4060F30A223F
:100E600042F0806040F0FD700860704747F2000C6F
:100E7000C4F2000CDCF80020B0F5007F35D000286B
:100E800066D1DCF8800002F4C06220F48070B2F514
:100E9000806FCCF8800026D1DCF80000012262F3DC
:100EA0004A20CCF8000040F20800C2F200000068BE
:100EB000322358434DF68363C4F21B33A0FB030374
:100EC00002EB9340002200BFDCF81410013842F11D
:100ED0000003490501D5002BF6D1DCF814004005CC
:100EE00044BF0320704700207047DCF8800002F404
:100EF000C06140F48070B1F5806FCCF88000F2D111
:100F0000DCF80000012161F34A20CCF8000040F237
:100F10000800C2F200000068322250434DF683629E
:100F2000C4F21B32A0FB020201EB9240002200BF80
:100F3000DCF81410013842F10003490501D5002BFB
:100F4000F6D1DCF81400400544BF03207047CAE71F
:100F5000022060F34A22CCF80020002070470000F5
:100F600047F20800C4F20000016841F480410160CA
:100F7000704700002DE9F04381B08146807841F24E
:100F800088060007C4F2020601D400204AE056F8A1
:100F9000300C5FEAC0080BD456F8300C40F080509B
:100FA00046F8300C56F8300C00F080500090009855
:100FB00047F20004C4F20004206840F4807020600E
:100FC000FFF794FE054600BF2068C70508D4FFF769
:100FD0008DFE401B0328F7D30320002F03D418E015
:100FE0000020002F15D5B16811F4407100F029815F
:100FF000D9F85020914240F02981C90740F035814D
:1010000038B9B068D9F8501020F440700843B06087
:101010000020B8F1000F05D456F8301C21F08051A3
:1010200046F8301CD9F80010CA0716D18A071DD41B
:101030004A0724D40A072BD4CA0632D48A0639D4E4
:101040004A0640D40A0647D4CA054ED48A0355D46A
:101050008A055CD44A0563D472E03268D9F804305A
:1010600022F003021A4332608A07E1D53268D9F8C8
:10107000083022F00C021A4332604A07DAD532688F
:10108000D9F80C3022F030021A4332600A07D3D567
:101090003268D9F8103022F0C0021A433260CA0612
:1010A000CCD53268D9F8143022F440721A43326039
:1010B0008A06C5D53268D9F8183022F440621A433E
:1010C00032604A06BED53268D9F81C3022F440524C
:1010D0001A4332600A06B7D53268D9F8203022F4B4
:1010E00040421A433260CA05B0D53268D9F824307C
:1010F00022F440321A4332608A03A9D57269D9F8C2
:10110000283022F003021A4372618A05A2D53268A0
:10111000D9F82C3022F440221A4332604A050FD508
:101120003268D9F8303022F440121A43B3F5801FE8
:10113000326005D156F87C2C42F4801246F87C2CA3
:101140000A050FD53268D9F8343022F440021A4328
:10115000B3F5800F326005D156F87C2C42F4801232
:1011600046F87C2CCA040FD53268D9F8383022F002
:1011700040721A43B3F1807F326005D156F87C2C5F
:1011800042F4801246F87C2C8A040FD53268D9F8D4
:101190003C3022F040621A43B3F1006F326005D157
:1011A00056F87C2C42F4801246F87C2C4A040FD569
:1011B0003268D9F8403022F040621A43B3F1006F30
:1011C000326005D156F87C2C42F4801246F87C2C13
:1011D0000A040FD53268D9F8443022F040521A433D
:1011E000B3F1805F326005D156F87C2C42F4803236
:1011F00046F87C2CCA030FD53268D9F8483022F063
:1012000040421A43B3F1804F326005D156F87C2C2E
:1012100042F4803246F87C2C49030FD57169D9F825
:101220004C2021F440111143B2F5001F716105D12A
:1012300056F87C1C41F4801146F87C1C01B0BDE8D6
:10124000F0830021C9073FF4DBAE0EE0B168B2685D
:1012500021F4407142F48032B260B26822F48032EC
:10126000B260B160C9073FF4CBAE0446FFF73EFD64
:10127000054641F2893700BFB068800709D4FFF7FF
:1012800035FD401BB842F7D3032000287FF4C1AEE0
:10129000B7E6204600287FF4BCAEB2E62DE9F04761
:1012A000002800F0FE8042F2000AC4F2020A04465E
:1012B000DAF800000D4600F00F0088420DD2DAF88F
:1012C000000020F00F002843CAF80000DAF8000000
:1012D00000F00F00A84240F0E480216841F20808C5
:1012E000C807C4F202080CD14FF00009206881073A
:1012F0004BD4B9F1000F61D0D8F8000020F0F00015
:101300005AE0606858F8082C022800F0C8800328CA
:1013100040F0CA80920140F1C480D8F80420D8F887
:10132000043042F20046C3F3031302F00302D8F87C
:1013300004700133C0F2F406032A04BF41F2002610
:10134000C0F27A06B6FBF3F2D8F80430C7F30627EA
:101350007A43C3F34163022707EB4303B2FBF3F283
:101360004BF20043C0F2C4439A4240F2E480D8F802
:10137000002012F0F00F00F0D480890740F1DB80EC
:10138000A168002940F0D780CBE0410705D5D8F807
:10139000001041F4E061C8F80010000706D5D8F845
:1013A0000000072161F30D20C8F80000D8F8000004
:1013B000A16820F0F0000843C8F80000DAF8000047
:1013C00000F00F00A84219D9DAF8000020F00F0051
:1013D0002843CAF80000FFF789FC064641F2883727
:1013E000DAF8000000F00F00A84207D0FFF77EFCFB
:1013F000801BB842F4D90320BDE8F087206841077C
:1014000007D5D8F80010E26821F4E0611143C8F86C
:101410000010000708D5D8F80000216920F46050BA
:1014200040EAC100C8F80000D8F8000042F20041CC
:10143000C0F2F40100F00C000428084600F09C8083
:10144000D8F8000000F00C00082841F20020C0F29B
:101450007A0000F09180D8F8002002F00C020C2AEB
:1014600040F08980D8F80420D8F8043002F0030254
:10147000C3F30313D8F804700133032A08BF0146ED
:10148000B1FBF3F0D8F80410C7F30627C1F34161AC
:101490000222784302EB4101B0FBF1F06CE09103D2
:1014A00004D40120BDE8F0875105FAD5D8F8001022
:1014B00001F00C0104293ED0D8F8001001F00C0115
:1014C000082938D0D8F8001001F00C010C2932D1CD
:1014D000D8F80410D8F8042042F20047C2F30312EF
:1014E00001F00301D8F804300132C0F2F4070329F7
:1014F00004BF41F20027C0F27A07B7FBF2F1D8F837
:101500000420C3F306235943C2F34162022303EBD1
:101510004202B1FBF2F14BF20042C0F2C4429142EE
:1015200009D9D8F80010082262F307114FF0010919
:10153000C8F8001001E04FF00009D8F8001021F0C1
:1015400003010843C8F80000FFF7D0FB064641F24C
:10155000883700BFD8F80000616800F00C00B0EBDD
:10156000810F3FF4C3AEFFF7C1FB801BB842F1D936
:101570000320BDE8F0870020D8F8001044F2105294
:10158000C1F30311C0F60002515C40F2080201F001
:101590001F0120FA01F140F21000C2F200000068C1
:1015A000C2F200021160BDE8F047FFF7C3BB0000C4
:1015B00040F2080041F20801C2F20000C4F2020148
:1015C0000068096844F22052C1F30221C0F600020B
:1015D000515C01F01F01C8407047000040F2080054
:1015E00041F20801C2F20000C4F202010068096879
:1015F00044F22052C1F3C221C0F60002515C01F056
:101600001F01C8407047000041F20C01C4F2020102
:1016100051F8040C42F20042C0F2F40200F00C0057
:101620000428104608BF704751F8040C00F00C0065
:10163000082841F20020C0F27A0025D051F8043C7D
:1016400003F00C030C2B1CBF0020704780B5D1F8B1
:1016500000C00B680CF0030CC3F3031E0B680EF103
:10166000010EBCF1030F08BF02460968B2FBFEF091
:10167000C3F30623C1F341610222584302EB410147
:10168000B0FBF1F0BDE8804070470000F0B585B0D8
:10169000064602200190032041F208070390002033
:1016A000C4F2020702901446C6F3034001227B6C89
:1016B0000D468102824001F1904043EA02017964C3
:1016C000B1B20091C6F3075104916946FFF732FAAF
:1016D000F00006D4386844EA050120F0FE400843D3
:1016E000386005B0F0BD0000002804BF012070473D
:1016F0002DE9F04182B00446007841F20006C007AF
:10170000C4F202061DD12078800737D42078000764
:101710005AD42078400778D42078800600F1BF8022
:10172000E569002D00F01E82B06800F00C000C2866
:1017300040F01E81012D40F09881012002B0BDE8EB
:10174000F081B06800F00C01F068082954D0032241
:1017500081F00C0122EA00000844B0FA80F0400950
:101760004AD165683068B5F5A02F00F0C680B5F5A0
:10177000803F40F0C98040F48030CBE0B068F16831
:1017800000F00C00042864D001F0030180F00C008C
:1017900081F002010844B0FA80F0400959D1E168B3
:1017A0003068002900F0D18040F480703060FFF78D
:1017B0009DFA05463068400500F1FC80FFF796FA77
:1017C000401B0228F6D936E16169D6F89400002959
:1017D00000F0818040F00100C6F89400FFF786FA1F
:1017E000054600BFD6F89400800792D4FFF77EFA32
:1017F000401B0228F6D91EE1306880037FF583AFD5
:10180000606800287FF47FAF39E0B06D5FEAC00800
:1018100008D4B06D40F08050B065B06D00F08050DD
:101820000190019847F20007C4F200073868C0052C
:1018300029D4386840F480703860FFF757FA0546BD
:101840003868C0051FD4FFF751FA401B0228F7D9AA
:10185000F1E03068400501D5E06880B17068216929
:1018600020F0FE4040EA0160706040F21000C2F2D9
:1018700000000068FFF75EFA00283FF447AF012040
:1018800002B0BDE8F081A568D6F89000052D00F003
:10189000AE80012D40F0B48040F00100B8E0A169B5
:1018A000D6F89800002900F08D8040F00100C6F8BD
:1018B0009800FFF71BFA0546D6F8980080073FF519
:1018C0002FAFFFF713FA401B02284FF00300F3D9A4
:1018D00002B0BDE8F08120F00100C6F89400FFF7E7
:1018E00005FA0546D6F8940080077FF512AFFFF79A
:1018F000FDF9401B0228F5D99DE040F480203060BE
:10190000306840F4803005E020F48030306030688A
:1019100020F480203060FFF7E9F9002D054610D053
:10192000306880033FF5EFAEFFF7E0F9401B642815
:10193000F6D980E0FFF7DAF9401B64284FF0030086
:10194000C6D830688003F5D4DDE620F480703060BE
:10195000FFF7CCF9054600BF306840057FF5D6AEED
:10196000FFF7C4F9401B02284FF00300F4D9AFE79A
:10197000306820F080703060FFF7B8F9022D05461E
:101980000CD100BF3068800140F1A880FFF7AEF9AC
:10199000401B02284FF00300F4D999E7306880011A
:1019A00040F1D980FFF7A2F9401B02284FF0030055
:1019B000F4D98DE77068216920F0FE4040EA0160AB
:1019C0007060A3E620F00100C6F89800FFF78EF9DA
:1019D000054600BFD6F8980080077FF5A1AEFFF757
:1019E00085F9401B02284FF00300F3D970E740F05F
:1019F0000400C6F89000D6F8900040F0010007E01F
:101A000020F00100C6F89000D6F8900020F0040005
:101A1000C6F89000FFF76AF9002D054641F28837B5
:101A200016D000BFD6F89000800715D4FFF75EF9F6
:101A3000401BB842F6D9032002B0BDE8F08100BFD8
:101A4000FFF754F9401BB8424FF003003FF640AF98
:101A5000D6F890008007F3D4B8F1000F3FF55CAEE4
:101A6000B06D20F08050B06556E6F068216A00F055
:101A700003028A427FF403AF626A6FF00F0300F043
:101A8000F00103EB021291427FF4F9AEA16A00F477
:101A9000FE42B2EB012F7FF4F2AEE16A00F0784231
:101AA000B2EBC16F7FF4EBAE226B0023CFF6E07395
:101AB00003EA025200F4C001A2F5001291427FF441
:101AC000DEAE616B4FF07E4202EA016100F0C06061
:101AD00001F17E4188427FF4D2AE43E0F06848F2E3
:101AE0000C01C0F29F1104F1200700EA010C8ECF17
:101AF0006FF00F00D4E90C5400EB02100022CFF677
:101B0000E07241EA0C0102EA05520843A2F5001214
:101B10004FF07E4540EA032005EA0465104305F1D5
:101B20007E4540EAC7602843F060306840F080702E
:101B30003060F06840F08070F060FFF7D7F804463E
:101B4000306880010ED4FFF7D1F8001B02284FF057
:101B50000300F5D9BCE6F0684FF6FC71CFF6EE61F4
:101B60000840F060002002B0BDE8F081411E002076
:101B7000B0EB116F1CBF012070474EF21002CEF285
:101B8000000251604EF62351CEF20001F0230B709B
:101B9000072190601160704790F88410012904BFFC
:101BA000022070472421C0F8881001680A680B6879
:101BB00022F0005223F001030B60002343660A6009
:101BC0002021C0F8881080F8843000207047000081
:101BD000704700007047000090F88420012A04BF7D
:101BE00002207047B0B50123242280F88430C0F869
:101BF00088200268D0F864E0D2F800C01468BEF112
:101C0000000F24F001041460946824F0606441EA39
:101C1000040191601BD09168936844F6343E5B0FD9
:101C2000C0F6000E44F63C351EF80340C0F6000531
:101C3000EB5CE400B4FBF3F3C1F34261A0F86A305B
:101C40001EF80130695CDB00B3FBF1F301E0A0F8A2
:101C50006A302021A0F86830C2F800C0C0F88810AF
:101C6000002180F884100020B0BD000090F884208E
:101C7000012A04BF02207047B0B50123242280F856
:101C80008430C0F888200268D0F864E0D2F800C040
:101C90001468BEF1000F24F001041460946824F06D
:101CA000604441EA040191601BD09168936844F656
:101CB000343E5B0FC0F6000E44F63C351EF8034080
:101CC000C0F60005EB5CE400B4FBF3F3C1F3426142
:101CD000A0F86A301EF80130695CDB00B3FBF1F359
:101CE00001E0A0F86A302021A0F86830C2F800C0F6
:101CF000C0F88810002180F884100020B0BD0000DA
:101D00007047000070470000B0B501680446D0F885
:101D10008800D4F88C50896809062CD521282AD14E
:101D2000206850E8020F216820F0800041E802029C
:101D3000002AF5D1E06F38B1FEF72CFC20B1E06F3E
:101D4000FEF7A0FC202835D0206850E8000F21685D
:101D500020F0C00041E80002002AF5D1206850E8D8
:101D6000020F216820F4000041E80202002AF5D1A8
:101D70002020C4F888002068806840064FF00000EA
:101D800048D5222D18BFB0BD206850E8020F216849
:101D900020F0400041E80202002AF5D1D4F880008A
:101DA00070B1FEF7F7FB58B1D4F88000FEF76AFC7B
:101DB000202805D11020C4F890000320B0BD00BF3A
:101DC000206850E8000F216820F4907041E800027C
:101DD000002AF5D14FF6FE70CEF6FF70216851E86B
:101DE000021F2268014042E80213002BF6D1E06E88
:101DF000012809D1206850E8000F216820F0100068
:101E000041E80002002AF5D12020C4F88C0000200F
:101E1000E0666067B0BD00007047000070B5046800
:101E200040F62F03E2692168A6681340202B05D1F4
:101E300001F0200306F080555B1938D140F60F03FE
:101E400013400CD00123C1F2000306EA030C40F258
:101E50002013C0F200430B4013EB0C032DD1C36ED3
:101E6000D50616D5012B14D111F0100311D0102175
:101E70002162A168490600F1FC80B0F85C10B0F85E
:101E80005E20B0F85E30002B18BF914240F05281C6
:101E900070BDD30240F1CB8016F4800300F0C78000
:101EA0004FF480112162BDE87040FFF72BBF416FF6
:101EB0000029EDD0BDE870400847D30718BF11F4E2
:101EC000807307D001232362D0F8903043F00103E0
:101ED000C0F89030930706F0010E0AD5BEF1000F4E
:101EE00007D002232362D0F8903043F00403C0F8F7
:101EF000903053070AD5BEF1000F07D004232362A8
:101F0000D0F8903043F00203C0F8903013070CD59E
:101F100001F0200353EA0C0307D008232362D0F812
:101F2000903043F00803C0F8903013050BD511F042
:101F3000806308D04FF400632362D0F8903043F000
:101F40002003C0F89030D0F89030002BA0D092063B
:101F50000AD501F0200106F08052891804D0416FA3
:101F600011B10446884720460168D0F8902089685E
:101F700002F0280201F04001891807D10446FFF75A
:101F80004BFF0020C4F8900070BD00BF016851E80D
:101F9000001F026821F4907142E80013002BF5D174
:101FA0004FF6FE71CEF6FF71026852E8022F036809
:101FB0000A4043E80226002EF6D1C16E012909D15C
:101FC000016851E8001F026821F0100142E8001387
:101FD000002BF5D12021C0F88C100021C1660268C9
:101FE00041679168490640F1988000BF016851E857
:101FF000021F026821F0400142E80213002BF5D1D4
:10200000D0F88010002900F0888043F22112C0F639
:102010000002044608468A63FEF7F4FA00283FF4FB
:1020200037AFD4F88000816BBDE8704008471306D5
:1020300006D501F0800306F400069B1940F0AB8042
:1020400053066ED511F040036BD000BF016851E814
:10205000001F026821F0400142E80013002BF5D177
:102060002021C0F8881000218167BDE8704000F091
:102070000BBBD0F8801009684A6893B2002B3FF47C
:1020800007AFB0F85C60B342BFF402AFA0F85E20C7
:102090000968890635D400BF016851E8001F02684D
:1020A00021F4807142E80013002BF5D1016851E85A
:1020B000021F026821F0010142E80213002BF5D152
:1020C000016851E8021F026821F0400142E8021352
:1020D000002BF5D12021C0F88C100021C16600BF73
:1020E000016851E8001F026821F0100142E8001366
:1020F000002BF5D1D0F8801004460846FEF74AFAC6
:10210000204602210167B0F85C10B0F85E20891A01
:1021100089B2BDE87040FFF75BBDBDE87040FFF7D6
:102120007BBE13023ED511F080433BD0BDE870402A
:10213000FFF7E6BD891A00BF026852E8002F036866
:1021400022F4907243E80026002EF5D14FF6FE727D
:10215000CEF6FF72036853E8023F0668134046E874
:102160000235002DF6D12022C0F88C200022C26654
:10217000426700BF026852E8002F036822F0100295
:1021800043E80026002EF5D1022289B20267BDE89D
:102190007040FFF71DBD816F00293FF479AEBDE8A7
:1021A00070400847D2017FF573AEB1F1FF3FC8BF61
:1021B00070BDBDE87040FFF70DBD000010B5D0B197
:1021C0000446D0F8880028B9002084F8840020460E
:1021D00000F026F82420C4F888002068A16A02686C
:1021E00022F00102026011B1204600F0C5FE204637
:1021F00001F018FB08B1012010BD2168486820F4E7
:1022000090404860886820F02A008860086840F0A4
:10221000010220460A60BDE8104000F021BF000026
:102220002DE9F0419CB00446002502A854211B95DD
:10223000CDE91955CDE91755FEF747F8206843F663
:102240000001C4F20101884202D01CB0BDE8F08157
:102250000120CDE9020502A8FEF78CFE002818BF78
:10226000FEF792F941F24C00C4F20200416940F2DB
:10227000080841F4804141614169002601F4804130
:10228000019101990168C4F2020841F00401016062
:10229000006817A900F00400019001983020179001
:1022A0000220189007201B9040F60000C4F60000A2
:1022B000CDE91966FEF73EFC40F21C05C2F20005AE
:1022C00018208027C5E900802846C5E90266C5E9CF
:1022D0000476C5E906662E62FEF724FA002818BFC8
:1022E000FEF752F9C4F88050AC6240F27C0508F168
:1022F0001400C2F200051921102285E8C700284603
:10230000C5E90566C5E90766FEF70CFA002818BF9F
:10231000FEF73AF9252000210022E567AC62FEF7BE
:1023200069FD2520FEF754FD1CB0BDE8F0810000DA
:10233000D0F88C30202B0AD194460A4600294FF061
:10234000010118BFBCF1000F04D1084670470221FB
:1023500008467047B0B54FF0000EC0F86CE0036857
:1023600048F20004C4F20004A3420DD05B681B02D3
:102370000AD500BF036853E8003F046843F0806358
:1023800044E800310029F5D122218265A0F85CC023
:10239000C0F890E0C0F88C10D0F880301BB343F246
:1023A000F911C0F6000143F27D2443F2311E03F11E
:1023B0002C07C0F60004C0F6000E87E81240016842
:1023C00000259D632431044618466346FEF73CFA17
:1023D0000146204639B11021C0F890102021C0F8E4
:1023E0008C10012121E0016951B100BF016851E861
:1023F000001F026841F4807142E80013002BF5D100
:10240000016851E8021F026841F0010142E802132D
:10241000002BF5D1016851E8021F026841F040012C
:1024200042E80213002BF5D10021BDE8B040084678
:1024300070470000D0F88C30202B1CBF0220704762
:1024400000294FF0010318BF002A01D11846704738
:1024500080B50023C366D0F800C048F20003C4F280
:1024600000039C4510D0DCF804301B020CD500BFE3
:10247000036853E800CFD0F800E04CF080634EE8EA
:10248000003CBCF1000FF3D101F02CFB0023BDE8B0
:10249000804018467047000040F2DC01C2F20001A3
:1024A000884218BF7047B0B540F2DC0440F218050E
:1024B000C2F20004C2F2000520462946012201238F
:1024C00000F00AF8204629460122BDE8B040FFF797
:1024D000B1BF0000704700002DE9F04381B0044611
:1024E000D0F88800202809D1884600294FF0010043
:1024F00018BF002A06D101B0BDE8F083022001B068
:10250000BDE8F0830020C4F8900021201D46C4F8E7
:1025100088001646FEF7EAFBA4F85460A4F856605B
:10252000A1680646B1F5805F02D12069002852D02B
:10253000C1464FF00008B4F8560060B36F1C0FE0BE
:10254000B9F1000F1ED019F8010B21688862B4F8A8
:1025500056000138A4F85600B4F85600D8B100BFB0
:102560002068C0690006EBD4002FF9D0FEF7BEFB4F
:1025700001464FF0030045B3891BA94225D82068C6
:102580000068EDE738F8020B21686FF35F2088627E
:102590004FF00009DBE72068C069400614D46F1CC7
:1025A00004E000BF2068C06940060DD4002FF9D0B8
:1025B000FEF79CFB01464FF0030035B1891BA94291
:1025C00003D820680068EDE700202021C4F88810B7
:1025D00001B0BDE8F0834FF00009ACE7D0F88830D7
:1025E000202B09D1944600294FF0010218BFBCF1FD
:1025F000000F04D110467047022210467047B0B554
:10260000002221230165A0F854C0A0F856C0C0F8EC
:102610009020C0F88830C36F13B343F23115C0F671
:10262000000543F2992443F2D92E5D630568C0F694
:102630000004C0F6000EC3E90B4E9A6305F12802B0
:10264000044618466346FEF7FFF80146204639B1B6
:102650001021C0F890102021C0F8881001220EE04F
:10266000016840220A6200BF016851E8021F026847
:1026700041F0800142E80213002BF5D10022BDE8B1
:10268000B0401046704700007047000070470000DF
:10269000FEE700002DE9F04715460A469846411925
:1026A0001344DDF8209041F2180A0139013BC4F6C9
:1026B000000AFDF763FE10214FEA450CCAF810101E
:1026C000002104220123402581F00700544603FA2B
:1026D00000F044F8102F10F0720F18BF544607296D
:1026E00001F101012560CAF80020EDD30CFB08F0D0
:1026F000D0B100210422402319F80150002400BF6A
:1027000084F00707564625FA07F746F8102FFF070B
:1027100018BF5646072C04F101043360CAF80020A4
:10272000EED301318142E7D11020CAF80000BDE8A4
:10273000F087000010B586B041F24C00C4F20200F0
:10274000016841F2000441F0100101600068C4F624
:10275000000400F01000019001987E2001900120FB
:10276000CDE902000320049001A92046FEF7E2F91A
:10277000204610210122FEF7B3FA06B010BD00007A
:10278000B0B541F21804C4F60004022564202561A6
:10279000FEF7CCF832202560FEF7C8F801200021B2
:1027A00000F0A8F902204FF4E06100F0A3F9032043
:1027B00041F2300100F09EF90420002100F09AF966
:1027C000082040F2022100F095F90920002100F0D4
:1027D00091F90A20002100F08DF90C20002100F071
:1027E00089F90D20002100F085F90F20002100F06B
:1027F00081F91020002100F07DF91120072100F05F
:1028000079F91220002100F075F91320002100F061
:1028100071F90720012100F06DF9C820FEF786F854
:10282000102041F2906100F065F9112040F227215B
:1028300000F060F93220FEF779F812209D2100F0B7
:1028400059F93220FEF772F813204FF4D05100F0FE
:1028500051F929201D2100F04DF92B200D2100F008
:1028600049F93220FEF762F82020002100F042F9F9
:102870002120002100F03EF93020002100F03AF93B
:10288000312040F2076100F035F9322040F2053185
:1028900000F030F93520002100F02CF9362041F20B
:1028A000046100F027F937204FF4017100F022F99C
:1028B0003820012100F01EF9392040F2077100F0A4
:1028C00019F93C20002100F015F93D200F2100F0FE
:1028D00011F95020002100F00DF95120EF2100F0F6
:1028E00009F95220002100F005F9532040F23F1170
:1028F00000F000F960204FF41C5100F0FBF861205B
:10290000012100F0F7F86A20002100F0F3F88020A0
:10291000002100F0EFF88120002100F0EBF8822088
:10292000002100F0E7F88320002100F0E3F8842084
:10293000002100F0DFF88520002100F0DBF8902076
:10294000102100F0D7F892204FF4C06100F0D2F8C7
:10295000072040F2331100F0CDF80A20BDE8B04066
:10296000FDF7E4BF2DE9F04F89B092F800C0029165
:10297000BCF1000F019000F0B980139E44F2405E5C
:102980004FF6FE791C460020C0F6000E2327C0F249
:10299000010910E0049A44F2405E0120C0F6000EE6
:1029A000232712F800C01118039ABCF1000F10443D
:1029B0000A4600F09B8001464FFA8CF000280198EF
:1029C0000391C9B200EBC103049237D4ACF12000EB
:1029D000C0B2029A00019FB24FF0000A079007E0D0
:1029E000089A0AF1010ABAF1100F02F10102D1D0DE
:1029F000079847F644515044C0F6000111F8008092
:102A000095B24FF0000B089210E000BF0028129A18
:102A100007EB0B00294648BF2246FDF74DFD0BF1A1
:102A2000010BBBF1080F4FEA4808D9D04FFA88F0E4
:102A30000028EBD4002EF2D0E8E700BF029D4FF053
:102A4000000C0DE0DDF814C0049A0CF1010C44F206
:102A5000405EBCF1C80FC0F6000E4FF0230743D014
:102A60000CFB07F01EF800001178CDF814C0884266
:102A7000E8D10CFB07E0527841789142E2D1033073
:102A80004FF0000806900EE0079D18F00100054485
:102A90006FF0070008BF0820089B08F10108B8F193
:102AA000200F0344CED006981FFA83FB10F808705D
:102AB0000795ADB24FF0000A08930FE00028129A74
:102AC0000BEB0A00294648BF2246FDF7F5FC0AF148
:102AD000010ABAF1080F09EA4707D5D03806EDD444
:102AE000002EF4D0EAE700BF02205AE709B0BDE8A3
:102AF000F08F000070B541F22802C4F600021023E6
:102B0000136000234FF0040E0124A2F1100C4025A5
:102B100083F0070604FA06F616F0700F6646C2F850
:102B200000E008BF1646072B03F10103356042F8A9
:102B300010ECEDD300230425402400BF072B03F144
:102B400001031560146042F8105CF7D3C0B2002393
:102B50000424402583F0070620FA06F6F6076646A9
:102B6000146008BF1646072B03F10103356042F8D5
:102B7000104CEFD3102042F8100C106000200423FA
:102B80000124402580F0070604FA06F616F0720FBD
:102B90006646136008BF1646072800F1010035603D
:102BA00042F8103CEED3C1F3072000230424402553
:102BB00083F0070620FA06F6F6076646146008BF9B
:102BC0001646072B03F10103356042F8104CEFD392
:102BD000C8B200210423402581F0070620FA06F63A
:102BE000F6076646136008BF1646072901F1010182
:102BF000356042F8103CEFD3102042F8100C70BD45
:102C00002DE9F04381B015460A469946411913440F
:102C1000DDF8208041F218040139013BC4F60004BC
:102C2000FDF7ACFB1020206100200421012240238D
:102C300080F00707264602FA07F746F8101F17F03C
:102C4000720F18BF2646072800F10100336021608B
:102C5000EED309FB05FCBCF1000F2FD0C8F3072110
:102C60005FFA88F24FF0000E04254023002700BFD2
:102C700087F00700264621FA00F046F8105FC007EB
:102C800018BF2646072F07F1010733602560EFD3F1
:102C9000002700BF87F00700264622FA00F046F81A
:102CA000105FC00718BF2646072F07F101073360E2
:102CB0002560EFD30EF1010EE645D7D1102020603C
:102CC00001B0BDE8F0830000F0B541F22807C4F67A
:102CD000000710233B6000234FF0040C0124A7F1F0
:102CE000100E402583F0070604FA06F616F0700F62
:102CF0007646C7F800C008BF3E46072B03F1010324
:102D0000356047F810CCEDD300230425402400BFE4
:102D1000072B03F101033D603C6047F8105CF7D3DB
:102D200000230425402400BF022B3A463D6008BF23
:102D30007246072B03F10103146047F8105CF3D3CC
:102D40001022002304244FF0010C402547F8102CDA
:102D50003A6000BF83F007020CFA02F212F0720F21
:102D600072463C6008BF3A46072B03F10103156029
:102D700047F8104CEED34FEA102C002304244025D2
:102D800083F007022CFA02F2D20772463C6008BFB9
:102D90003A46072B03F10103156047F8104CEFD3B7
:102DA000C0B200230424402583F0070220FA02F277
:102DB000D20772463C6008BF3A46072B03F1010375
:102DC000156047F8104CEFD3102047F8100C38600E
:102DD000002004230124402580F0070204FA02F2B7
:102DE00012F0700F72463B6008BF3A46072800F1A8
:102DF0000100156047F8103CEED300200423402565
:102E0000072800F101003B603D6047F8103CF7D314
:102E1000002004230124402580F0070204FA02F276
:102E200012F0210F72463B6008BF3A46072800F1B6
:102E30000100156047F8103CEED3102047F8100C45
:102E40003860002004230124402500BF80F00702E1
:102E500004FA02F212F0720F72463B6008BF3A4663
:102E6000072800F10100156047F8103CEED3080A6E
:102E700000230424402500BF83F0070220FA02F259
:102E8000D20772463C6008BF3A46072B03F10103A4
:102E9000156047F8104CEFD3C8B200210423402539
:102EA00081F0070220FA02F2D20772463B6008BFA7
:102EB0003A46072901F10101156047F8103CEFD3AC
:102EC000102047F8100CF0BDFEE70000FEE7000000
:102ED0007047000070470000FDF70EBF70B594B05A
:102EE00006AC20463821FDF7F0F9002500200595B5
:102EF000CDE90355CDE90155FDF7B8FF4FF480301A
:102F000007904FF480700990402003260A90022019
:102F10005521CDE90D060F90CDE91010CDE9120035
:102F200020460696FEF7E0FB18B1EFF3108072B66C
:102F3000FEE70F20CDE9010601A80421CDE90355E4
:102F40000595FEF7ABF920B1EFF3108072B600BF24
:102F5000FEE74FF480704FF040710022FEF796FBC1
:102F600014B070BD4EF68850CEF20000016841F4F6
:102F70007001016070470000816A0A070CD4CA071B
:102F800015D18A071ED44A0727D4CA0630D48A0628
:102F900039D44A0642D457E00268D0F838C05368A2
:102FA00023F4004343EA0C035360CA07E9D00268E4
:102FB000D0F82CC0536823F4003343EA0C03536069
:102FC0008A07E0D50268D0F830C0536823F4803314
:102FD00043EA0C0353604A07D7D50268D0F834C0DF
:102FE000536823F4802343EA0C035360CA06CED50A
:102FF0000268D0F83CC0936823F4805343EA0C0382
:1030000093608A06C5D50268D0F840C0936823F45F
:10301000005343EA0C0393604A0615D5D0F800C06C
:10302000436CDCF80420B3F5801F22F4801242EADE
:103030000302CCF8042007D1DCF80420836C22F4CE
:10304000C0021A43CCF80420090658BF7047016833
:10305000C06C4A6822F400221043486070470000A8
:10306000B0B582B004460020C4F89000FDF73EFEE3
:1030700021680546096809071AD56FF07E4C20467D
:103080004FF4001100222B46CDF800C000F0B8FD2F
:1030900070B100BF206850E8000F216820F0800068
:1030A00041E80002002AF5D103202021882230E0E7
:1030B00020680068400723D56FF07E4C20464FF40F
:1030C000800100222B46CDF800C000F099FDB8B178
:1030D000206850E8000F216820F4907041E8000259
:1030E000002AF5D1206850E8020F216820F0010085
:1030F00041E80202002AF5D1032020218C2208E0B9
:103100002020C4F88800C4F88C0000217022002020
:10311000E166A150002184F8841002B0B0BD000027
:10312000806A0021A0F85E10A0F85610FEF774BE69
:10313000806A0368D0F88820D0F88CC09B681B0692
:103140001BD5212A19D10022A0F85620026852E886
:10315000002F036822F0C00243E800210029F5D1C6
:10316000016851E8021F026821F4000142E80213DD
:10317000002BF5D12021C0F8881001688968490624
:1031800032D5BCF1220F2FD10021A0F85E1000BF74
:10319000016851E8001F026821F4907142E80013B1
:1031A000002BF5D14FF6FE7CCEF6FF7C026852E88C
:1031B000022F036802EA0C0243E802210029F5D13C
:1031C000C16E01290AD100BF016851E8001F0268E1
:1031D00021F0100142E80013002BF5D12021C0F8A6
:1031E0008C100021C1664167D0F8901041F01001A9
:1031F000C0F89010FEF710BE0168806A0968890661
:1032000030D40021A0F85E10016851E8001F026868
:1032100021F4807142E80013002BF5D1016851E8D8
:10322000021F026821F0010142E80213002BF5D1D0
:10323000016851E8021F026821F0400142E80213D0
:10324000002BF5D12021C0F88C10C16E012909D1C5
:10325000016851E8001F026821F0100142E80013E4
:10326000002BF5D100210167C16E012918BFFFF7BE
:1032700013B9B0F85C10FEF7ABBC0000806A012106
:103280000167C16E012918BFFFF724B9B0F85C10BF
:103290004908FEF79DBC00000168806A096889063C
:1032A00048BFFFF7F1B90021A0F85610016851E8B6
:1032B000021F026821F0800142E80213002BF5D1C1
:1032C000016851E8001F026841F0400142E8001324
:1032D000002BF5D170470000806AFFF7D7B90000D6
:1032E000B0F860200168D0F88C30222B5AD1496A9E
:1032F000836D114023F8021B8365B0F85E1001391D
:10330000A0F85E10B0F85E10002918BF704700BF2B
:10331000016851E8001F026821F4907142E800132F
:10332000002BF5D1016851E8021F026821F001016C
:1033300042E80213002BF5D12021C0F88C100021A7
:1033400041670167016848F20002C4F2000291423D
:103350000CD04968090209D5016851E8001F0268CC
:1033600021F0806142E80013002BF5D1C16E0129E4
:1033700018BFFFF791B80021C16600BF016851E88E
:10338000001F026821F0100142E80013002BF5D164
:103390000168CA69D20644BF10220A62B0F85C1004
:1033A000FEF716BC886940F008008861704700008D
:1033B0002DE9F04F81B003680446B0F86050DA6937
:1033C00018689968D4F88C70222F2AD1B4F86860F4
:1033D000002E18BF12F020022AD1B4F85E00E8B126
:1033E000B4F86810884219D2206850E8020F2168AA
:1033F00020F0805041E80202002AF5D143F2E1209A
:10340000C0F60000606700BF206850E8000F216828
:1034100040F0200041E80002002AF5D101B0BDE8EB
:10342000F08F986940F00800986101B0BDE8F08F16
:103430004FF6FE77CEF6FF774FF0000900F4807B61
:1034400001F0010807E02046FFF726F8002E18BF1C
:103450001AF02000C1D02068A16D426A2A4021F8EC
:10346000022BA165B4F85E100139A4F85E10D0F803
:103470001CA05FEA4A7134D05FEACA7218BFBBF180
:10348000000F03D15FEA8A720BD415E001220262B9
:10349000D4F8902042F00102C4F890205FEA8A72CA
:1034A0000AD5B8F1000F07D002220262D4F89020AA
:1034B00042F00402C4F8902000290AD5B8F1000FA8
:1034C00007D004210162D4F8900040F00200C4F853
:1034D0009000D4F8900020B12046FEF79DFCC4F87F
:1034E0009090B4F85E000028B0D100BF206850E88A
:1034F000000F216820F4807041E80002002AF5D115
:10350000206850E8020F2168384041E80202002A92
:10351000F6D12020C4F88C00C4F87490C4F87090E0
:10352000206848F20001C4F2000188420CD04068D3
:10353000000209D5206850E8000F216820F0806063
:1035400041E80002002AF5D1E06E01287FF47BAF4C
:10355000C4F86C90206850E8000F216820F010003B
:1035600041E80002002AF5D12068C169C90644BFBC
:1035700010210162B4F85C102046FEF729FB65E7D4
:10358000B0F860100268D0F88C30222B5AD1526A01
:10359000836D11401970816D01318165B0F85E1045
:1035A0000139A0F85E10B0F85E10002918BF70470E
:1035B000016851E8001F026821F4907142E800138D
:1035C000002BF5D1016851E8021F026821F00101CA
:1035D00042E80213002BF5D12021C0F88C10002105
:1035E00041670167016848F20002C4F2000291429B
:1035F0000CD04968090209D5016851E8001F02682A
:1036000021F0806142E80013002BF5D1C16E012941
:1036100018BFFEF741BF0021C16600BF016851E835
:10362000001F026821F0100142E80013002BF5D1C1
:103630000168CA69D20644BF10220A62B0F85C1061
:10364000FEF7C6BA906940F008009061704700002C
:103650002DE9F04F81B003680446B0F86050DA6994
:1036600018689968D4F88C70222F2AD1B4F8686051
:10367000002E18BF12F020022AD1B4F85E00E8B183
:10368000B4F86810884219D2206850E8020F216807
:1036900020F0805041E80202002AF5D143F2815027
:1036A000C0F60000606700BF206850E8000F216886
:1036B00040F0200041E80002002AF5D101B0BDE849
:1036C000F08F986940F00800986101B0BDE8F08F74
:1036D0004FF6FE77CEF6FF774FF0000900F4807BBF
:1036E00001F0010807E02046FEF7D6FE002E18BFC5
:1036F0001AF02000C1D02068A16D406A28400870EF
:10370000A16D20680131A165B4F85E100139A4F8FB
:103710005E10D0F81CA05FEA4A7134D05FEACA722A
:1037200018BFBBF1000F03D15FEA8A720BD415E01A
:1037300001220262D4F8902042F00102C4F89020E5
:103740005FEA8A720AD5B8F1000F07D0022202623E
:10375000D4F8902042F00402C4F8902000290AD541
:10376000B8F1000F07D004210162D4F8900040F0B6
:103770000200C4F89000D4F8900020B12046FEF773
:103780004BFBC4F89090B4F85E000028AED100BFA7
:10379000206850E8000F216820F4807041E80002A2
:1037A000002AF5D1206850E8020F2168384041E82E
:1037B0000202002AF6D12020C4F88C00C4F87490CC
:1037C000C4F87090206848F20001C4F200018842F9
:1037D0000CD04068000209D5206850E8000F21682D
:1037E00020F0806041E80002002AF5D1E06E012857
:1037F0007FF479AFC4F86C90206850E8000F21681E
:1038000020F0100041E80002002AF5D12068C169CB
:10381000C90644BF10210162B4F85C102046FEF7CF
:10382000D7F963E7F0B581B0044604F108064ECE3F
:103830000068194341EA0603E169066846F6F31594
:10384000CCF6FF752E4033430B43036043684FF2C1
:10385000FF4523F440531A43426048F20002A36933
:10386000C4F2000290421CBF266A33438668C1F24C
:10387000FF152E4033438360C36A666A23F00F034B
:103880003343C36244F6FF73C4F2000398424FF01F
:10389000100318DC44F20046C4F20006B04227D000
:1038A00044F60006C4F20006B0422FD044F60046AB
:1038B000C4F20006B0423ED141F28803C4F20203D2
:1038C0001B689B092FE045F20006C4F20006B042D7
:1038D00015D0904221D043F60006C4F20106B04252
:1038E00029D141F28803C4F202031B6879A61EE0C5
:1038F00041F28803C4F202031B689B0813E041F203
:103900008803C4F202031B681B0A0CE041F288031F
:10391000C4F202031B681B0905E041F28803C4F2EC
:1039200002031B689B0A44F62436C0F6000603F027
:10393000030356F82330904242F20040C0F2F400F4
:1039400013D0B1F5004F1ED1082B00F26480002780
:10395000DFE803F00569736171616161B500FDF72E
:1039600027FE002840F06A809DE0082B4ED80027F3
:10397000DFE803F0054C1E4C184C4C4C1C00FDF7C6
:1039800017FEB8B98FE0082B49D80027DFE803F00D
:10399000054F7447724747479C00FDF709FE002812
:1039A0006BD180E0FDF730FE20B97CE04FF40040A1
:1039B000002878D0616A44F22852C0F6000232F83A
:1039C00011206568B0FBF2F305EB45018B424FF027
:1039D00001016BD32E03B34268D800210023FCF70A
:1039E00017FC090241EA1061000210EB550041F199
:1039F00000012A460023FCF70BFC4FF60052A0F50D
:103A00004071C0F20F0291424BD34EE000200127DB
:103A10000028CFD147E00020012778B943E00020FB
:103A2000012750BB3FE0FDF7D9FD38B93BE0FDF77A
:103A3000D5FD10BB37E0FDF7E7FDA0B3616A44F2A6
:103A40002852C0F6000232F811106268B0FBF1F0A3
:103A5000510801EB4000B0FBF2F04FF6EF72A0F11D
:103A60001001914221D84FF6F0710140C0F342009D
:103A7000084416E0FDF7C8FDA8B1616A44F2285277
:103A8000C0F6000232F811106268B0FBF1F000EBF2
:103A90005200B0FBF2F04FF6EF72A0F1100191422C
:103AA00003D82168C860394600E001214FF00110B9
:103AB0000022A06662670846A26701B0F0BD4FF41D
:103AC00000400028BAD1EEE74FF400400028D4D1DE
:103AD000E9E700BF01000000040000000200000050
:103AE000080000008165A0F85C20A0F85E208168D5
:103AF0000023436771B1B1F1805F07D0B1F5805FFA
:103B00000ED1016951B940F2FF110AE0016919B102
:103B10003F2106E0016909B17F2102E0FF2100E0B9
:103B20000021A0F860100021C0F890102221C0F8F8
:103B30008C1000BF016851E8021FD0F800C041F0AE
:103B400001014CE80213002BF4D1416EB1F1005F8A
:103B500003D1B0F86810914225D98168B1F5805F32
:103B600002D10169002941D043F28151C0F6000120
:103B70000269416762B100BF016851E8001F026835
:103B800041F4907142E80013002BF5D12CE000BF06
:103B9000016851E8001F026841F0200142E800136B
:103BA000002BF5D120E08168B1F5805F01D101697A
:103BB00009B343F25161C0F60001026941674AB19D
:103BC000016851E8001F026841F4807142E8001367
:103BD000002BF5D1016851E8021F026841F08051C5
:103BE00042E80213002BF5D10020704743F2E12197
:103BF000C0F60001BCE743F2B131C0F60001DCE7DA
:103C00002DE9F04381B004460068C0690840401ABD
:103C1000B0FA80F04009904257D1DDF82080154677
:103C20000E46994608F1010709E000BF2068C06907
:103C30003040801BB0FA80F04009A84245D1002FE7
:103C4000F4D0FDF753F80146B8F1000F4FF0030030
:103C50003CD0A1EB0901414538D8206801684907EB
:103C6000E4D5402EE2D0802EE0D0C169090730D4DF
:103C7000C1690905DAD54FF400610162206850E896
:103C8000000F216820F4907041E80002002AF5D16D
:103C90004FF6FE70CEF6FF70216851E8021F2268D1
:103CA000014042E80213002BF6D1E06E012809D151
:103CB000206850E8000F216820F0100041E8000261
:103CC000002AF5D1032020212CE0002001B0BDE81E
:103CD000F0830821016200BF206850E8000F2168CE
:103CE00020F4907041E80002002AF5D14FF6FE70F2
:103CF000CEF6FF70216851E8021F2268014042E8B9
:103D00000213002BF6D1E06E012809D1206850E89B
:103D1000000F216820F0100041E80002002AF5D1D0
:103D2000012008212022C4F88C200022E26662676C
:103D3000C4F8901084F8842001B0BDE8F08300003E
:103D400040F2DC00C2F200000068C169C90625D556
:103D500070B540F2DC041021C2F20004016220467A
:103D6000FDF7D2FF40F21C00C2F20000006840687C
:103D7000C043C5B20CA0294600F0E4FA40F2761622
:103D8000C2F20006204631462A46FEF727FC2046AE
:103D900031461522FEF7CCFABDE8704040F2DC0057
:103DA000C2F20000FEF73AB8434150505F444D4123
:103DB0005F544553542069732025640D0A000000A8
:103DC000FEE700002DE9F04782B00C46804676A061
:103DD0004146224600F0B6FAB8F1010F2CD0B8F1F6
:103DE000000F40F0C080C4EB0410082101EB8001FB
:103DF0004FF6E0770820E02216230097FEF700FF39
:103E00004FF000094FF00A0A69A54FF6FF76002728
:103E1000C7EB071055F827200AEB800081B20A2073
:103E20000023CDE90069FEF79DFD0137052FEFD195
:103E3000B8F1010F40F09780042C00F29480DFE885
:103E400004F003977D871F0044F2FC464FF00A08F8
:103E5000C0F6000600274FF6FF7500BFC4EB041044
:103E600056F8242008EB800081B20A200023CDE917
:103E70000057FEF777FD0134052CEFD1012473E0E4
:103E8000502400BF204678210022FCF715FB0134A6
:103E9000A02CF7D1502400BF2046B42140F21F527D
:103EA000FCF70AFB0134A02CF6D1B42450202146A3
:103EB00040F21F52FCF700FB0134DC2CF6D1B42495
:103EC000A020214640F21F52FCF7F6FA0134DC2C08
:103ED000F6D150242046DC2140F21F52FCF7ECFAC8
:103EE0000134A02CF6D14BF2FD0840F23F662825A4
:103EF000C1F648184FF05109C6F2E736292700BF2E
:103F0000FCF7B8F950FB08F1CA1002EBD17101FBC4
:103F1000190000F15004FCF7ADF950FB06F10A114D
:103F200002EBD17101FB170047F6FF7200F1B401FB
:103F30002046FCF7C1FA013DE2D114E04FF6E077EC
:103F400028207821502250230097FEF759FE0AE0DE
:103F500044F64437C0F60007322082215022502315
:103F60000097FEF797FB0024204602B0BDE8F087DB
:103F700044F2FC4600244FF00A08C0F600064FF653
:103F8000FF770025C5EB051056F8252008EB8000CB
:103F900081B20A200023CDE90074FEF7E3FC01356D
:103FA000052DEFD1E0E700BF25642C2025640A0031
:103FB000448300084F830008B48300088583000809
:103FC0008C830008B0B582B040F2DC05C2F2000577
:103FD0000446019001A9284601224FF47A73FEF7A6
:103FE0007BFA2868C1694906FCD5204602B0B0BDFD
:103FF00088B0FCF78FFEFEF771FF002641F24C07F8
:104000000796CDE90566CDE90366C4F20207386874
:1040100041F2000A40F0100038603868C4F6000A27
:1040200000F010000290029838681A2140F0200039
:1040300038603868002200F020000290029838684A
:104040004FF01A0940F001003860386800F00100B4
:1040500002900298386840F004003860386800F038
:104060000400029002985046FCF73AFE6420039048
:10407000052003AC4FF00208079050462146CDE9D9
:1040800004860696FCF756FD012550462146CDF8DC
:104090000C90CDE904560696FCF74CFD7020039079
:1040A0004FF40410CDE904054FF090402146FCF791
:1040B00041FD4FF48070CDE903080320CDE90606E9
:1040C0004FF0904021460596FCF734FD0A2003216D
:1040D0000022FCF78FFE0A20FCF77AFE172003214E
:1040E0000322FCF787FE1720FCF772FE57F8040C3A
:1040F000002140F0040047F8040C57F8040C00229B
:1041000000F004000390039857F8040C40F00100FD
:1041100047F8040C57F8040C00F0010003900398D2
:104120000B20FCF767FE0B20FCF752FE0C20002151
:1041300000220C24FCF75EFE0C20FCF749FE40F246
:10414000DC0043F60001C2F20000C4F201014FF4AA
:10415000E13280E84600C0E90366C0E90546C0E9EF
:104160000766C0E90966FEF729F820B1EFF3108071
:1041700072B600BFFEE740F2DC00C2F20000002190
:10418000FDF774FD18B1EFF3108072B6FEE740F250
:10419000DC00C2F200000021FDF71EFD18B1EFF3B4
:1041A000108072B6FEE740F2DC04C2F20004204642
:1041B000FDF7F2FC18B1EFF3108072B6FEE720684D
:1041C0000A22016841F01001016040F27611C2F24A
:1041D00000012046FEF7ACF8FEF7ACFAFEF7D0FA85
:1041E0004FF6FF7A00200021F0224FF4A073CDF8A3
:1041F00000A04FF0000BFEF703FD48A264207821D9
:104200000023CDE900ABFEF7ADFB47A264208C2173
:104210000023CDE900ABFEF7A5FB44A26420A0215A
:104220000023CDE900ABFEF79DFB42A26420B42140
:104230000023CDE900ABFEF795FB40F27417C2F204
:10424000000740F275143878C2F20004217830304B
:104250008DF80C0001F130008DF80E002C200DF1CE
:104260000C088DF80D004FF00109C8204FF496712D
:10427000424600238DF80FB0CDE900A9FEF772FB8E
:104280004FF47A70FCF752FB00200021F0224FF42B
:10429000A073CDF800A0FEF7B3FC38782178FFF7C3
:1042A00091FDC8204FF4967142460023CDE900A944
:1042B000FEF758FB40F2190540F27016C2F20005F5
:1042C000C2F2000605E000BF642085F800B0FCF7EC
:1042D0002DFB3878217830308DF80C0028780128B3
:1042E00001F130008DF80E00EED100200021F02207
:1042F0004FF4A073CDF800A0FEF782FC3878217847
:10430000FFF760FD3060C8204FF4967142460023ED
:10431000CDE900A9FEF726FBD6E700BF4D61646535
:104320002062793A00000000E4BC9F00E69BB920BF
:10433000E88DA300EFBFBDEFBFBD2020EFBFBD469E
:10434000000000000FB4054B10B503A9044A029801
:1043500000F018F810BC5DF814FB0000C53F000821
:104360000400002002E008C8121F08C1002AFAD188
:1043700070477047002001E001C1121F002AFBD1E5
:10438000704700002DE9FF4F89B09B460446002589
:1043900006E025280BD05A460B999047641C6D1CEB
:1043A00020780028F5D10DB02846BDE8F08F002711
:1043B000B8460122474900E0074314F8013F203B7B
:1043C00002FA03F00842F7D120782E2819D114F808
:1043D000010F47F004072A280ED06FF02F02207833
:1043E000A0F1300109290CD808EB880102EB41014A
:1043F00000EB0108641CF2E70A98641C50F8048B77
:104400000A9020780028CED0642808D0692806D0E9
:1044100075281ED05A460B9990476D1C58E00A9992
:104420004FF00A0901C90A91002802DA40422D2101
:1044300002E0390504D52B218DF82010012103E07D
:10444000F90704D02021F7E78A4608AE0DE00021E5
:10445000FAE70A994FF00A0901C90A91F7E74946B4
:10446000FBF73EFF303106F8011D0028F7D1ADEB18
:10447000060000F12009780701D44FF00108C84573
:1044800002DDA8EB090000E000208046002706E0DE
:1044900008A85A46C05D0B9990476D1C7F1C574574
:1044A000F6DB04E030205A460B9990476D1CB8F1BA
:1044B0000001A8F10108F5DC05E016F8010B5A46E9
:1044C0000B9990476D1CB9F10001A9F10109F4DCC9
:1044D000641C65E70928010010B5044601E0FFF7F8
:1044E00071FD14F8010B04490028F8D1BDE8104013
:1044F0000A20FFF767BD000004000020A583000824
:104500005A830008778300086983000893830008B2
:104510000000000000000000010203040607080973
:104520000000000001020304010002000400060074
:1045300008000A000C00100020004000800000016C
:10454000C9EE00000047FE340218A4811062482022
:1045500040084417FE20E0E150224E2C4420402029
:10456000402040DBDA00100411041124112415242A
:10457000FF2411241124112411241D24F124422488
:10458000020404040004CAD000020001000004FF79
:10459000FE010001083FFC21082108210821082113
:1045A000082128211001000100BAC300100011FCED
:1045B00010041008FC102420242427FE242044206A
:1045C000282010202820442084A00040EED2001093
:1045D0000815FC1F00210021087DFC91081508FF2B
:1045E0000811F8110011001500190411FE0000C88F
:1045F000F3000404437E3104142485F44444444409
:10460000144415F42444E444244425F424042414D8
:104610002408BFC60004100E10F89008500810FEC1
:104620009008501C141A1E29F028104810881008F1
:104630001008100810BCBC0010401040104813FCBB
:10464000FC401040104013F81A083110D11010A08F
:10465000104010B0510E2604D3D00002000204FF17
:10466000FE040004100FF8081018102FF0481088EE
:10467000100FF00810081008500820CFDE000008C6
:104680007DFC4508490849F85108490849F845049E
:104690004588455069205110414E41844100B9ABD5
:1046A0000000000080048004400840082011102110
:1046B0000EC20402000400084010201FF000100089
:1046C00000CBBE0000083FFC00080048FFE80008DF
:1046D00000883FC820882088208820883F8820883C
:1046E00000280010A3BA0000000000000000000035
:1046F00000000006000F000F000600000006000F7B
:10470000000F0006000000D6A70001000100010410
:10471000FFFE010001003FF0082008200440028055
:10472000010002800C60301EC004B3D6001040109F
:1047300040105013F8FC40104817FC18103014D7E4
:10474000FE121011101110101050502020BAE1006C
:104750001110111017FC1110FD1417FE30483BFC0E
:10476000564853F8924813F810001110130C140413
:10477000CAFA00040025FC2504248824502420249F
:1047800050248E070401103FF8082008200444FF3D
:10479000FE0000C6C10000083FFC200820083FF8CA
:1047A000222021482FFC222022243FFE22202220EA
:1047B000422084200820B5E7000200020002107F9A
:1047C000F8421042107FF0421042107FF042100277
:1047D000000204020401FC0000BBB00000104038DD
:1047E00033C0104000400044F7FE1040104813FC56
:1047F0001208120816081A0813F80208B4E7000095
:1048000040004000400044FFFE00400040084004DB
:10481000400440004000400040004001400080C88B
:10482000DD00020001007FFE400284440930129046
:104830000440082010102FEEC824082008200FE0A4
:104840000820B4A500202020203C20482451FEFD53
:1048500024552455247D24552455FC7D205428546A
:104860003C55E28C82C3FE00111011141FFE111082
:10487000FD1813FC16081BF83208D3F810401FFE71
:10488000104010A0511C2608BBAD0000087FFC00A2
:10489000101FF81110511451145FF4511451145198
:1048A000145FF4501440047FFC4004B0E50010088D
:1048B000101C11E01100FD0011FC3104394855486D
:1048C0005150913012201250148E19041000A3ACD4
:1048D00000000000000000000000000000000000D8
:1048E000000C001E001E000C000400080010000058
:1048F00000B0B40010401020100013FEFA0214445F
:1049000010403FFED08810881108109010601050A1
:10491000508C2304CEE500000000087FFC0200025A
:1049200000020002103FFC041004100410081008DC
:10493000100814FFFE0000CFF2000200040008047B
:104940007FFE400440244FF448244824482448244F
:104950004FE44824400440144008BCFC00201027C9
:1049600010397C411482FE7A14247C2710F97C21B2
:1049700010251422FE2A1035102896007CB5C4009C
:104980001040104022447F7E42844304420442840B
:104990007E6442244204420442047E044228001001
:1049A000A1B00000000000002100C6018C03DE035E
:1049B000DE018C000000000000000000000000008C
:1049C000000000D6D0000100010001047FFE410478
:1049D0004104410441047FFC410401000100010045
:1049E000010001000100A1B100000018C03DE03D40
:1049F000E018C00840108021000000000000000006
:104A0000000000000000000000C7E5000040404832
:104A100037FC104083F860402FFE080813FC220882
:104A2000E3F8220823F8220822282210D0EC0010F4
:104A300040104020A04110920815F620406040A789
:104A4000FC2040225022482444284421402080CE8B
:104A5000B00008400840084017FE1040304033FCCA
:104A60005040904017FE10421042104A104410402F
:104A70001040C1E8000040404023F82040004007BB
:104A8000FE111012882484E1F0231024A02040207D
:104A9000A023100C0CB2DC0004400440FFFE0440D4
:104AA0003FF824483FF824483FF800001FF010105A
:104AB0001FF010101FF01010C8D90008200820FFA8
:104AC000FE082000007FFE4002810401007FFC03FD
:104AD00080054009203118C1060100D2D7000FF02F
:104AE000081008100FF0081008100FF0040008005C
:104AF0001FFC224442440484088411280210954675
:104B0000001FF0101010101FF0101010101FF002F6
:104B10000001007FFC08200440038004401830E0BE
:104B20000E00000000000000040000000200000071
:104B3000080000000101010307010000080402044D
:104B400008010101FFFFFFFFFFFFFFFFFFFFFFFF66
:104B5000FFFFFFFFFFFFFFFFFFFFFFFFFFFFFFFF65
:104B6000FFFFFFFFFFFFFFFFFFFFFFFFFFFFFFFF55
:104B7000FFFFFFFFFFFFFFFFFFFFFFFFFFFFFFFF45
:104B8000FFFFFFFFFFFFFFFFFFFFFFFFFFFFFFFF35
:10519000FFFFFFFF0548FFFFFFFFFFFFFFFFFFFFD0
:1051A000FFFFFFFFFFFFFFFFFFFFFFFFFFFFFFFF0F
:1051B000FFFFFFFFFFFFFFFFFFFFFFFFFFFFFFFFFF
:1051C000FFFFFFFFFFFFFFFFFFFFFFFFFFFFFFFFEF
:1051D000FFFF2147FFFFFFFFFFFFFFFFFFFFFFFF75
:1051E000FFFFFFFFFFFFFFFFFFFFFFFFFFFFFFFFCF
:1051F000FFFFFFFFFFFFFFFFFFFFFFFFFFFFFFFFBF
:10520000FFFFFFFFFFFFFFFFFFFFFFFFFFFFFFFFAE
:10521000FFFFFFFFFFFFFFFFFFFFFFFFFFFFFFFF9E
:10522000FFFFFFFFFFFFFFFFFFFFFFFFFFFFFFFF8E
:10523000FFFFFFFFFFFFFFFFFFFFFFFFFFFFFFFF7E
:10524000FFFFFFFFFFFFFFFFFFFFFFFFFFFFFFFF6E
:10525000FFFFFFFFFFFFFFFFFFFFFFFFFFFFFFFF5E
:10526000FFFF0128F1E4E9E5E9E5E9E5E1E5E1E54C
:10527000E9E5E9E5E9E5E9E5E1E5E9E5E9E5E9E5C6
:10528000F205FFFFFFFFFFFFFFFFFFFFFFFFFFFF35
:10529000FFFFFFFFFFFFFFFFFFFFFFFFFFFFFFFF1E
:1052A000FFFFFFFFFFFFFFFFFFFFFFFFFFFFFFFF0E
:1052B000FFFFFFFFFFFFFFFFFFFFFFFFFFFFFFFFFE
:1052C000FFFFFFFFFFFFFFFFFFFFFFFFFFFFFFFFEE
:1052D000FFFFFFFFFFFFFFFFFFFFFFFFFFFFFFFFDE
:1052E000FFFFFFFFFFFFFFFFFFFFFFFFFFFFFFFFCE
:1052F000FFFFFFFFFFFFFFFFFFFFFFFFFFFFF1E5E6
:10530000E1E5E1E5E1E5E1E5E1E5E1E5E9E5E9E55D
:10531000E9E5E9E5E1E5E1E5E1E5E9E5E1E5E9E53D
:10532000E9E5E1E5E9E5F1E50127FFFFFFFFFFFF23
:10533000FFFFFFFFFFFFFFFFFFFFFFFFFFFFFFFF7D
:10534000FFFFFFFFFFFFFFFFFFFFFFFFFFFFFFFF6D
:10535000FFFFFFFFFFFFFFFFFFFFFFFFFFFFFFFF5D
:10536000FFFFFFFFFFFFFFFFFFFFFFFFFFFFFFFF4D
:10537000FFFFFFFFFFFFFFFFFFFFFFFFFFFFFFFF3D
:10538000FFFFFFFFFFFFFFFFFFFFFFFFFFFFFFFF2D
:10539000FFFFFFFFFFFFFFFFFFFFE9E5EA05E1E594
:1053A000E1E5E1E5E1E5E1E5E9E5E9E5E9E5E9E5AD
:1053B000E9E5E9E5E9E5E9E5E9E5E9E5E9E5E1E585
:1053C000E9E5E9E5E9E5E9E5E9E5EA05FA27FFFFC9
:1053D000FFFFFFFFFFFFFFFFFFFFFFFFFFFFFFFFDD
:1053E000FFFFFFFFFFFFFFFFFFFFFFFFFFFFFFFFCD
:1053F000FFFFFFFFFFFFFFFFFFFFFFFFFFFFFFFFBD
:10540000FFFFFFFFFFFFFFFFFFFFFFFFFFFFFFFFAC
:10541000FFFF06E7FFFFFFFFFFFFFFFFFFFFFFFFAD
:10542000FFFFFFFFFFFFFFFFFFFFFFFFFFFFFFFF8C
:10543000FFFFFFFFFFFFE9E5EA05E1E5E1E5E1E563
:10544000E1E5E1E5E1E5E9E5E9E5E9E5E9E5E9E504
:10545000E9E5E9E5E9E5E9E5E9E5E9E5E9E5E1E5E4
:10546000E9E5E1E5E1E5E1E5E1E5E9E5E9E5E1E5F4
:10547000F205FFFFFFFFFFFFFFFFFFFFFFFFFFFF43
:10548000FFFFFFFFFFFFFFFFFFFFFFFFFFFFFFFF2C
:10549000FFFFFFFFFFFFFFFFFFFFFFFFFFFFFFFF1C
:1054A000FFFFFFFFFFFF00C8FFFFFFFFFFFFFFFF42
:1054B000FFFFFFFFFFFFFFFFFFFFFFFFFFFFFFFFFC
:1054C000FFFFFFFFFFFFFFFFFFFFFFFFFFFFFFFFEC
:1054D000FFFFF268E9E5E1E5E1E5E1E5E9E5E1E5C0
:1054E000E9E5E9E5E9E5E9E5E9E5E9E5E9E5EA052B
:1054F000E9E5E9E5E9E5E9E5E9E5E9E5E9E5E9E53C
:10550000E9E5E1E5E9E5E1E5E1C5E1E5E1E5E1E57B
:10551000E9E5EA050147FFFFFFFFFFFFFFFFFFFF90
:10552000FFFFFFFFFFFFFFFFFFFFFFFFFFFFFFFF8B
:10553000FFFFFFFFFFFFFFFFFFFFFFFFFFFFFFFF7B
:10554000FFFFFFFFFFFFFFFFFFFFFFFFFFFFFFFF6B
:10555000FFFFFFFFFFFFFFFFFFFFFFFFFFFFFFFF5B
:10556000FFFFFFFFFFFFFFFFFFFFFFFFFFFFFFFF4B
:10557000EA05E1E5E1E5E1E5E1E5E9E5E9E5E9E5BA
:10558000E9E5E9E5E9E5E9E5E9E5E9E5E9E5E9E5AB
:10559000EA05E9E5EA05E9E5E9E5E9E5EA05E9E538
:1055A000E9E5EA05E9E5E9E5E1E5E9E5E9E5E9E572
:1055B000E9E5E1E5E1E5EA05FFFFFFFFFFFFFFFFAA
:1055C000FFFFFFFFFFFFFFFFFFFFFFFFFFFFFFFFEB
:1055D000FFFFFFFFFFFFFFFFFFFFFFFFFFFFFFFFDB
:1055E000FFFFFFFFFFFFFFFFFFFFFFFFFFFFFFFFCB
:1055F000FFFFFFFFFFFFFFFFFFFFFFFFFFFFFFFFBB
:10560000FFFFFFFFFFFFFFFFFFFFFFFFFFFFE9E5DA
:10561000E1E5E1E5E1E5E1E5E9E5E9E5E9E5E9E53A
:10562000EA05E9E5E9E5E9E5E9E5EA05E9E5EA05A7
:10563000E9E5E9E5E9E5E9E5EA05E9E5E9E5EA05B8
:10564000E9E5E9E5EA05E9E5E9E5E9E5E1E5E9E5D1
:10565000E9E5E1E5E9E5E1E5EA05FFFFFFFFFFFF39
:10566000FFFFFFFFFFFFFFFFFFFFFFFFFFFFFFFF4A
:10567000FFFFFFFFFFFFFFFFFFFFFFFFFFFFFFFF3A
:10568000FFFFFFFFFFFFFFFFFFFFFFFFFFFFFFFF2A
:10569000FFFFFFFFFFFFFFFFFFFFFFFFFFFFFFFF1A
:1056A000FFFFFFFFFFFFFFFFFFFFFFFFE1E5E1E57A
:1056B000E1E5EA05E9E5E9E5E9E5EA05EA05EA05FE
:1056C000E9E5E9E5EA05E9E5EA05EA05E9E5E9E507
:1056D000E9E5E9E5EA05E9E5E9E5E9E5EA05EA05F7
:1056E000EA05E9E5E9E5E9E5E9E5E9E5E9E5E9E529
:1056F000E9E5E9E5E9E5E1E5EA05EA05FFFFFFFFA0
:10570000FFFFFFFFFFFFFFFFFFFFFFFFFFFFFFFFA9
:10571000FFFFFFFFFFFFFFFFFFFFFFFFFFFFFFFF99
:10572000FFFFFFFFFFFFFFFFFFFFFFFFFFFFFFFF89
:10573000FFFFFFFFFFFFFFFFFFFFFFFFFFFFFFFF79
:10574000FFFFFFFFFFFFFFFFFFFFEA05E1E5E9E5E0
:10575000E9E5EA05E1E5E9E5E9E5EA05EA05EA055D
:10576000EA05E9E5EA05EA05EA05E9E5EA05EA0503
:10577000EA05EA05EA05EA05EA05EA05E9E5EA05D2
:10578000EA05E9E5E9E5EA05E9E5E9E5E9E5E9E567
:10579000E9E5E9E5E9E5E1E5E9E5E9E5E1E5FFFF79
:1057A000FFFFFFFFFFFFFFFFFFFFFFFFFFFFFFFF09
:1057B000FFFFFFFFFFFFFFFFFFFFFFFFFFFFFFFFF9
:1057C000FFFFFFFFFFFFFFFFFFFFFFFFFFFFFFFFE9
:1057D000FFFFFFFFFFFFFFFFFFFFFFFFFFFFFFFFD9
:1057E000FFFFFFFFFFFFFFFFEA05E1E5E1E5E9E578
:1057F000EA05E9E5E9E5EA05E9E5E9E5E9E5EA05D6
:10580000EA05EA05EA05E9E5E9E5EA05EA05EA0562
:10581000EA05E9E5EA05EA05E9E5E9E5E9E5E9E5B5
:10582000EA05EA05EA05EA05E9E5E9E5E9E5E9E584
:10583000EA05E9E5E9E5E1C5E9E5E1E5EA05E1E5EE
:10584000FFFFFFFFFFFFFFFFFFFFFFFFFFFFFFFF68
:10585000FFFFFFFFFFFFFFFFFFFFFFFFFFFFFFFF58
:10586000FFFFFFFFFFFFFFFFFFFFFFFFFFFFFFFF48
:10587000FFFFFFFFFFFFFFFFFFFFFFFFFFFFFFFF38
:10588000FFFFFFFFFFFFE9E5E1E5E9E5EA05E9E5FF
:10589000E9E5E9E5EA05EA05EA05EA05EA05EA05D2
:1058A000EA05EA05EA05EA05E9E5EA05EA05EA05A1
:1058B000F205EA05F205F206EA06EA05F226E9E54E
:1058C000EA05EA05EA05EA05EA05E9E5EA05EA0581
:1058D000EA05EA05E1E5E9E5E9E5E9E5E9E5E1E526
:1058E000E9E5FFFFFFFFFFFFFFFFFFFFFFFFFFFFF8
:1058F000FFFFFFFFFFFFFFFFFFFFFFFFFFFFFFFFB8
:10590000FFFFFFFFFFFFFFFFFFFFFFFFFFFFFFFFA7
:10591000FFFFFFFFFFFFFFFFFFFFFFFFFFFFFFFF97
:10592000FFFFFFFFF225E9E5E9E5E9E5E9E5EA053D
:10593000E9E5EA05EA05EA05EA05EA05EA05EA0510
:10594000EA05EA05EA05EA05F226F226EA05F22664
:10595000F225EA05F226F225EA25EA05EA26EA0515
:10596000EA05F226EA05F226EA05EA25EA05EA054D
:10597000E9E5E9E5EA05E9E5E9E5E9E5E9E5EA0575
:10598000E9E5EA05FFFFFFFFFFFFFFFFFFFFFFFF66
:10599000FFFFFFFFFFFFFFFFFFFFFFFFFFFFFFFF17
:1059A000FFFFFFFFFFFFFFFFFFFFFFFFFFFFFFFF07
:1059B000FFFFFFFFFFFFFFFFFFFFFFFFFFFFFFFFF7
:1059C000FFFFFFFFE9E5EA05EA05E9E5EA05EA0583
:1059D000EA05E9E5EA05E9E5EA05EA05E9E5EA05B2
:1059E000EA05EA05EA05EA26EA25EA26EA26EA259C
:1059F000EA25EA05EA25EA25EA25F225F225EA253F
:105A0000EA25F226EA05F226EA05EA05EA05EA05AC
:105A1000EA05EA05EA05E9E5E9E5E9E5E9E5E9E5B3
:105A2000EA05E1E5FFFFFFFFFFFFFFFFFFFFFFFFCD
:105A3000FFFFFFFFFFFFFFFFFFFFFFFFFFFFFFFF76
:105A4000FFFFFFFFFFFFFFFFFFFFFFFFFFFFFFFF66
:105A5000FFFFFFFFFFFFFFFFFFFFFFFFFFFFFFFF56
:105A6000FFFFEA05EA05E9E5EA05EA05EA05EA05D0
:105A7000EA05EA05EA05EA05EA05EA05EA05EA258E
:105A8000EA25EA25EA25EA25EA26EA25EA25F22595
:105A9000E982F44EF3CCE981F245F225EA25EA25C4
:105AA000EA25EA25F225F225EA05EA05F225F205BE
:105AB000E9E5EA05EA05E9E5E9E5E9E5E9E5E9E534
:105AC000E9E5E9E5E9E5FFFFFFFFFFFFFFFFFFFF76
:105AD000FFFFFFFFFFFFFFFFFFFFFFFFFFFFFFFFD6
:105AE000FFFFFFFFFFFFFFFFFFFFFFFFFFFFFFFFC6
:105AF000FFFFFFFFFFFFFFFFFFFFFFFFFFFFFFFFB6
:105B00007A28EA05EA05EA05EA05EA25EA05EA252A
:105B1000EA05F226EA05EA05EA25EA25EA05EA2584
:105B2000EA25EA25EA45EA25E982DEFBE983F22552
:105B3000EA25F225F225F225F205F162E6D9F225F1
:105B4000F246F226EA05EA25F225F226EA05F226D1
:105B5000F205EA05EA05EA05EA05EA05E9E5E9E507
:105B6000E9E5EA05EA05EA08FFFFFFFFFFFFFFFF9F
:105B7000FFFFFFFFFFFFFFFFFFFFFFFFFFFFFFFF35
:105B8000FFFFFFFFFFFFFFFFFFFFFFFFFFFFFFFF25
:105B9000FFFFFFFFFFFFFFFFFFFFFFFFFFFFFFFF15
:105BA000EA25EA25EA25EA25F225F226EA05F22683
:105BB000F226EA25F225F226EA25EA26EA25EA2552
:105BC000EA45EA25EAA8EFDBEA25EA25EA25F225F7
:105BD000EA25F226F246F225F225F246118A0989D3
:105BE0000948096809680127EA45EA25F226F225ED
:105BF000EA05F225EA05EA05EA05EA05E9E5E9E547
:105C0000E9E5E9E5EA05EA05FFFFFFFFFFFFFFFF22
:105C1000FFFFFFFFFFFFFFFFFFFFFFFFFFFFFFFF94
:105C2000FFFFFFFFFFFFFFFFFFFFFFFFFFFFFFFF84
:105C3000FFFFFFFFFFFFFFFFFFFFFFFFFFFF79E811
:105C4000EA25EA25EA25EA25EA25EA25F226F226CA
:105C5000EA25EA25F226EA25EA25F226F246EA4571
:105C6000EA25EF9DF245EA25EA45EA45F246F24685
:105C7000F246F246F246F246EA46F26611AA11AA46
:105C80000968096809680127F266F246F246F24699
:105C9000F225F225F225F225EA05EA05EA05E9E50D
:105CA000E9E5EA05EA05E9E59166FFFFFFFFFFFF89
:105CB000FFFFFFFFFFFFFFFFFFFFFFFFFFFFFFFFF4
:105CC000FFFFFFFFFFFFFFFFFFFFFFFFFFFFFFFFE4
:105CD000FFFFFFFFFFFFFFFFFFFFFFFFFFFFF2469A
:105CE000EA45EA45F246F246EA25F246F246F2462F
:105CF000F246F246F246EA45F245F245F245EA45F9
:105D0000EF7DEA45EA45EA45F266EA45F245F246A4
:105D1000F266F246F266F266F266F26611CB11CADC
:105D20000948096809680106F266EA46F266F24621
:105D3000F225F225F246F226EA05F226EA05EA0500
:105D4000E9E5EA05E9E5E9E5E9E5FFFFFFFFFFFF32
:105D5000FFFFFFFFFFFFFFFFFFFFFFFFFFFFFFFF53
:105D6000FFFFFFFFFFFFFFFFFFFFFFFFFFFFFFFF43
:105D7000FFFFFFFFFFFFFFFFFFFFFFFF0128EA46D6
:105D8000EA66F246F246F266F246F266F266F266BB
:105D9000F246F246F246F246F246EA45EA45F79DF9
:105DA000EA66EA65F265F266F266F266F266F26645
:105DB000F266F266F266F266EA66F26611EB11CB03
:105DC0000948096809680127F266F266F266F26618
:105DD000F266EA25F225F225F226F225EA05EA0521
:105DE000EA05E9E5EA05EA05EA05FFFFFFFFFFFF2F
:105DF000FFFFFFFFFFFFFFFFFFFFFFFFFFFFFFFFB3
:105E0000FFFFFFFFFFFFFFFFFFFFFFFFFFFFFFFFA2
:105E1000FFFFFFFFFFFFFFFFFFFFFFFFFA86EA66BE
:105E2000F266F266F266F266F266F266F266F266B2
:105E3000F266F266EA46F266F266EA45F77DEA66DF
:105E4000F265F286F286F266F286F286F286F286D3
:105E5000F286F286F286F286F266F286120C120C56
:105E60000948096809680127F266F286F266F28637
:105E7000F266F246F245F246F246F225F225EA05CE
:105E8000F205EA05EA05E9E5EA05FA47FFFFFFFF43
:105E9000FFFFFFFFFFFFFFFFFFFFFFFFFFFFFFFF12
:105EA000FFFFFFFFFFFFFFFFFFFFFFFFFFFFFFFF02
:105EB000FFFFFFFFFFFFFFFFFFFFFFFFEA86F28606
:105EC000F286F286F286F286F286F286F286F28612
:105ED000F286F266F266F266F266E942EA66F286F7
:105EE000F286F286F286F2A6F2A6F2A6F2A6F2A652
:105EF000F2A6F286122C120C122C122C1A2C122C36
:105F00000948096809680127F286F286F286F28656
:105F1000F266F266F266F266F246F246F226F22582
:105F2000EA05EA05EA05EA05EA05EA05FFFFFFFFDB
:105F3000FFFFFFFFFFFFFFFFFFFFFFFFFFFFFFFF71
:105F4000FFFFFFFFFFFFFFFFFFFFFFFFFFFFFFFF61
:105F5000FFFFFFFFFFFFFFFFFFFFFFFFEAA6F2A625
:105F6000F2A6F2A6F286F2A6F286F286F286F28611
:105F7000F286F286F286F286F266EF7AEA86F28698
:105F8000F2A6F2A6F2A6F2A6F2A7F2A6F2A6F2A650
:105F9000F2A6F2A6124D1A4D1A4D1A4D124D1A4D77
:105FA0000948096809690969F2C7F2A6F2A6F2A6CA
:105FB000F286F286F266F266F246F246F245F24662
:105FC000EA05F225EA05EA05EA05EA05FFFFFFFF13
:105FD000FFFFFFFFFFFFFFFFFFFFFFFFFFFFFFFFD1
:105FE000FFFFFFFFFFFFFFFFFFFFFFFFFFFFFFFFC1
:105FF000FFFFFFFFFFFFFFFFFFFF41C8EAA6F2C65A
:10600000F2A6F2C7F2C7F2A7F2A6F2A7F2A7F2A68B
:10601000F2A6F2A6F2A6F286E961F2C7F2A6F2C6ED
:10602000F2C7F2A6F2C7F2C6F2C7F2C7F2C7F2C7CA
:10603000F2C7F2A71A6E1A6D1A6E1A6D1A6D1A6EE1
:106040000969096909690969F2C7F2C7F2A6F2A6E6
:10605000F2A7F2A6F286F286F266F266F266F245E0
:10606000F225F225EA05EA25EA05EA0599C7FFFFC8
:10607000FFFFFFFFFFFFFFFFFFFFFFFFFFFFFFFF30
:10608000FFFFFFFFFFFFFFFFFFFFFFFFFFFFFFFF20
:10609000FFFFFFFFFFFFFFFFFFFFF2E6F2C7F2C7C0
:1060A000F2C7F2C7F2E7F2C7F2C7F2C7F2C7F2C609
:1060B000F2C7F2C7F2A6F2A6DF5CF2C7F2E7F2C7B8
:1060C000F2C7F2C7F2E7F2C7F2E7F2E7F2E7F2E768
:1060D000F2E7F2E71A8E1A8E1AAE1AAE1AAE1AAE9E
