:020000040800F2
:10000000E0080020DD020008618B0008693200086A
:100010005D8B00088D0A00083DAB00080000000061
:100020000000000000000000000000002192000815
:10003000110B000800000000658B000825920008E5
:10004000F7020008F7020008F7020008F7020008AC
:10005000F7020008F7020008F7020008F70200089C
:10006000F7020008F7020008850C0008910A000852
:10007000050B0008F7020008F7020008F702000865
:10008000F7020008F7020008F7020008F70200086C
:10009000F7020008F7020008F70200088D0C0008BC
:1000A000F7020008F7020008F7020008F70200084C
:1000B000F7020008F7020008F7020008F70200083C
:1000C000F7020008F7020008F7020008F70200082C
:1000D000F702000831AB0008F7020008F702000839
:1000E000F7020008F7020008F7020008F70200080C
:1000F000F7020008F7020008F7020008F7020008FC
:10010000F7020008F7020008F7020008F7020008EB
:10011000F7020008F7020008F7020008F7020008DB
:10012000F7020008F7020008F7020008F7020008CB
:10013000F7020008F7020008F7020008F7020008BB
:10014000F7020008F7020008F7020008F7020008AB
:10015000F7020008F7020008F7020008F70200089B
:10016000F7020008F7020008F7020008F70200088B
:10017000F7020008F7020008F7020008F70200087B
:10018000F7020008F7020008F7020008F70200086B
:10019000F702000800000000F7020008F70200085C
:1001A000F7020008F7020008F7020008F70200084B
:1001B000F7020008F7020008F7020008F70200083B
:1001C000F7020008F7020008F7020008F70200082B
:1001D000F7020008F702000800F002F800F054F8F7
:1001E00014A696E8000CB244B344DA4501D100F0FD
:1001F0004BF8BAE80F000FA696E83000A5EB04050F
:1002000004EB0607AAEB0704A7F101074FEA15154F
:100210004FEA3414A4F10104AC4201D300F034F8E5
:1002200013F0010F18BFFB1A43F0010300F001F8AF
:10023000DBE718475006010070060100103A24BFA2
:1002400078C878C1FAD8520724BF30C830C144BF3B
:1002500004680C6070470000704700000023002411
:1002600000250026103A28BF78C1FBD8520728BFC6
:1002700030C148BF0B6070471FB50CF047FB00F062
:10028000DAF81FBD10B510BD00F092F91146FFF766
:10029000F3FF0AF0FFFF00F0B0F903B4FFF7F2FF3D
:1002A00003BC00F0B3F900000B49D1F800C04A6864
:1002B0005CF8043B1068184442F8040B8C4528BFD6
:1002C000A1F1DC0C8A4228BFA1F1DC02C1F800C018
:1002D0004A6020F000407047EC0000200948804749
:1002E00009480047FEE7FEE7FEE7FEE7FEE7FEE718
:1002F000FEE7FEE7FEE7FEE704480549054A064B30
:1003000070470000AD920008D9010008E00200200B
:10031000E0080020E0040020E004002053EA020C82
:1003200000F069802DE9F04B4FF00006002B1FBF55
:10033000B3FA83F503FA05F424FA05F65E4012BF1A
:100340001643B2FA82F502FA05F4C5F120051EBF84
:1003500022FA05FC44EA0C04203556EA044C4FEA24
:10036000144418BF641C4FF000084FF0000990427D
:1003700071EB030C39D3002919BFB1FA81F701FAE7
:1003800007F6B0FA80F700FA07F6C7F120071EBF9C
:1003900020FA07FC46EA0C062037B6FBF4FCA7EB74
:1003A0000507103F07F01F0BCBF120062CFA06F6CD
:1003B0000CFA0BFB44BFB3460026202FA4BF5E46B9
:1003C0004FF0000B5BEA060C08BF4FF0010B19EB76
:1003D0000B0948EB0608ABFB027C06FB02CC0BFBCF
:1003E00003CCC01B71EB0C01C1E70B460246414632
:1003F0004846BDE8F08B13B5084318BF4FF0FF30F7
:100400000146AFF30080BDE81C4070470B4910B5B2
:10041000A1F17C020A4CC2E93712372106E000EB59
:10042000104342F82130074B00FB03400B1EA1F1A3
:100430000101F4DC10BD0120E8E700008C00002081
:10044000E119D666CD0D0100032A40F2308010F08C
:10045000030C00F0158011F8013BBCF1020F62445F
:1004600098BF11F801CB00F8013B38BF11F8013BF0
:10047000A2F1040298BF00F801CB38BF00F8013B9D
:1004800011F0030300F05A80083AC0F0088051F8D8
:10049000043B083A51F804CBA0E80810F5E7121D18
:1004A0005CBF51F8043B40F8043BAFF30080D20737
:1004B00024BF11F8013B11F801CB48BF11F8012B03
:1004C00024BF00F8013B00F801CB48BF00F8012B26
:1004D00070474FF0000200B5134694469646203907
:1004E00022BFA0E80C50A0E80C50B1F12001BFF4ED
:1004F000F7AF090728BFA0E80C5048BF0CC05DF853
:1005000004EB890028BF40F8042B08BF704748BFA0
:1005100020F8022B11F0804F18BF00F8012B704714
:1005200070477047704710B500F03AF8006810BD8A
:1005300010B5044600F034F8046010BD10B5203A40
:10054000C0F00B80B1E81850A0E81850B1E818507E
:10055000A0E81850203ABFF4F5AF5FEA027C24BF50
:10056000B1E81850A0E8185044BF18C918C0BDE839
:1005700010405FEA827C24BF51F8043B40F8043B02
:1005800008BF7047D20728BF31F8023B48BF11F8B7
:10059000012B28BF20F8023B48BF00F8012B704711
:1005A00000487047F400002000487047F400002025
:1005B0007546FFF7F9FFAE4605006946534620F041
:1005C0000700854618B020B5FFF796FEBDE820402D
:1005D0004FF000064FF000074FF000084FF0000BFF
:1005E000AC46ACE8C009ACE8C009ACE8C009ACE86E
:1005F000C00921F007018D46704710B50446AFF3DE
:1006000000802046BDE81040FFF747BE0149182092
:10061000ABBEFEE726000200704700002DE9F04F58
:1006200081B041F228041FFA80FAC4F600044FF0AA
:10063000100B042540275046984691460E46C4F8B4
:1006400000B02560276044F8105C256044F8107CF9
:1006500044F8105C256044F8107C44F8105C256078
:1006600044F8107C44F8105C2560276044F8105C66
:100670002560276044F8105C2560276044F8105C12
:100680002560276044F8105C2560276044F8105C02
:100690002560276044F8105C2560276044F8105CF2
:1006A0002560276044F8105C2560276044F8105CE2
:1006B0002560276044F8105C2560276044F8105CD2
:1006C0002560276044F8105C2560276044F8105CC2
:1006D000256044F8107C44F8105C2560276044F8DD
:1006E000105C256044F8107C44F8105C256027609D
:1006F00044F8105C2560276044F8105C2560276092
:1007000044F8105C2560276044F8105C44F810BC85
:1007100007F018FFB0B2C4F800B02560276044F8B5
:10072000105C256044F8107C44F8105C256044F8A7
:10073000107C44F8105C256044F8107C44F8105C90
:100740002560276044F8105C2560276044F8105C41
:100750002560276044F8105C2560276044F8105C31
:100760002560276044F8105C2560276044F8105C21
:100770002560276044F8105C2560276044F8105C11
:100780002560276044F8105C2560276044F8105C01
:100790002560276044F8105C2560276044F8105CF1
:1007A0002560276044F8105C256044F8107C44F80C
:1007B000105C2560276044F8105C256044F8107CCC
:1007C00044F8105C2560276044F8105C25602760C1
:1007D00044F8105C2560276044F8105C256044F8FC
:1007E000107C44F8105C44F810BC07F0ABFE1FFA14
:1007F00089F63046C4F800B02560276044F8105CE4
:10080000256044F8107C44F8105C256044F8107CA6
:1008100044F8105C256044F8107C44F8105C2560B6
:10082000276044F8105C2560276044F8105C256060
:10083000276044F8105C2560276044F8105C256050
:10084000276044F8105C2560276044F8105C256040
:10085000276044F8105C2560276044F8105C256030
:10086000276044F8105C2560276044F8105C256020
:10087000276044F8105C2560276044F8105C256010
:10088000276044F8105C256044F8107C44F8105C44
:100890002560276044F8105C256044F8107C44F81B
:1008A000105C2560276044F8105C2560276044F8E0
:1008B000105C256044F8107C44F8105C25602760CB
:1008C00044F8105C44F810BC07F03CFE1FFA88F0B6
:1008D000C4F800B02560276044F8105C256044F837
:1008E000107C44F8105C256044F8107C44F8105CDF
:1008F000256044F8107C44F8105C2560276044F8BB
:10090000105C2560276044F8105C2560276044F87F
:10091000105C2560276044F8105C2560276044F86F
:10092000105C2560276044F8105C2560276044F85F
:10093000105C2560276044F8105C2560276044F84F
:10094000105C2560276044F8105C2560276044F83F
:10095000105C2560276044F8105C2560276044F82F
:10096000105C256044F8107C44F8105C256027601A
:1009700044F8105C256044F8107C44F8105C256055
:10098000276044F8105C2560276044F8105C2560FF
:1009900044F8107C44F8105C256044F8107C44F85E
:1009A000105C44F810BC07F0CDFD5046314607F00E
:1009B000F5FFC4F800B02560276044F8105C25609E
:1009C00044F8107C44F8105C256044F8107C44F82E
:1009D000105C256044F8107C44F8105C25602760AA
:1009E00044F8105C2560276044F8105C256027609F
:1009F00044F8105C2560276044F8105C256027608F
:100A000044F8105C2560276044F8105C256027607E
:100A100044F8105C2560276044F8105C256027606E
:100A200044F8105C2560276044F8105C256027605E
:100A300044F8105C2560276044F8105C256027604E
:100A400044F8105C2560276044F8105C256044F889
:100A5000107C44F8105C2560276044F8105C256029
:100A6000276044F8105C2560276044F8105C25601E
:100A700044F8107C44F8105C2560276044F8105C52
:100A800044F810BC01B0BDE8F08F0000FEE70000A4
:100A900040F270110020C2F20001C4F202000968A5
:100AA00000F19402914209D9D0F80004800722D5C0
:100AB00040F20440C4F2020004E000BF50F8041BFE
:100AC000890718D510B5022140F2C4240160C2F292
:100AD000000440F25811C2F2000120461522FFF72F
:100AE000B3FC40F23020C2F200002146152202F091
:100AF00043FBBDE8104040F27010C2F2000000F06D
:100B00004DB9000040F2D010C2F2000000F046B92A
:100B10007047000010B514460A4601461346FFF719
:100B20007DFD41F21800C4F6000021044FF0100CC6
:100B30004FF004034FF0400E014600F11002C0F8E0
:100B400010C00361C0F810E003600361C0F800E06A
:100B500003600361C0F800E003600361C0F800E0D7
:100B600003600361C0F810E003600361C0F810E0A7
:100B700003600361C0F800E003600361C0F810E0A7
:100B80000360036158BF1146C1F800E061040146EB
:100B90000360036158BF1146C1F800E0A10401469B
:100BA0000360036158BF1146C1F800E0E10401464B
:100BB0000360036158BF1146C1F800E021050146FA
:100BC0000360036158BF1146C1F800E061050146AA
:100BD0000360036158BF1146C1F800E0A10501465A
:100BE0000360036158BF1146C1F800E0E10501460A
:100BF0000360036158BF1146C1F800E021060146B9
:100C00000360036158BF1146C1F800E06106014668
:100C10000360036158BF1146C1F800E0A106014618
:100C20000360036158BF1146C1F800E0E1060146C8
:100C30000360036158BF1146C1F800E02107014677
:100C40000360036158BF1146C1F800E06107014627
:100C50000360036158BF1146C1F800E0A1070146D7
:100C60000360036158BF1146C1F800E003600361EF
:100C7000E10718BF0246C2F800E00360C0F800C0F8
:100C800010BD0000102000F0EBBA000080B520205D
:100C900000F0E6FA4020BDE8804000F0E1BA000034
:100CA000EFF3108072B600BFFEE70000014690F837
:100CB0002500022828D180B50868D1E910CE8A6CB9
:100CC000036823F00E030360136823F4807313603A
:100CD000026822F0010202600EF01F00012202FAF7
:100CE00000F0CCF80400D1E913205060486D30B119
:100CF000026822F480720260D1E91602426000208C
:100D0000BDE8804003E000BF0420C8630120012249
:100D100081F82520002281F82420704790F82510C2
:100D2000022931D180B50168D0E910CE826C0B6800
:100D300023F00E030B600B6823F001030B601168B6
:100D400021F4807111600EF01F02012101FA02F2FC
:100D5000CCF80420D0E913325A60426D32B11368E6
:100D600023F480731360D0E91623536080F82510B4
:100D7000826B002180F824100AB190470021BDE861
:100D800080400846704700BF0421C1630121002252
:100D900080F8251080F8242008467047B0B5D0E9C7
:100DA00010C30268DCF8001003F01F030424D2F81B
:100DB00000E09C400C4218BF1EF0040520D1022424
:100DC0009C400C4218BF1EF0020529D1D9400907EA
:100DD00014D51EF0080108BFB0BD116821F00E0146
:100DE0001160012101FA03F2CCF80420C16380F8FC
:100DF0002510416B002280F8242069B9B0BD00BFE6
:100E00001168890603D4116821F004011160CCF83F
:100E10000440016B0029F1D0BDE8B040084700BF95
:100E20001168890606D4116821F00A0111600121B8
:100E300080F82510CCF80440C16A0022002980F80F
:100E40002420E9D1DAE7000000284FF0010100F08A
:100E500085802DE9F04740F2000CC4F2020C0368D3
:100E60004FF6F8320CF5816ECBF6FD72734538BF44
:100E700002F580624CF6CD441A44CCF6CC44A2FB79
:100E8000042903F0FC02A2F10802A2FB04280CF5DD
:100E900080646FF00305D0E902A607693CBF002417
:100EA000C4F2020405EA9905C0E91045022480F85D
:100EB00025401C6847F6F07224EA02023243466974
:100EC0003A4387693243C6693A43076A32433A4331
:100ED00042EA0A021A600CF50262734538BF0CF54B
:100EE0000062AB180CF50862C264C8F3041201FA80
:100EF00002F540F68401BAF5804FC4F20201836422
:100F0000056505D1002242601A600D6018E000BF3F
:100F10004268D4B2013A032A4FF000021C600D600F
:100F20000ED8631E01EB830747F87C2F03F01F02E6
:100F300001239340C1F8C030BC313A4602E000BF03
:100F400000210023C0E9152100210122C365C163EE
:100F500080F8252080F82410BDE8F0470846704747
:100F600090F824C0BCF1010F47D04FF0010C80F87D
:100F700024C090F825C0BCF1010F3BD12DE9F04110
:100F80004FF0020C80F825C04FF0000CC0F83CC0B8
:100F9000D0F800C000F14C0E9EE83040DCF8006054
:100FA000BEF1000F26F00106CCF8006065601CBFA2
:100FB000D0E916456560D0E91056012706F01F06F6
:100FC000846807FA06F6D0F830806E60CCF80430FA
:100FD0000B46102C04BF13460A46CCF80830CCF858
:100FE0000C20DCF80010B8F1000F09D041F00E0120
:100FF0000EE000BF002180F824100220704700BFDF
:1010000021F00401CCF80010DCF8001041F00A01D6
:10101000CCF80010806C0168C90303D5016841F465
:1010200080710160BEF1000F05D0DEF8000040F4D1
:101030008070CEF80000DCF8000040F00100CCF831
:1010400000000020BDE8F081B0B5044600F0FAF9D8
:10105000054640F20000C2F200004068611C18BF63
:10106000044400BF00F0EEF9401BA042FAD3B0BD2B
:1010700080B5102800F09680202845D0402841D126
:10108000002042F2DE6100BF00BF00BF00BF00BF12
:1010900000BF00BF00BF00BF00BF00BF00BF00BF58
:1010A00000BF00BF00BF00BF00BF00BF00BF00BF48
:1010B00000BF00BF00BF00BF00BF00BF00BF00BF38
:1010C00000BF00BF00BF00BF00BF00BF00BF00BF28
:1010D00000BF00BF00BF00BF00BF00BF00BF00BF18
:1010E00000BF00BF00BF00BF00BF884200F1320058
:1010F00000BFC9D34FF09040402100F097F900287D
:1011000000F0A08080BD00BF002042F2DE6100BF81
:1011100000BF00BF00BF00BF00BF00BF00BF00BFD7
:1011200000BF00BF00BF00BF00BF00BF00BF00BFC7
:1011300000BF00BF00BF00BF00BF00BF00BF00BFB7
:1011400000BF00BF00BF00BF00BF00BF00BF00BFA7
:1011500000BF00BF00BF00BF00BF00BF00BF00BF97
:1011600000BF00BF00BF00BF00BF00BF00BF00BF87
:1011700000BF884200F1320000BFC9D34FF0904059
:10118000202100F053F9002818BF80BD40F2541010
:10119000C2F200000178B1FA81F149090170012120
:1011A000817080BD002042F2DE6100BF00BF00BF41
:1011B00000BF00BF00BF00BF00BF00BF00BF00BF37
:1011C00000BF00BF00BF00BF00BF00BF00BF00BF27
:1011D00000BF00BF00BF00BF00BF00BF00BF00BF17
:1011E00000BF00BF00BF00BF00BF00BF00BF00BF07
:1011F00000BF00BF00BF00BF00BF00BF00BF00BFF7
:1012000000BF00BF00BF00BF00BF00BF00BF8842DB
:1012100000F1320000BFC9D34FF09040102100F020
:1012200005F900287FF46EAF40F25410C2F20000BE
:1012300041780129D8BF0121013941700121817014
:1012400080BD00BF40F25410C2F200004178032973
:1012500028BF0321013141700121817080BD000050
:1012600040F21441C4F201010A68024214BF08604E
:101270007047FFF7FDBE00002DE9F04F83B00E6808
:10128000002E00F0CF8000F1200241F2004C0092CD
:1012900000F13847C4F6000C06224FEAB725604536
:1012A00008BF0522052D38BF4FEAB72200250027C9
:1012B0004FF0000801920AE00E6808F1010836FAC2
:1012C00008F207F1020705F1040500F0AB800122E6
:1012D00002FA08FE16EA0E09EED0D1F804C0032285
:1012E0000CF0030BABF1010602FA07F4012E6FEAD2
:1012F000040A11D88468CE6804EA0A04BE40344364
:101300008460446824EA0E06CCF3001404FA08F45E
:101310002643466006E000BFBBF1030F02D14FF049
:10132000030B21E0C6688C6806EA0A06BC40264327
:10133000BBF1020FC66017D16FF00302009B02EAF7
:10134000580605F01C020F2453F806C004FA02FEEA
:101350000C692CEA0E0C04FA02F242EA0C029A51D1
:10136000D1F804C00CF0030B02680BFA07F302EA91
:101370000A021A431CF4403F02609DD041F2600310
:10138000C4F202031A6840F2004E42F001021A60F1
:101390001A68C4F2010E02F001020292029A28F0C9
:1013A00003024FF6084C7244CFF6FF7C52F80C3023
:1013B00005F00C060F24B440A343019C04FA06F682
:1013C000334342F80C30DEF808204B6842EA090645
:1013D00040F20C4CDC0258BF22EA0906CEF8086045
:1013E000C4F2010CDCF800209C0242EA090658BF56
:1013F00022EA0906CCF80060DEF804209C0342EAE9
:10140000090658BF22EA0906CEF80460DEF800207B
:10141000DB0342EA090658BF22EA0906CEF800605B
:101420004AE700BF03B0BDE8F08F00000069084044
:1014300018BF0120704700001823002A08BF282386
:10144000C150704740F2DC20C2F2000000687047D3
:1014500040F2000040F2DC21C2F20000C2F20001C2
:1014600040680A68104408607047000080B5032097
:1014700000F092F8002000F009F800281CBF0120BD
:1014800080BD00F02BF8002080BD0000B0B540F218
:101490000005C2F200056968F1B1044640F2080097
:1014A000C2F200004FF47A720068B2FBF1F1B0FBB7
:1014B000F1F000F005FF01460F2C4FF001000AD8B3
:1014C000002918BFB0BD4FF0FF302146002200F0C8
:1014D00037F800202C60B0BD0120B0BD80B582B0CF
:1014E00041F25800C4F20200816841F001018160BC
:1014F000816801F0010101910199016841F0805179
:101500000160006800F0805000900098052000F015
:1015100043F802B0BDE8804000F0D6B8002848BFCC
:10152000704700F01F01012202FA01F11C2202EAB9
:10153000D0004EF20012CEF200028150704700003F
:1015400010B54EF60C5CCEF2000CDCF80030C3F3A4
:10155000022E8EF00704042C28BF0424BEF10303DE
:101560004FF0FF3E0EFA04F438BF0023A143994028
:101570000EFA03F39A43114300F00F0200F16043A7
:101580000901043A03F564436244002848BF02F1AC
:101590000C03197010BD00004EF60C51CEF2000184
:1015A0000A684FF6FF031A4060F30A2242F0806097
:1015B00040F0FD700860704747F21401C4F200016A
:1015C00051F8142CB0F5007F3CD0002874D1C86EBF
:1015D00002F4C06220F48070B2F5806FC8662FD12B
:1015E00051F8140C012262F34A2041F8140C40F225
:1015F0000800C2F200000068322250434DF68362B8
:10160000C4F21B32A0FB0202900C00BF0A68520514
:1016100011D5421C0FD00A6852050CD558B10A6882
:10162000520508D5012806D00A68520503D50228BC
:10163000A0F10400EAD10868400544BF03207047C8
:1016400000207047C86E02F4C06240F48070B2F5AA
:10165000806FC866F4D151F8140C012262F34A205D
:1016600041F8140C40F20800C2F200000068322277
:1016700050434DF68362C4F21B32A0FB0202900C71
:101680000A68520511D5421C0FD00A6852050CD5C4
:1016900058B10A68520508D5012806D00A685205D3
:1016A00003D50228A0F10400EAD10868400544BF30
:1016B00003207047C4E700BF022060F34A2241F8CC
:1016C000142C00207047000047F20800C4F200000C
:1016D000016841F480410160704700002DE9F0414C
:1016E00082B00446807841F288060007C4F2020600
:1016F00002D400202FE000BF56F8300C5FEAC0088B
:101700000BD456F8300C40F0805046F8300C56F8A8
:10171000300C00F080500190019847F20007C4F2AD
:101720000007386840F480703860FFF78BFE05468C
:101730003868C00500F10C81FFF784FE401B0228C9
:10174000F6D90320B8F1000F05D456F8301C21F06B
:10175000805146F8301C2168CA0717D18A071DD46A
:101760004A0723D40A0729D4CA062FD48A0635D4B7
:101770004A063BD40A0641D4CA0547D48A034DD44D
:101780008A0553D44A0559D467E000BF32686368BC
:1017900022F003021A4332608A07E1D53268A36857
:1017A00022F00C021A4332604A07DBD53268E36844
:1017B00022F030021A4332600A07D5D53268236915
:1017C00022F0C0021A433260CA06CFD5326863697C
:1017D00022F440721A4332608A06C9D53268A3697E
:1017E00022F440621A4332604A06C3D53268E36984
:1017F00022F440521A4332600A06BDD53268236A89
:1018000022F440421A433260CA05B7D53268636A8F
:1018100022F440321A4332608A03B1D57269A36A56
:1018200022F003021A4372618A05ABD53268E36A7B
:1018300022F440221A4332604A050ED53268236BE7
:1018400022F440121A43B3F5801F326005D156F8D6
:101850007C2C42F4801246F87C2C0A050ED53268A6
:10186000636B22F440021A43B3F5800F326005D156
:1018700056F87C2C42F4801246F87C2CCA040ED513
:101880003268A36B22F040721A43B3F1807F32605A
:1018900005D156F87C2C42F4801246F87C2C8A0440
:1018A0000ED53268E36B22F040621A43B3F1006F49
:1018B000326005D156F87C2C42F4801246F87C2C1C
:1018C0004A040ED53268236C22F040621A43B3F109
:1018D000006F326005D156F87C2C42F4801246F835
:1018E0007C2C0A040ED53268636C22F040521A43F5
:1018F000B3F1805F326005D156F87C2C42F480321F
:1019000046F87C2CCA030ED53268A36C22F0404204
:101910001A43B3F1804F326005D156F87C2C42F463
:10192000803246F87C2C49030ED57169E26C21F4B3
:1019300040111143B2F5001F716105D156F87C1CAE
:1019400041F4801146F87C1C02B0BDE8F08100BF74
:10195000B06810F4407010D0216D88420BD0B06890
:10196000B16820F4407041F48031B160B16821F475
:101970008031B160B060C0070CD1B068216D20F437
:1019800040700843B0600020B8F1000F3FF5E3AEAF
:10199000DBE600BFFFF756FD054641F2883700BF82
:1019A000B0688007E9D4FFF74DFD401BB842F7D976
:1019B000C7E600002DE9F047002863D042F2000A94
:1019C000C4F2020A0446DAF800000D4600F00F00E7
:1019D00088420CD2DAF8000020F00F002843CAF841
:1019E0000000DAF8000000F00F00A8424AD1216898
:1019F00041F20808C807C4F2020803D1880740F181
:101A0000D080B5E0606858F8082C022838D0032848
:101A10003CD1920136D5D8F80420D8F8043042F2EF
:101A20000046C3F3031302F00302D8F80470013335
:101A3000C0F2F406032A04BF41F20026C0F27A067F
:101A4000B6FBF3F2D8F80430C7F306277A43C3F3A2
:101A50004163022707EB4303B2FBF3F24BF200436F
:101A6000C0F2C4439A4259D9D8F8002012F0F00FBE
:101A700049D0890752D5A16800294FD143E000BF62
:101A8000910305D40120BDE8F08700BF5105F9D5C9
:101A9000D8F8001001F00C0104293FD0D8F800104C
:101AA00001F00C01082939D0D8F8001001F00C0120
:101AB0000C2933D1D8F80410D8F8042042F200479A
:101AC000C2F3031201F00301D8F804300132C0F26E
:101AD000F407032904BF41F20027C0F27A07B7FBDD
:101AE000F2F1D8F80420C3F306235943C2F341624C
:101AF000022303EB4202B1FBF2F14BF20042C0F2CF
:101B0000C44291420AD9D8F80010082262F30711A2
:101B10004FF00109C8F8001002E000BF4FF00009C3
:101B2000D8F8001021F003010843C8F80000FFF7BF
:101B300089FC064641F28837D8F80000616800F059
:101B40000C00B0EB810F07D0FFF77CFC801BB84284
:101B5000F2D90320BDE8F0872168880708D4B9F1DD
:101B6000000F1ED0D8F8000020F0F00017E000BFF2
:101B7000480705D5D8F8000040F4E060C8F8000038
:101B8000080706D5D8F80000072262F30D20C8F830
:101B90000000D8F80000A26820F0F0001043C8F858
:101BA0000000DAF8000000F00F00A8421BD9DAF8B4
:101BB000000020F00F002843CAF80000FFF742FCA5
:101BC000064641F2883700BFDAF8000000F00F0047
:101BD000A84207D0FFF736FC801BB842F4D9032097
:101BE000BDE8F0872168480707D5D8F80000E2680B
:101BF00020F4E0601043C8F80000080708D5D8F8C2
:101C00000000216920F4605040EAC100C8F80000DB
:101C1000D8F8000042F20041C0F2F40100F00C00DC
:101C2000042808462DD0D8F8000000F00C00082841
:101C300041F20020C0F27A0023D0D8F8002002F050
:101C40000C020C2A1CD1D8F80420D8F8043002F079
:101C50000302C3F30313D8F804700133032A08BF47
:101C60000146B1FBF3F0D8F80410C7F30627C1F31F
:101C700041610222784302EB4101B0FBF1F000E048
:101C80000020D8F800104CF65022C1F30311C0F622
:101C90000002515C40F2080201F01F0120FA01F13C
:101CA00040F20000C2F200000068C2F200021160BF
:101CB000BDE8F047FFF7EABB40F2080041F2080137
:101CC000C2F20000C4F20201006809684CF660220A
:101CD000C1F30221C0F60002515C01F01F01C840AF
:101CE0007047000040F2080041F20801C2F2000013
:101CF000C4F20201006809684CF66022C1F3C221F7
:101D0000C0F60002515C01F01F01C840704700009E
:101D100041F20C01C4F2020151F8040C42F20042FB
:101D2000C0F2F40200F00C000428104608BF70470F
:101D300051F8040C00F00C00082841F20020C0F219
:101D40007A0025D051F8043C03F00C030C2B1CBF87
:101D50000020704780B5D1F800C00B680CF0030C70
:101D6000C3F3031E0B680EF1010EBCF1030F08BF95
:101D700002460968B2FBFEF0C3F30623C1F34161DA
:101D80000222584302EB4101B0FBF1F0BDE8804074
:101D900070470000F0B585B0064602200190032090
:101DA00041F2080703900020C4F202070290144693
:101DB000C6F3034001227B6C0D468102824001F193
:101DC000904043EA02017964B1B20091C6F3075131
:101DD00004916946FFF750FAF00006D4386844EAE7
:101DE000050120F0FE400843386005B0F0BD00005A
:101DF000002804BF012070472DE9F04182B004465D
:101E0000007841F20006C007C4F202061ED1207815
:101E100080073DD42078000764D42078400700F183
:101E200087802078800600F1D980E569002D00F0D8
:101E30004282B06800F00C000C2840F03181012D86
:101E400040F08E81012002B0BDE8F081B06800F062
:101E50000C01F068082961D0032281F00C0122EA0C
:101E600000000844B0FA80F0400957D1616830683A
:101E7000B1F5803F07D0B1F5A02F40F0E38040F4EA
:101E800080203060306840F480303060E4E000BF93
:101E9000B068F16800F00C00042871D001F0030173
:101EA00080F00C0081F002010844B0FA80F0400993
:101EB00066D1E1683068002900F0E08040F480706D
:101EC0003060FFF7BFFA05463068400500F10A812F
:101ED000FFF7B8FA401B0228F6D9032002B0BDE88C
:101EE000F08100BF6169D6F89400002900F0948069
:101EF00040F00100C6F89400FFF7A4FA054600BFC1
:101F0000D6F8940080073FF588AFFFF79BFA401B97
:101F10000228F5D9032002B0BDE8F08130688003C3
:101F20007FF575AF606800287FF471AF3EE000BFB9
:101F3000B06D5FEAC00808D4B06D40F08050B06565
:101F4000B06D00F080500190019847F20007C4F294
:101F500000073868C0052DD4386840F480703860B8
:101F6000FFF770FA054600BF3868C00522D4FFF7B6
:101F700069FA401B0228F7D9032002B0BDE8F081BE
:101F80003068400501D5E06880B17068216920F0B3
:101F9000FE4040EA0160706040F20000C2F20000C2
:101FA0000068FFF773FA00283FF434AF012002B055
:101FB000BDE8F081A168D6F89000012908D0052974
:101FC00040F0AE8040F00400C6F89000D6F89000D3
:101FD00040F00100C6F89000AEE000BFA169D6F85D
:101FE0009800002900F0868040F00100C6F89800B3
:101FF000FFF728FA054600BFD6F8980080073FF59E
:1020000014AFFFF71FFA401B02284FF00300F3D96B
:1020100002B0BDE8F08100BF20F00100C6F89400D6
:10202000FFF710FA054600BFD6F8940080077FF549
:10203000F4AEFFF707FA401B0228F5D9032002B0DF
:10204000BDE8F08120F4803030603068002920F451
:102050008020306000F0BE80FFF7F4F9054600BF35
:10206000306880033FF5D3AEFFF7ECF9401B6428DE
:10207000F6D9032002B0BDE8F08100BF20F48070E3
:102080003060FFF7DFF90546306840057FF5C2AEE6
:10209000FFF7D8F9401B02284FF00300F4D9B7E747
:1020A000306820F080703060FFF7CCF9022D0546D3
:1020B0000CD100BF3068800140F1B880FFF7C2F951
:1020C000401B02284FF00300F4D9A1E730688001DB
:1020D00040F1EA80FFF7B6F9401B02284FF00300F9
:1020E000F4D995E77068216920F0FE4040EA01606C
:1020F00070608FE620F00100C6F89800FFF7A2F9A3
:10210000054600BFD6F8980080077FF58EAEFFF732
:1021100099F9401B02284FF00300F3D978E700BF7C
:1021200020F00100C6F89000D6F89000002920F0B9
:102130000400C6F890005DD0FFF784F9054641F22F
:10214000883700BFD6F89000800765D4FFF77AF98A
:10215000401BB842F6D9032002B0BDE8F08100BFB1
:10216000F068216A00F003028A427FF41FAF626ABE
:102170006FF00F0300F0F00103EB021291427FF4C5
:1021800015AFA16A00F4FE42B2EB012F7FF40EAF4F
:10219000E16A00F07842B2EBC16F7FF407AF226BC7
:1021A0000023CFF6E07303EA025200F4C001A2F567
:1021B000001291427FF4FAAE616B4FF07E4202EA68
:1021C000016100F0C06001F17E4188427FF4EEAE13
:1021D00071E000BFFFF736F9054600BF30688003A5
:1021E0007FF515AEFFF72EF9401B64284FF0030072
:1021F000F4D90DE7FFF726F9054641F2883700BF0D
:10220000D6F89000800707D5FFF71CF9401BB842AD
:102210004FF00300F4D9FBE6B8F1000F3FF501AE33
:10222000B06D20F08050B065FBE500BFF06848F26B
:102230000C01C0F29F1104F1200700EA010C8ECFBF
:102240006FF00F00D4E90C5400EB02100022CFF61F
:10225000E07241EA0C0102EA05520843A2F50012BD
:102260004FF07E4540EA032005EA0465104305F17E
:102270007E4540EAC7602843F060306840F08070D7
:102280003060F06840F08070F060FFF7DBF80446E3
:10229000306880010FD4FFF7D5F8001B02284FF0FB
:1022A0000300F5D9B4E600BFF0684FF6FC71CFF635
:1022B000EE610840F060002002B0BDE8F08100004F
:1022C000411E0020B0EB116F1CBF012070474EF281
:1022D0001002CEF2000251604EF62351CEF2000100
:1022E000F0230B70072190601160704790F8841004
:1022F000012904BF022070472421C0F8881001681A
:102300000A680B6822F0005223F001030B600023DF
:1023100043660A602021C0F8881080F884300020CD
:1023200070470000704700007047000090F884205C
:10233000012A04BF02207047B0B52422C0F88820CB
:102340000268D0F864E0D2F800C01368BEF1000F54
:1023500023F001031360936823F0606341EA0301F3
:10236000916019D0936891684DF2740E490FC0F6D0
:10237000000E4DF27C051EF80140C0F60005695CB8
:10238000C3F34263E400B4FBF1F11EF80340EB5CDD
:10239000E500B5FBF3F301E001210123A0F86A1089
:1023A0002021A0F86830C2F800C0C0F888100021D1
:1023B00080F884100020B0BD90F88420012A04BF6A
:1023C00002207047B0B52422C0F888200268D0F8F7
:1023D00064E0D2F800C01368BEF1000F23F00103DF
:1023E0001360936823F0604341EA0301916019D0C0
:1023F000936891684DF2740E490FC0F6000E4DF2CD
:102400007C051EF80140C0F60005695CC3F3426319
:10241000E400B4FBF1F11EF80340EB5CE500B5FB12
:10242000F3F301E001210123A0F86A102021A0F8B4
:102430006830C2F800C0C0F88810002180F884100D
:102440000020B0BD704700007047000070470000DA
:1024500070B5026840F62F04D369116896681C4075
:10246000202C0BD101F0200406F080552D1916D038
:10247000416F61B3BDE87040084700BF40F60F05EB
:102480002B420CD00125C1F2000506EA050C40F2F2
:102490002015C0F200450D4015EB0C0524D1C46E8B
:1024A000DD0615D5012C13D111F0100510D0102127
:1024B00011629168490661D4B0F85C10B0F85E20F2
:1024C000B0F85E30002B18BF914240F03F8270BDE3
:1024D000DD0215D516F4800512D04FF4801111627B
:1024E000BDE87040FFF7B0BFDD0718BF11F480757D
:1024F00040F00E819D0706F0010E00F115811EE1EE
:102500001A0606D501F0800206F40006921940F082
:102510009D825A0640F1F08011F0400200F0EC80FC
:10252000016851E8001F026821F0400142E80013F1
:10253000DBB1016851E8001F026821F0400142E868
:10254000001393B1016851E8001F026821F04001B7
:1025500042E800134BB1016851E8001F026821F006
:10256000400142E80013002BDAD12021C0F8881086
:1025700000218167BDE8704000F072BED0F8801085
:1025800009684A6893B2002BA1D0B0F85C60B342EE
:102590009DD2A0F85E200968890600F1A18001683B
:1025A00051E8001F026821F4807142E80013DBB19A
:1025B000016851E8001F026821F4807142E80013AD
:1025C00093B1016851E8001F026821F4807142E86C
:1025D00000134BB1016851E8001F026821F48071BB
:1025E00042E80013002BDAD1016851E8021F0268AB
:1025F00021F0010142E80213BBB3016851E8021F58
:10260000026821F0010142E8021373B3016851E846
:10261000021F026821F0010142E802132BB3016896
:1026200051E8021F026821F0010142E80213002B69
:10263000DAD11AE0016851E8021F026821F0400176
:1026400042E80213DBB1016851E8021F026821F081
:10265000400142E8021393B1016851E8021F026889
:1026600021F0400142E802134BB1016851E8021F1A
:10267000026821F0400142E80213002BDAD1202148
:10268000C0F88C100021C166016851E8001F026883
:1026900021F0100142E80013DBB1016851E8001F8E
:1026A000026821F0100142E8001393B1016851E87B
:1026B000001F026821F0100142E800134BB10168CD
:1026C00051E8001F026821F0100142E80013002BBE
:1026D000DAD1D0F8801004460846FEF7E7FA204623
:1026E00002210167B0F85C10B0F85E20891A89B247
:1026F000BDE87040FFF716BE1A0240F1B38111F039
:10270000804200F0AF81BDE87040FFF79BBE00BF84
:1027100001251562D0F8905045F00105C0F89050A1
:102720009D0706F0010E0AD5BEF1000F07D0022466
:102730001462D0F8904044F00404C0F890405C0764
:102740000AD5BEF1000F07D004251562D0F89050CD
:1027500045F00205C0F890501D070CD501F020058A
:1027600055EA0C0507D008251562D0F8905045F0C1
:102770000805C0F890501D050BD511F0806508D0F4
:102780004FF400651562D0F8905045F02005C0F870
:102790009050D0F89050002D3FF499AE9B060BD589
:1027A00001F0200106F08053C91805D0416F19B11E
:1027B0000446884722682046D0F89010926801F0BD
:1027C000280102F04002891806D10446FFF73EFEB8
:1027D0000020C4F8900070BD016851E8001F026835
:1027E00021F4907142E80013DBB1016851E8001F49
:1027F000026821F4907142E8001393B1016851E836
:10280000001F026821F4907142E800134BB1016887
:1028100051E8001F026821F4907142E80013002B78
:10282000DAD14FF6FE71CEF6FF7100BF026852E8B2
:10283000022F03680A4043E80226C6B1026852E844
:10284000022F03680A4043E8022686B1026852E874
:10285000022F03680A4043E8022646B1026852E8A4
:10286000022F03680A4043E80226002EDED1C16E23
:10287000012924D1016851E8001F026821F01001EC
:1028800042E80013DBB1016851E8001F026821F043
:10289000100142E8001393B1016851E8001F02687B
:1028A00021F0100142E800134BB1016851E8001F0C
:1028B000026821F0100142E80013002BDAD1202138
:1028C000C0F88C100021C166026841679168490612
:1028D00040F1C480016851E8021F026821F0400104
:1028E00042E80213DBB1016851E8021F026821F0DF
:1028F000400142E8021393B1016851E8021F0268E7
:1029000021F0400142E802134BB1016851E8021F77
:10291000026821F0400142E80213002BDAD1D0F81E
:102920008010002900F09A8049F21552C0F600028A
:10293000044608468A63FEF7F1F900283FF4C7AD64
:10294000D4F88000816BBDE870400847891A00BF49
:10295000026852E8002F036822F4907243E80026D0
:10296000DEB1026852E8002F036822F4907243E857
:10297000002696B1026852E8002F036822F4907294
:1029800043E800264EB1026852E8002F036822F4A3
:10299000907243E80026002EDAD14FF6FE72CEF692
:1029A000FF7200BF036853E8023F0668134046E821
:1029B0000235C5B1036853E8023F0668134046E894
:1029C000023585B1036853E8023F0668134046E8C4
:1029D000023545B1036853E8023F0668134046E8F4
:1029E0000235002DDED12022C0F88C200022C266E4
:1029F000426700BF026852E8002F036822F010020D
:102A000043E80026DEB1026852E8002F036822F096
:102A1000100243E8002696B1026852E8002F0368CE
:102A200022F0100243E800264EB1026852E8002F5F
:102A3000036822F0100243E80026002EDAD10222B9
:102A400089B20267BDE87040FFF76CBC816F002956
:102A50003FF43DADBDE87040084700BFBDE87040A1
:102A6000FFF7F4BCDA017FF532ADB1F1FF3FC8BF2B
:102A700070BDBDE87040FFF757BC000010B5D0B185
:102A80000446D0F8880028B9002084F88400204645
:102A900000F026F82420C4F888002068A16A0268A3
:102AA00022F00102026011B1204606F009FC204626
:102AB00007F016FC10B1012010BD00BF2168486866
:102AC00020F490404860886820F02A0088600868F8
:102AD00040F0010220460A60BDE8104006F064BCE8
:102AE0002DE9F0419CB0044602A8002508304C2195
:102AF0001B95CDE91955CDE91755FDF7EAFC20687E
:102B000043F60001C4F20101884203D01CB0BDE8C5
:102B1000F08100BF0120CDE9020502A8FEF7DEFD2D
:102B2000002818BFFEF7BCF841F24C00C4F20200C6
:102B3000416940F2080841F4804141614169002641
:102B400001F48041019101990168C4F2020841F049
:102B500004010160006817A900F0040001900198C9
:102B6000302017900220189007201B9040F600009C
:102B7000C4F60000CDE91966FEF77EFB40F2701541
:102B8000C2F20005182080272021C5E900802846D0
:102B9000C5E90266C5E90476C5E906612E62FEF75D
:102BA00053F9002818BFFEF77BF8C4F88050AC62D8
:102BB00040F2D01508F11400C2F2000519211022CC
:102BC00085E8C7002846C5E90566C5E90766FEF73A
:102BD0003BF9002818BFFEF763F8252000210022EA
:102BE000E567AC62FEF7ACFC2520FEF797FC1CB055
:102BF000BDE8F0812DE9F04381B00446D0F88C00A7
:102C0000202809D10E4600294FF0010018BF002AE4
:102C100006D101B0BDE8F083022001B0BDE8F08329
:102C2000002022219946C4F89000C4F88C10E06678
:102C30001546FEF707FCA4F85C50A4F85E50A168A6
:102C40008046C9B1B1F1805F12D0B1F5805F17D174
:102C50002069FF27014600281CBF314600260028B6
:102C600008BF40F2FF17A4F8607035460E4617E023
:102C7000206918B13F2706E0206918B17F2702E0DC
:102C8000002700E0FF270025A4F8607008E000BFDF
:102C9000384006F8010BB4F85E000138A4F85E0075
:102CA000B4F85E0090B12046202100224346CDF8C2
:102CB000009007F0A1FD88B92068002E406AE7D196
:102CC000384025F8020B0026E5E700BF0020202150
:102CD000C4F88C1001B0BDE8F08300BF03202021B0
:102CE000C4F88C1001B0BDE8F0830000D0F88C303F
:102CF000202B0BD194460A4600294FF0010118BF42
:102D0000BCF1000F06D10846704700BF02210846FB
:102D1000704700BFB0B54FF0000EC0F86CE003681C
:102D200048F20004C4F20004A34202D05B681B0214
:102D300032D422218265A0F85CC0C0F890E0C0F8CF
:102D40008C10D0F88030002B50D049F20171C0F6C1
:102D5000000149F6650449F2255E03F12C07C0F62F
:102D60000004C0F6000E87E81240016800259D634C
:102D70002431044618466346FEF7F2F80146204621
:102D8000A1B31021C0F890102021C0F88C100121AF
:102D9000BDE8B04008467047036853E8003F046848
:102DA00043F0806344E800310029C2D0016851E853
:102DB000001F036841F0806143E80014002CB8D084
:102DC000016851E8001F036841F0806143E8001486
:102DD000002CAED0016851E8001F036841F080610B
:102DE00043E80014002CD7D1A3E700BF016929B341
:102DF000016851E8001F026841F4807142E8001345
:102E0000E3B1016851E8001F026841F4807142E8B3
:102E100000139BB1016851E8001F026841F4807102
:102E200042E8001353B1016851E8001F026841F401
:102E3000807142E80013002BDAD100BF016851E82D
:102E4000021F026841F0010142E80213BBB30168AE
:102E500051E8021F026841F0010142E8021373B316
:102E6000016851E8021F026841F0010142E80213C3
:102E70002BB3016851E8021F026841F0010142E8EA
:102E80000213002BDAD11AE0016851E8021F026830
:102E900041F0400142E80213DBB1016851E8021F32
:102EA000026841F0400142E8021393B1016851E821
:102EB000021F026841F0400142E802134BB1016871
:102EC00051E8021F026841F0400142E80213002B62
:102ED000DAD10021BDE8B04008467047D0F88C3008
:102EE000202B07D100294FF0010318BF002A05D17C
:102EF0001846704702231846704700BF80B500236C
:102F0000C366D0F800C048F20003C4F200039C4539
:102F100003D0DCF804301B0204D407F03BFB002094
:102F200080BD00BF036853E800CFD0F800E04CF04C
:102F300080634EE8003CBCF1000FEED0036853E81C
:102F400000CFD0F800E04CF080634EE8003CBCF1CC
:102F5000000FE2D0036853E800CFD0F800E04CF057
:102F600080634EE8003CBCF1000FD6D0036853E804
:102F700000CFD0F800E04CF080634EE8003CBCF19C
:102F8000000FCFD1C9E7000040F23021C2F20001AA
:102F9000884218BF7047B0B540F25410C2F200002A
:102FA00040F23025C41CC2F2000528462146012209
:102FB000012300F009F8284621460122BDE8B0406F
:102FC000FFF78CBF704700002DE9F04381B0044645
:102FD000D0F88800202809D100294FF0010018BF3F
:102FE000002A07D101B0BDE8F08300BF022001B084
:102FF000BDE8F0830020C4F8900021201D460E4655
:10300000C4F888001746FEF71DFAA4F85470A4F817
:103010005670A1688146B1F5805F02D12069002811
:1030200066D037460020B4F856202168002A67D0C1
:103030006A1C28D0002D53D0804600BFC869000606
:103040000AD4FEF7FFF9A0EB0900A84200F2848041
:1030500021680868F2E700BF17B117F8010B04E018
:1030600038F8020B00276FF35F208862B4F856002F
:103070000138A4F85600B4F856000028DED13FE02D
:10308000CA69120609D4CA69120606D4CA691206A8
:103090005CBFCA695FEA0262F2D51FB117F8012B63
:1030A00005E000BF30F8022B00276FF35F228A6231
:1030B000B4F85620013AA4F85620B4F85620002A55
:1030C000E1D11DE030F8022B00276FF35F228A6206
:1030D000B4F85620013AA4F85620B4F856207AB134
:1030E000CA69120636D5002FECD017F8012BEEE78F
:1030F00000273046B4F856202168002A7FF498AFA4
:10310000C86940061ED42DB3681C14D1C869400696
:103110002AD4C869400627D4C869400624D4C8699F
:1031200040064FF00000F1D50DE000BF20680168B7
:10313000C069400618D4FEF785F9A0EB0900A84243
:10314000F4D909E000202021C4F8881001B0BDE8BE
:10315000F08300BFFEF776F903202021C4F8881021
:1031600001B0BDE8F08300BF00202021C4F8881022
:1031700001B0BDE8F0830000D0F88830202B09D1E1
:10318000944600294FF0010218BFBCF1000F05D191
:103190001046704702221046704700BFB0B50022AB
:1031A00021230165A0F854C0A0F856C0C0F89020B3
:1031B000C0F88830C36F2BB349F22555C0F600051F
:1031C00049F6810449F6311E5D630568C0F60004C6
:1031D000C0F6000EC3E90B4E9A6305F128020446BF
:1031E00018466346FDF7BCFE0146204651B110214A
:1031F000C0F890102021C0F888100122BDE8B0402E
:1032000010467047016840220A6200BF016851E819
:10321000021F026841F0800142E80213DBB101683D
:1032200051E8021F026841F0800142E8021393B1A5
:10323000016851E8021F026841F0800142E8021370
:103240004BB1016851E8021F026841F0800142E879
:103250000213002BDAD10022BDE8B04010467047BF
:103260007047000070470000FEE700002DE9F041C4
:1032700016460A461C468119134441F218080139C2
:10328000013BC4F60008FDF7C9F906FB04F0410054
:103290004FF0100C4FF004024FF04003C8F810C07C
:1032A000C8F81020C8F81030C8F80020C8F810205E
:1032B000C8F80030C8F80020C8F81020C8F800305E
:1032C000C8F80020C8F81020C8F80030C8F800205E
:1032D000C8F81020C8F81030C8F80020C8F810202E
:1032E000C8F81030C8F80020C8F81020C8F800301E
:1032F000C8F80020C8F81020C8F81030C8F800201E
:1033000000F08C80069EB01E10F9024F46464746DC
:1033100046F8102FB4F1FF3FC8BF37463B60670641
:103320004546C8F80020326058BF3546A7064746D4
:103330002B60C8F80020326058BF37463B60E70674
:103340004746C8F80020326058BF37463B60270721
:103350004746C8F80020326058BF37463B606707D1
:103360004746C8F80020326058BF37463B60A70781
:103370004746C8F80020326058BF37463B60E70731
:103380004746C8F80020326008BF37463B60C8F89F
:10339000002090F9014047463260B4F1FF3FC8BFBA
:1033A00037463B6067064746C8F80020326058BF82
:1033B00037463B60A7064746C8F80020326058BF32
:1033C00037463B60E7064746C8F80020326058BFE2
:1033D00037463B6027074746C8F80020326058BF91
:1033E00037463B6067074746C8F80020326058BF41
:1033F00037463B60A7074746C8F80020326058BFF1
:1034000037463B60E707C8F80020326018BF4646E1
:1034100002393360C8F800207FF476AFC8F800C0E6
:10342000BDE8F08110B586B041F24C00C4F2020054
:10343000016841F2000441F0100101600068C4F627
:10344000000400F01000019001987E2001900120FE
:10345000CDE902000320049001A92046FDF70CFFEE
:10346000204610210122FDF7E7FF06B010BD000045
:10347000F0B581B041F22804C4F6000402256420AE
:103480002560FDF7E1FD322044F8105CFDF7DCFD1E
:10349000102504264027C82025602660276044F8B0
:1034A000106C266044F8107C44F8106C266044F8D8
:1034B000107C44F8106C266044F8107C44F8106CC2
:1034C0002660276044F8106C2660276044F8106C72
:1034D0002660276044F8106C2660276044F8106C62
:1034E0002660276044F8106C2660276044F8106C52
:1034F0002660276044F8106C2660276044F8106C42
:103500002660276044F8106C2660276044F8106C31
:103510002660276044F8106C2660276044F8106C21
:103520002660276044F8106C2660276044F8106C11
:103530002660276044F8106C2660276044F8106C01
:103540002660276044F8106C2660276044F8106CF1
:103550002660276044F8106C266044F8107C44F81C
:10356000106C44F8105C25602660276044F8106CED
:10357000266044F8107C44F8106C266044F8107CF7
:1035800044F8106C266044F8107C44F8106C2660F7
:10359000276044F8106C2660276044F8106C2660A1
:1035A00044F8107C44F8106C2660276044F8106CD6
:1035B0002660276044F8106C2660276044F8106C81
:1035C0002660276044F8106C2660276044F8106C71
:1035D0002660276044F8106C2660276044F8106C61
:1035E0002660276044F8106C2660276044F8106C51
:1035F0002660276044F8106C2660276044F8106C41
:103600002660276044F8106C2660276044F8106C30
:103610002660276044F8106C2660276044F8106C20
:103620002660276044F8106C2660276044F8106C10
:1036300044F8105C25602660276044F8106C266012
:1036400044F8107C44F8106C266044F8107C44F870
:10365000106C266044F8107C44F8106C26602760DB
:1036600044F8106C2660276044F8106C26602760D0
:1036700044F8106C2660276044F8106C26602760C0
:1036800044F8106C2660276044F8106C26602760B0
:1036900044F8106C2660276044F8106C26602760A0
:1036A00044F8106C2660276044F8106C2660276090
:1036B00044F8106C2660276044F8106C2660276080
:1036C00044F8106C2660276044F8106C2660276070
:1036D00044F8106C2660276044F8106C2660276060
:1036E00044F8106C2660276044F8106C266044F89B
:1036F000107C44F8106C2660276044F8106C44F885
:10370000105C25602660276044F8106C266044F841
:10371000107C44F8106C266044F8107C44F8106C5F
:10372000266044F8107C44F8106C2660276044F84A
:10373000106C2660276044F8106C266044F8107CFA
:1037400044F8106C2660276044F8106C26602760EF
:1037500044F8106C2660276044F8106C26602760DF
:1037600044F8106C2660276044F8106C26602760CF
:1037700044F8106C266044F8107C44F8106C266005
:1037800044F8107C44F8106C266044F8107C44F82F
:10379000106C2660276044F8106C2660276044F89F
:1037A000106C2660276044F8106C2660276044F88F
:1037B000106C2660276044F8106C2660276044F87F
:1037C000106C2660276044F8106C2660276044F86F
:1037D000106C44F8105C25602660276044F8106C7B
:1037E000266044F8107C44F8106C266044F8107C85
:1037F00044F8106C266044F8107C44F8106C266085
:10380000276044F8106C2660276044F8106C26602E
:10381000276044F8106C2660276044F8106C26601E
:10382000276044F8106C2660276044F8106C26600E
:10383000276044F8106C2660276044F8106C2660FE
:10384000276044F8106C2660276044F8106C2660EE
:10385000276044F8106C2660276044F8106C2660DE
:10386000276044F8106C2660276044F8106C2660CE
:10387000276044F8106C2660276044F8106C2660BE
:10388000276044F8106C2660276044F8106C2660AE
:1038900044F8107C44F8106C266044F8107C44F81E
:1038A000106C44F8105C25602660276044F8106CAA
:1038B000266044F8107C44F8106C266044F8107CB4
:1038C00044F8106C266044F8107C44F8106C2660B4
:1038D000276044F8106C2660276044F8106C26605E
:1038E00044F8107C44F8106C2660276044F8106C93
:1038F0002660276044F8106C2660276044F8106C3E
:103900002660276044F8106C266044F8107C44F868
:10391000106C2660276044F8106C2660276044F81D
:10392000106C2660276044F8106C2660276044F80D
:10393000106C2660276044F8106C2660276044F8FD
:10394000106C266044F8107C44F8106C266044F833
:10395000107C44F8106C2660276044F8106C2660D8
:10396000276044F8106C2660276044F8106C2660CD
:10397000276044F8106C44F8105C256026602760CE
:1039800044F8106C266044F8107C44F8106C2660F3
:1039900044F8107C44F8106C266044F8107C44F81D
:1039A000106C2660276044F8106C2660276044F88D
:1039B000106C2660276044F8106C2660276044F87D
:1039C000106C2660276044F8106C2660276044F86D
:1039D000106C2660276044F8106C2660276044F85D
:1039E000106C2660276044F8106C2660276044F84D
:1039F000106C2660276044F8106C2660276044F83D
:103A0000106C2660276044F8106C2660276044F82C
:103A1000106C2660276044F8106C2660276044F81C
:103A2000106C2660276044F8106C266044F8107C07
:103A300044F8106C2660276044F8106C26602760FC
:103A400044F8106C44F8105C25602660276044F848
:103A5000106C266044F8107C44F8106C266044F822
:103A6000107C44F8106C266044F8107C44F8106C0C
:103A70002660276044F8106C2660276044F8106CBC
:103A8000266044F8107C44F8106C2660276044F8E7
:103A9000106C2660276044F8106C2660276044F89C
:103AA000106C2660276044F8106C2660276044F88C
:103AB000106C2660276044F8106C2660276044F87C
:103AC000106C2660276044F8106C2660276044F86C
:103AD000106C2660276044F8106C2660276044F85C
:103AE000106C2660276044F8106C2660276044F84C
:103AF000106C2660276044F8106C2660276044F83C
:103B0000106C2660276044F8106C2660276044F82B
:103B1000106C44F8105C25602660276044F8106C37
:103B2000266044F8107C44F8106C266044F8107C41
:103B300044F8106C266044F8107C44F8106C266041
:103B4000276044F8106C2660276044F8106C2660EB
:103B5000276044F8106C2660276044F8106C2660DB
:103B6000276044F8106C2660276044F8106C2660CB
:103B7000276044F8106C2660276044F8106C2660BB
:103B8000276044F8106C2660276044F8106C2660AB
:103B9000276044F8106C2660276044F8106C26609B
:103BA000276044F8106C2660276044F8106C26608B
:103BB000276044F8106C2660276044F8106C26607B
:103BC00044F8107C44F8106C2660276044F8106CB0
:103BD0002660276044F8106C2660276044F8106C5B
:103BE00044F8105C25602660276044F8106C26605D
:103BF00044F8107C44F8106C266044F8107C44F8BB
:103C0000106C266044F8107C44F8106C2660276025
:103C100044F8106C2660276044F8106C266044F865
:103C2000107C44F8106C2660276044F8106C266005
:103C3000276044F8106C2660276044F8106C2660FA
:103C4000276044F8106C2660276044F8106C2660EA
:103C5000276044F8106C2660276044F8106C2660DA
:103C600044F8107C44F8106C2660276044F8106C0F
:103C70002660276044F8106C2660276044F8106CBA
:103C80002660276044F8106C2660276044F8106CAA
:103C90002660276044F8106C2660276044F8106C9A
:103CA000266044F8107C44F8106C2660276044F8C5
:103CB000106C44F8105C25602660276044F8106C96
:103CC000266044F8107C44F8106C266044F8107CA0
:103CD00044F8106C266044F8107C44F8106C2660A0
:103CE000276044F8106C2660276044F8106C26604A
:103CF000276044F8106C2660276044F8106C26603A
:103D0000276044F8106C2660276044F8106C266029
:103D1000276044F8106C2660276044F8106C266019
:103D2000276044F8106C2660276044F8106C266009
:103D3000276044F8106C2660276044F8106C2660F9
:103D4000276044F8106C2660276044F8106C2660E9
:103D5000276044F8106C2660276044F8106C2660D9
:103D600044F8107C44F8106C2660276044F8106C0E
:103D70002660276044F8106C266044F8107C44F8F4
:103D8000106C44F8105C25602660276044F8106CC5
:103D9000266044F8107C44F8106C266044F8107CCF
:103DA00044F8106C266044F8107C44F8106C2660CF
:103DB000276044F8106C2660276044F8106C266079
:103DC00044F8107C44F8106C2660276044F8106CAE
:103DD0002660276044F8106C2660276044F8106C59
:103DE0002660276044F8106C2660276044F8106C49
:103DF0002660276044F8106C2660276044F8106C39
:103E00002660276044F8106C2660276044F8106C28
:103E10002660276044F8106C2660276044F8106C18
:103E20002660276044F8106C2660276044F8106C08
:103E30002660276044F8106C2660276044F8106CF8
:103E40002660276044F8106C2660276044F8106CE8
:103E500044F8105C25602660276044F8106C2660EA
:103E600044F8107C44F8106C266044F8107C44F848
:103E7000106C266044F8107C44F8106C26602760B3
:103E800044F8106C2660276044F8106C26602760A8
:103E900044F8106C2660276044F8106C2660276098
:103EA00044F8106C2660276044F8106C2660276088
:103EB00044F8106C2660276044F8106C2660276078
:103EC00044F8106C2660276044F8106C2660276068
:103ED00044F8106C2660276044F8106C2660276058
:103EE00044F8106C2660276044F8106C2660276048
:103EF00044F8106C2660276044F8106C266044F883
:103F0000107C44F8106C2660276044F8106C266022
:103F100044F8107C44F8106C2660276044F8106C5C
:103F200044F8105C25602660276044F8106C266019
:103F300044F8107C44F8106C266044F8107C44F877
:103F4000106C266044F8107C44F8106C26602760E2
:103F500044F8106C2660276044F8106C266044F822
:103F6000107C44F8106C2660276044F8106C2660C2
:103F7000276044F8106C2660276044F8106C2660B7
:103F8000276044F8106C2660276044F8106C2660A7
:103F9000276044F8106C2660276044F8106C266097
:103FA000276044F8106C2660276044F8106C266087
:103FB000276044F8106C2660276044F8106C266077
:103FC000276044F8106C2660276044F8106C266067
:103FD000276044F8106C2660276044F8106C266057
:103FE000276044F8106C2660276044F8106C44F891
:103FF000105C25602660276044F8106C266044F849
:10400000107C44F8106C266044F8107C44F8106C66
:10401000266044F8107C44F8106C2660276044F851
:10402000106C2660276044F8106C2660276044F806
:10403000106C2660276044F8106C2660276044F8F6
:10404000106C2660276044F8106C2660276044F8E6
:10405000106C2660276044F8106C2660276044F8D6
:10406000106C2660276044F8106C2660276044F8C6
:10407000106C2660276044F8106C2660276044F8B6
:10408000106C2660276044F8106C2660276044F8A6
:10409000106C2660276044F8106C266044F8107C91
:1040A00044F8106C266044F8107C44F8106C2660CC
:1040B000276044F8106C2660276044F8106C44F8C0
:1040C000105C25602660276044F8106C266044F878
:1040D000107C44F8106C266044F8107C44F8106C96
:1040E000266044F8107C44F8106C2660276044F881
:1040F000106C2660276044F8106C266044F8107C31
:1041000044F8106C2660276044F8106C2660276025
:1041100044F8106C2660276044F8106C2660276015
:1041200044F8106C2660276044F8106C2660276005
:1041300044F8106C2660276044F8106C26602760F5
:1041400044F8106C2660276044F8106C26602760E5
:1041500044F8106C2660276044F8106C26602760D5
:1041600044F8106C2660276044F8106C26602760C5
:1041700044F8106C2660276044F8106C26602760B5
:1041800044F8106C2660276044F8106C44F8105C0A
:1041900025602660276044F8106C266044F8107C87
:1041A00044F8106C266044F8107C44F8106C2660CB
:1041B00044F8107C44F8106C2660276044F8106CBA
:1041C0002660276044F8106C2660276044F8106C65
:1041D0002660276044F8106C2660276044F8106C55
:1041E0002660276044F8106C2660276044F8106C45
:1041F0002660276044F8106C2660276044F8106C35
:104200002660276044F8106C2660276044F8106C24
:104210002660276044F8106C2660276044F8106C14
:104220002660276044F8106C2660276044F8106C04
:104230002660276044F8106C266044F8107C44F82F
:10424000106C266044F8107C44F8106C26602760DF
:1042500044F8106C266044F8107C44F8106C44F864
:10426000105C25602660276044F8106C266044F8D6
:10427000107C44F8106C266044F8107C44F8106CF4
:10428000266044F8107C44F8106C2660276044F8DF
:10429000106C2660276044F8106C266044F8107C8F
:1042A00044F8106C2660276044F8106C2660276084
:1042B00044F8106C2660276044F8106C2660276074
:1042C00044F8106C2660276044F8106C2660276064
:1042D00044F8106C2660276044F8106C2660276054
:1042E00044F8106C2660276044F8106C2660276044
:1042F00044F8106C2660276044F8106C2660276034
:1043000044F8106C2660276044F8106C2660276023
:1043100044F8106C2660276044F8106C2660276013
:1043200044F8106C2660276044F8106C44F8105C68
:1043300025602660276044F8106C266044F8107CE5
:1043400044F8106C266044F8107C44F8106C266029
:1043500044F8107C44F8106C2660276044F8106C18
:104360002660276044F8106C2660276044F8106CC3
:104370002660276044F8106C2660276044F8106CB3
:104380002660276044F8106C2660276044F8106CA3
:104390002660276044F8106C2660276044F8106C93
:1043A0002660276044F8106C2660276044F8106C83
:1043B0002660276044F8106C2660276044F8106C73
:1043C0002660276044F8106C2660276044F8106C63
:1043D0002660276044F8106C266044F8107C44F88E
:1043E000106C266044F8107C44F8106C266044F889
:1043F000107C44F8106C266044F8107C44F8106C73
:1044000044F8105C25602660276044F8106C266034
:1044100044F8107C44F8106C266044F8107C44F892
:10442000106C266044F8107C44F8106C26602760FD
:1044300044F8106C2660276044F8106C266044F83D
:10444000107C44F8106C2660276044F8106C2660DD
:10445000276044F8106C2660276044F8106C2660D2
:10446000276044F8106C2660276044F8106C2660C2
:10447000276044F8106C2660276044F8106C2660B2
:10448000276044F8106C2660276044F8106C2660A2
:10449000276044F8106C2660276044F8106C266092
:1044A000276044F8106C2660276044F8106C266082
:1044B000276044F8106C2660276044F8106C266072
:1044C000276044F8106C2660276044F8106C44F8AC
:1044D000105C25602660276044F8106C266044F864
:1044E000107C44F8106C266044F8107C44F8106C82
:1044F000266044F8107C44F8106C2660276044F86D
:10450000106C2660276044F8106C2660276044F821
:10451000106C2660276044F8106C2660276044F811
:10452000106C2660276044F8106C2660276044F801
:10453000106C2660276044F8106C2660276044F8F1
:10454000106C2660276044F8106C2660276044F8E1
:10455000106C2660276044F8106C2660276044F8D1
:10456000106C2660276044F8106C2660276044F8C1
:10457000106C266044F8107C44F8106C26602760AC
:1045800044F8106C2660276044F8106C26602760A1
:1045900044F8106C2660276044F8106C44F8105CF6
:1045A00025602660276044F8106C266044F8107C73
:1045B00044F8106C266044F8107C44F8106C2660B7
:1045C00044F8107C44F8106C2660276044F8106CA6
:1045D0002660276044F8106C266044F8107C44F88C
:1045E000106C2660276044F8106C2660276044F841
:1045F000106C2660276044F8106C2660276044F831
:10460000106C2660276044F8106C2660276044F820
:10461000106C2660276044F8106C2660276044F810
:10462000106C2660276044F8106C2660276044F800
:10463000106C2660276044F8106C2660276044F8F0
:10464000106C2660276044F8106C2660276044F8E0
:10465000106C2660276044F8106C2660276044F8D0
:10466000106C2660276044F8106C44F8105C2560DC
:104670002660276044F8106C266044F8107C44F8EB
:10468000106C266044F8107C44F8106C266044F8E6
:10469000107C44F8106C2660276044F8106C26608B
:1046A000276044F8106C2660276044F8106C266080
:1046B000276044F8106C2660276044F8106C266070
:1046C000276044F8106C2660276044F8106C266060
:1046D000276044F8106C2660276044F8106C266050
:1046E000276044F8106C2660276044F8106C266040
:1046F000276044F8106C2660276044F8106C266030
:10470000276044F8106C2660276044F8106C26601F
:1047100044F8107C44F8106C2660276044F8106C54
:104720002660276044F8106C2660276044F8106CFF
:10473000266044F8107C44F8106C44F8105C256046
:104740002660276044F8106C266044F8107C44F81A
:10475000106C266044F8107C44F8106C266044F815
:10476000107C44F8106C2660276044F8106C2660BA
:10477000276044F8106C266044F8107C44F8106CF4
:104780002660276044F8106C2660276044F8106C9F
:104790002660276044F8106C2660276044F8106C8F
:1047A0002660276044F8106C2660276044F8106C7F
:1047B0002660276044F8106C2660276044F8106C6F
:1047C0002660276044F8106C2660276044F8106C5F
:1047D0002660276044F8106C2660276044F8106C4F
:1047E0002660276044F8106C2660276044F8106C3F
:1047F000266044F8107C44F8106C266044F8107C65
:1048000044F8106C266044F8107C44F8106C44F8AE
:10481000105C25602660276044F8106C266044F820
:10482000107C44F8106C266044F8107C44F8106C3E
:10483000266044F8107C44F8106C2660276044F829
:10484000106C2660276044F8106C2660276044F8DE
:10485000106C2660276044F8106C2660276044F8CE
:10486000106C2660276044F8106C2660276044F8BE
:10487000106C2660276044F8106C2660276044F8AE
:10488000106C2660276044F8106C2660276044F89E
:10489000106C2660276044F8106C2660276044F88E
:1048A000106C2660276044F8106C2660276044F87E
:1048B000106C266044F8107C44F8106C2660276069
:1048C00044F8106C2660276044F8106C266044F8A9
:1048D000107C44F8106C2660276044F8106C44F893
:1048E000105C25602660276044F8106C266044F850
:1048F000107C44F8106C266044F8107C44F8106C6E
:10490000266044F8107C44F8106C2660276044F858
:10491000106C2660276044F8106C266044F8107C08
:1049200044F8106C2660276044F8106C26602760FD
:1049300044F8106C2660276044F8106C26602760ED
:1049400044F8106C2660276044F8106C26602760DD
:1049500044F8106C2660276044F8106C26602760CD
:1049600044F8106C2660276044F8106C26602760BD
:1049700044F8106C2660276044F8106C26602760AD
:1049800044F8106C2660276044F8106C266027609D
:1049900044F8106C2660276044F8106C266027608D
:1049A00044F8106C2660276044F8106C44F8105CE2
:1049B00025602660276044F8106C266044F8107C5F
:1049C00044F8106C266044F8107C44F8106C2660A3
:1049D00044F8107C44F8106C2660276044F8106C92
:1049E0002660276044F8106C2660276044F8106C3D
:1049F0002660276044F8106C2660276044F8106C2D
:104A00002660276044F8106C2660276044F8106C1C
:104A10002660276044F8106C2660276044F8106C0C
:104A20002660276044F8106C2660276044F8106CFC
:104A30002660276044F8106C2660276044F8106CEC
:104A40002660276044F8106C2660276044F8106CDC
:104A5000266044F8107C44F8106C2660276044F807
:104A6000106C2660276044F8106C266044F8107CB7
:104A700044F8106C266044F8107C44F8106C44F83C
:104A8000105C25602660276044F8106C266044F8AE
:104A9000107C44F8106C266044F8107C44F8106CCC
:104AA000266044F8107C44F8106C2660276044F8B7
:104AB000106C2660276044F8106C266044F8107C67
:104AC00044F8106C2660276044F8106C266027605C
:104AD00044F8106C2660276044F8106C266027604C
:104AE00044F8106C2660276044F8106C266027603C
:104AF00044F8106C2660276044F8106C266027602C
:104B000044F8106C2660276044F8106C266027601B
:104B100044F8106C2660276044F8106C266027600B
:104B200044F8106C2660276044F8106C26602760FB
:104B300044F8106C2660276044F8106C26602760EB
:104B400044F8106C2660276044F8106C44F8105C40
:104B500025602660276044F8106C266044F8107CBD
:104B600044F8106C266044F8107C44F8106C266001
:104B700044F8107C44F8106C2660276044F8106CF0
:104B80002660276044F8106C2660276044F8106C9B
:104B90002660276044F8106C2660276044F8106C8B
:104BA0002660276044F8106C2660276044F8106C7B
:104BB0002660276044F8106C2660276044F8106C6B
:104BC0002660276044F8106C2660276044F8106C5B
:104BD0002660276044F8106C2660276044F8106C4B
:104BE0002660276044F8106C2660276044F8106C3B
:104BF0002660276044F8106C2660276044F8106C2B
:104C0000266044F8107C44F8106C266044F8107C50
:104C100044F8106C266044F8107C44F8106C44F89A
:104C2000105C25602660276044F8106C266044F80C
:104C3000107C44F8106C266044F8107C44F8106C2A
:104C4000266044F8107C44F8106C2660276044F815
:104C5000106C2660276044F8106C266044F8107CC5
:104C600044F8106C2660276044F8106C26602760BA
:104C700044F8106C2660276044F8106C26602760AA
:104C800044F8106C2660276044F8106C266027609A
:104C900044F8106C2660276044F8106C266027608A
:104CA00044F8106C2660276044F8106C266027607A
:104CB00044F8106C2660276044F8106C266027606A
:104CC00044F8106C2660276044F8106C266027605A
:104CD00044F8106C2660276044F8106C266027604A
:104CE00044F8106C266044F8107C44F8106C44F8CA
:104CF000105CFCF7A9F9322025602660276044F893
:104D0000106C266044F8107C44F8106C266044F85F
:104D1000107C44F8106C266044F8107C44F8106C49
:104D20002660276044F8106C2660276044F8106CF9
:104D30002660276044F8106C2660276044F8106CE9
:104D40002660276044F8106C2660276044F8106CD9
:104D50002660276044F8106C2660276044F8106CC9
:104D60002660276044F8106C2660276044F8106CB9
:104D70002660276044F8106C2660276044F8106CA9
:104D80002660276044F8106C2660276044F8106C99
:104D90002660276044F8106C266044F8107C44F8C4
:104DA000106C2660276044F8106C2660276044F879
:104DB000106C2660276044F8106C2660276044F869
:104DC000106C44F8105C25602660276044F8106C75
:104DD000266044F8107C44F8106C266044F8107C7F
:104DE00044F8106C266044F8107C44F8106C26607F
:104DF000276044F8106C2660276044F8106C266029
:104E000044F8107C44F8106C2660276044F8106C5D
:104E10002660276044F8106C2660276044F8106C08
:104E20002660276044F8106C266044F8107C44F833
:104E3000106C2660276044F8106C266044F8107CE3
:104E400044F8106C266044F8107C44F8106C26601E
:104E5000276044F8106C266044F8107C44F8106C0D
:104E60002660276044F8106C2660276044F8106CB8
:104E7000266044F8107C44F8106C2660276044F8E3
:104E8000106C2660276044F8106C2660276044F898
:104E9000106C2660276044F8106C44F8105C2560A4
:104EA0002660276044F8106C266044F8107C44F8B3
:104EB000106C266044F8107C44F8106C266044F8AE
:104EC000107C44F8106C2660276044F8106C266053
:104ED000276044F8106C2660276044F8106C266048
:104EE000276044F8106C2660276044F8106C266038
:104EF000276044F8106C2660276044F8106C266028
:104F0000276044F8106C2660276044F8106C266017
:104F1000276044F8106C2660276044F8106C266007
:104F2000276044F8106C2660276044F8106C2660F7
:104F3000276044F8106C2660276044F8106C2660E7
:104F400044F8107C44F8106C2660276044F8106C1C
:104F50002660276044F8106C2660276044F8106CC7
:104F6000266044F8107C44F8106C44F8105C25600E
:104F70002660276044F8106C266044F8107C44F8E2
:104F8000106C266044F8107C44F8106C266044F8DD
:104F9000107C44F8106C2660276044F8106C266082
:104FA000276044F8106C266044F8107C44F8106CBC
:104FB0002660276044F8106C2660276044F8106C67
:104FC0002660276044F8106C2660276044F8106C57
:104FD0002660276044F8106C2660276044F8106C47
:104FE0002660276044F8106C266044F8107C44F872
:104FF000106C2660276044F8106C2660276044F827
:10500000106C2660276044F8106C266044F8107C11
:1050100044F8106C2660276044F8106C2660276006
:1050200044F8106C266044F8107C44F8106C26603C
:1050300044F8107C44F8106C266044F8107C44F866
:10504000106C44F8105CFBF7FFFF322025602660EF
:10505000276044F8106C266044F8107C44F8106C0B
:10506000266044F8107C44F8106C266044F8107CEC
:1050700044F8106C2660276044F8106C26602760A6
:1050800044F8106C2660276044F8106C2660276096
:1050900044F8106C2660276044F8106C2660276086
:1050A00044F8106C2660276044F8106C2660276076
:1050B00044F8106C2660276044F8106C2660276066
:1050C00044F8106C2660276044F8106C2660276056
:1050D00044F8106C2660276044F8106C2660276046
:1050E00044F8106C2660276044F8106C266044F881
:1050F000107C44F8106C2660276044F8106C266021
:10510000276044F8106C266044F8107C44F8106C5A
:105110002660276044F8106C44F8105C2560266017
:10512000276044F8106C266044F8107C44F8106C3A
:10513000266044F8107C44F8106C266044F8107C1B
:1051400044F8106C2660276044F8106C26602760D5
:1051500044F8106C266044F8107C44F8106C26600B
:10516000276044F8106C2660276044F8106C2660B5
:10517000276044F8106C2660276044F8106C2660A5
:10518000276044F8106C2660276044F8106C266095
:10519000276044F8106C2660276044F8106C266085
:1051A000276044F8106C266044F8107C44F8106CBA
:1051B0002660276044F8106C2660276044F8106C65
:1051C000266044F8107C44F8106C266044F8107C8B
:1051D00044F8106C266044F8107C44F8106C26608B
:1051E000276044F8106C266044F8107C44F8106C7A
:1051F00044F8105CFBF728FF32202560266027600A
:1052000044F8106C266044F8107C44F8106C26605A
:1052100044F8107C44F8106C266044F8107C44F884
:10522000106C2660276044F8106C2660276044F8F4
:10523000106C2660276044F8106C2660276044F8E4
:10524000106C2660276044F8106C2660276044F8D4
:10525000106C2660276044F8106C2660276044F8C4
:10526000106C2660276044F8106C2660276044F8B4
:10527000106C2660276044F8106C2660276044F8A4
:10528000106C2660276044F8106C2660276044F894
:10529000106C2660276044F8106C266044F8107C7F
:1052A00044F8106C2660276044F8106C2660276074
:1052B00044F8106C266044F8107C44F8106C2660AA
:1052C00044F8107C44F8106C44F8105C25602660AB
:1052D000276044F8106C266044F8107C44F8106C89
:1052E000266044F8107C44F8106C266044F8107C6A
:1052F00044F8106C2660276044F8106C2660276024
:1053000044F8106C266044F8107C44F8106C266059
:10531000276044F8106C2660276044F8106C266003
:10532000276044F8106C2660276044F8106C2660F3
:1053300044F8107C44F8106C266044F8107C44F863
:10534000106C2660276044F8106C266044F8107CCE
:1053500044F8106C2660276044F8106C26602760C3
:1053600044F8106C2660276044F8106C26602760B3
:1053700044F8106C2660276044F8106C26602760A3
:1053800044F8106C2660276044F8106C2660276093
:1053900044F8106C2660276044F8106C44F8105CE8
:1053A00025602660276044F8106C266044F8107C65
:1053B00044F8106C266044F8107C44F8106C2660A9
:1053C00044F8107C44F8106C2660276044F8106C98
:1053D0002660276044F8106C2660276044F8106C43
:1053E0002660276044F8106C2660276044F8106C33
:1053F0002660276044F8106C2660276044F8106C23
:105400002660276044F8106C2660276044F8106C12
:105410002660276044F8106C2660276044F8106C02
:105420002660276044F8106C2660276044F8106CF2
:105430002660276044F8106C266044F8107C44F81D
:10544000106C2660276044F8106C266044F8107CCD
:1054500044F8106C2660276044F8106C26602760C2
:1054600044F8106C266044F8107C44F8106C44F842
:10547000105C25602660276044F8106C266044F8B4
:10548000107C44F8106C266044F8107C44F8106CD2
:10549000266044F8107C44F8106C2660276044F8BD
:1054A000106C2660276044F8106C266044F8107C6D
:1054B00044F8106C2660276044F8106C2660276062
:1054C00044F8106C2660276044F8106C2660276052
:1054D00044F8106C2660276044F8106C2660276042
:1054E00044F8106C2660276044F8106C2660276032
:1054F00044F8106C2660276044F8106C2660276022
:1055000044F8106C2660276044F8106C2660276011
:1055100044F8106C266044F8107C44F8106C266047
:1055200044F8107C44F8106C266044F8107C44F871
:10553000106C2660276044F8106C266044F8107CDC
:1055400044F8106C44F8105C25602660276044F82D
:10555000106C266044F8107C44F8106C266044F807
:10556000107C44F8106C266044F8107C44F8106CF1
:105570002660276044F8106C2660276044F8106CA1
:105580002660276044F8106C2660276044F8106C91
:105590002660276044F8106C2660276044F8106C81
:1055A0002660276044F8106C2660276044F8106C71
:1055B0002660276044F8106C2660276044F8106C61
:1055C0002660276044F8106C2660276044F8106C51
:1055D0002660276044F8106C2660276044F8106C41
:1055E000266044F8107C44F8106C2660276044F86C
:1055F000106C266044F8107C44F8106C266027601C
:1056000044F8106C266044F8107C44F8106C266056
:1056100044F8107C44F8106C44F8105C2560266057
:10562000276044F8106C266044F8107C44F8106C35
:10563000266044F8107C44F8106C266044F8107C16
:1056400044F8106C2660276044F8106C26602760D0
:1056500044F8106C266044F8107C44F8106C266006
:10566000276044F8106C2660276044F8106C2660B0
:10567000276044F8106C2660276044F8106C2660A0
:10568000276044F8106C2660276044F8106C266090
:10569000276044F8106C2660276044F8106C266080
:1056A000276044F8106C2660276044F8106C266070
:1056B000276044F8106C2660276044F8106C266060
:1056C000276044F8106C266044F8107C44F8106C95
:1056D000266044F8107C44F8106C2660276044F87B
:1056E000106C266044F8107C44F8106C44F8105C90
:1056F000FBF7AAFC25602660276044F8106C266042
:1057000044F8107C44F8106C266044F8107C44F88F
:10571000106C266044F8107C44F8106C26602760FA
:1057200044F8106C2660276044F8106C26602760EF
:1057300044F8106C2660276044F8106C26602760DF
:1057400044F8106C2660276044F8106C26602760CF
:1057500044F8106C2660276044F8106C26602760BF
:1057600044F8106C2660276044F8106C26602760AF
:1057700044F8106C2660276044F8106C266027609F
:1057800044F8106C2660276044F8106C266044F8DA
:10579000107C44F8106C2660276044F8106C26607A
:1057A000276044F8106C2660276044F8106C26606F
:1057B000276044F8106C2660276044F8106C44F8A9
:1057C000105C25602660276044F8106C266044F861
:1057D000107C44F8106C266044F8107C44F8106C7F
:1057E000266044F8107C44F8106C2660276044F86A
:1057F000106C2660276044F8106C266044F8107C1A
:1058000044F8106C2660276044F8106C266027600E
:1058100044F8106C2660276044F8106C26602760FE
:1058200044F8106C2660276044F8106C26602760EE
:1058300044F8106C2660276044F8106C26602760DE
:1058400044F8106C2660276044F8106C26602760CE
:1058500044F8106C2660276044F8106C26602760BE
:1058600044F8106C2660276044F8106C26602760AE
:1058700044F8106C2660276044F8106C266027609E
:1058800044F8106C2660276044F8106C44F8105CF3
:1058900025602660276044F8106C266044F8107C70
:1058A00044F8106C266044F8107C44F8106C2660B4
:1058B00044F8107C44F8106C2660276044F8106CA3
:1058C0002660276044F8106C2660276044F8106C4E
:1058D0002660276044F8106C2660276044F8106C3E
:1058E0002660276044F8106C2660276044F8106C2E
:1058F0002660276044F8106C2660276044F8106C1E
:105900002660276044F8106C2660276044F8106C0D
:105910002660276044F8106C2660276044F8106CFD
:105920002660276044F8106C266044F8107C44F828
:10593000106C2660276044F8106C2660276044F8DD
:10594000106C2660276044F8106C2660276044F8CD
:10595000106C266044F8107C44F8106C44F8105C1D
:1059600025602660276044F8106C266044F8107C9F
:1059700044F8106C266044F8107C44F8106C2660E3
:1059800044F8107C44F8106C2660276044F8106CD2
:105990002660276044F8106C266044F8107C44F8B8
:1059A000106C2660276044F8106C2660276044F86D
:1059B000106C2660276044F8106C2660276044F85D
:1059C000106C2660276044F8106C2660276044F84D
:1059D000106C2660276044F8106C2660276044F83D
:1059E000106C2660276044F8106C2660276044F82D
:1059F000106C2660276044F8106C2660276044F81D
:105A0000106C2660276044F8106C2660276044F80C
:105A1000106C2660276044F8106C2660276044F8FC
:105A2000106C2660276044F8106C44F8105C256008
:105A30002660276044F8106C266044F8107C44F817
:105A4000106C266044F8107C44F8106C266044F812
:105A5000107C44F8106C2660276044F8106C2660B7
:105A6000276044F8106C2660276044F8106C2660AC
:105A7000276044F8106C2660276044F8106C26609C
:105A8000276044F8106C2660276044F8106C26608C
:105A9000276044F8106C2660276044F8106C26607C
:105AA000276044F8106C2660276044F8106C26606C
:105AB000276044F8106C2660276044F8106C26605C
:105AC000276044F8106C266044F8107C44F8106C91
:105AD000266044F8107C44F8106C2660276044F877
