:020000040800F2
:10000000B8050020ED0100087D2D000841250008FD
:10001000792D000849040008C13C000800000000D8
:10002000000000000000000000000000852D000816
:100030006504000800000000812D0008892D0008DB
:10004000070200080702000807020008070200086C
:10005000070200080702000807020008070200085C
:1000600007020008070200081D0500084D040008EB
:1000700059040008070200080702000807020008E8
:10008000070200080702000807020008070200082C
:1000900007020008070200080702000825050008FB
:1000A000070200080702000807020008070200080C
:1000B00007020008070200080702000807020008FC
:1000C00007020008070200080702000807020008EC
:1000D00007020008A93B0008070200080702000801
:1000E00007020008070200080702000807020008CC
:1000F00007020008070200080702000807020008BC
:1001000007020008070200080702000807020008AB
:10011000070200080702000807020008070200089B
:10012000070200080702000807020008070200088B
:10013000070200080702000807020008070200087B
:10014000070200080702000807020008070200086B
:10015000070200080702000807020008070200085B
:10016000070200080702000807020008070200084B
:10017000070200080702000807020008070200083B
:10018000070200080702000807020008070200082B
:10019000070200080000000007020008070200082C
:1001A000070200080702000807020008070200080B
:1001B00007020008070200080702000807020008FB
:1001C00007020008070200080702000807020008EB
:1001D0000702000807020008DFF80CD000F0C0F8A2
:1001E00000480047A9420008B8050020064880479B
:1001F00006480047FEE7FEE7FEE7FEE7FEE7FEE70C
:10020000FEE7FEE7FEE7FEE7152E0008D90100082D
:100210002DE9F05F0546002092469B46884606463B
:10022000814640241BE0284641464746224600F0CE
:1002300086F853465A46C01A914110D311461846C3
:10024000224600F06DF82D1A67EB01084F46224652
:100250000120002100F064F817EB00094E41201E38
:10026000A4F10104DFDC484631462A464346BDE896
:10027000F09FD2B201E000F8012B491EFBD270477B
:100280000022F6E710B513460A4604461946FFF762
:10029000F0FF204610BD10B5044604E00B7800F8CE
:1002A000013B03B1491C521EF8D2204610BD421C2E
:1002B00010F8011B0029FBD1801A704730B50446A5
:1002C0000020034600E05B1C934203D2E05CCD5C5F
:1002D000401BF8D030BD30B505460020034600E095
:1002E0005B1C934205D2EC5CC85C201A01D1002C47
:1002F000F6D130BD30B50B46014600202022012446
:1003000009E021FA02F59D4205D303FA02F5491BE3
:1003100004FA02F52844151EA2F10102F1DC30BDF9
:10032000202A04DB203A00FA02F1002070479140B5
:10033000C2F1200320FA03F3194390407047202AAA
:1003400004DB203A21FA02F00021704721FA02F37F
:10035000D040C2F120029140084319467047000086
:100360001CB509480090094801900546009C06E02C
:10037000E06840F0010394E8070098471034AC426D
:10038000F6D3FFF72DFF0000D8E80008F8E80008D2
:100390002DE9F04107460E4641F228055020394626
:1003A00098461446C4F6000502F0FCFA5120314686
:1003B00002F0F8FA5220214602F0F4FA53204146A6
:1003C00002F0F0FAB8B2A1B202F0D6FB1020002180
:1003D00004220123A5F110044027286081F00706BC
:1003E00003FA06F616F0700F20462A6008BF28466A
:1003F000072901F10101076045F8102CEED3002117
:1004000004224023072901F101012A602B6045F8ED
:10041000102CF7D3002104220123402781F007008C
:1004200003FA00F010F0220F20462A6008BF284689
:10043000072901F10101076045F8102CEED31020C7
:1004400045F8100CBDE8F081FEE7000040F24800DE
:10045000C2F2000000F0F0B840F2A800C2F20000C2
:1004600000F0EAB8704700002DE9F04381B09046F3
:100470000A4641F2180901461346C4F60009FFF77F
:1004800087FF1020C9F8100000200421012240231A
:1004900080F007044D4602FA04F445F8101F14F0EA
:1004A000720F18BF4D46072800F101002B60C9F8F4
:1004B0000010EDD3C8F3072000210422402300BF21
:1004C00081F007054F4620FA05F547F8102FED0794
:1004D00018BF4F46072901F101013B60C9F8002010
:1004E000EED35FFA88F000210422402381F0070751
:1004F0004E4620FA07F746F8102FFF0718BF4E4662
:10050000072901F101013360C9F80020EED3102062
:10051000C9F8000001B0BDE8F0830000102000F031
:10052000ADBA000080B5202000F0A8FA4020BDE858
:10053000804000F0A3BA0000EFF3108072B600BF55
:10054000FEE70000014690F82500022827D180B57B
:100550000868D1E910CE8A6C036823F00E030360AB
:10056000136823F480731360026822F001020260B2
:100570000EF01F00012202FA00F0CCF80400D1E9CD
:1005800013205060486D30B1026822F4807202601E
:10059000D1E9160242600020BDE8804002E004205C
:1005A000C8630120012281F82520002281F824203F
:1005B0007047000090F82510022930D180B50168FD
:1005C000D0E910CE826C0B6823F00E030B600B6831
:1005D00023F001030B60116821F4807111600EF0AB
:1005E0001F02012101FA02F2CCF80420D0E91332F3
:1005F0005A60426D32B1136823F480731360D0E9FE
:100600001623536080F82510826B002180F8241097
:100610000AB190470021BDE8804008467047042198
:10062000C1630121002280F8251080F824200846AB
:1006300070470000C06B7047B0B5D0E910C30268C6
:10064000DCF8001003F01F030424D2F800E09C4003
:100650000C4218BF1EF004051BD102249C400C4222
:1006600018BF1EF0020520D1D94009071CD51EF085
:10067000080108BFB0BD116821F00E011160012111
:1006800001FA03F2CCF80420C16380F82510416B15
:1006900018E01168890603D4116821F00401116083
:1006A000CCF80440016B91B9B0BD1168890606D43D
:1006B000116821F00A011160012180F82510CCF8A1
:1006C0000440C16A0022002980F82420ECD0BDE853
:1006D000B040084700284FF0010C00F08A802DE957
:1006E000F04F0021C4F2020103684FF6F83201F521
:1006F000816ECBF6FD72734538BF02F580624CF611
:10070000CD441A44CCF6CC44A2FB042903F0FC02ED
:10071000A2F10802A2FB042800F1080B01F5806495
:100720006FF003069BE8040C3CBF0024C4F20204F3
:1007300001F5026506EA9906734538BF01F50065C3
:10074000C0E91046022480F825401C6847F6F0777F
:1007500024EA0707D0E9054147EA0A0747EA0B07F9
:10076000D0E907E93C43214341EA0E0141EA09018E
:10077000114319600021C4F2020101F50861C1644E
:10078000C8F3041173190CFA01F58364B2F5804FB4
:10079000056504BF00214160476840F68401FAB254
:1007A0001A607B1EC4F20201032B0D6012D8013ABD
:1007B00001EB8203002702F01F02012643F87C7F31
:1007C00001F1BC0706FA02F2C0E91537C265C1F8AB
:1007D000C02003E00021C0E91511C1654FF0000CF5
:1007E0000121C0F83CC080F8251080F824C0BDE885
:1007F000F04F60467047000090F824C0BCF1010F34
:1008000043D04FF0010C80F824C090F825C0BCF113
:10081000010F37D12DE9F0414FF0020C80F825C0CF
:100820004FF0000CC0F83CC0D0F800C000F14C0EF6
:100830009EE83040DCF80060BEF1000F26F00106B3
:10084000CCF8006065601CBFD0E916456560D0E952
:100850001056846806F01F060127D0F8308007FA8A
:1008600006F66E60CCF80430102C0B4604BF13461D
:100870000A46B8F1000FCCF80830CCF80C2006D0AE
:100880000E210BE0002180F8241002207047DCF8D4
:10089000001021F00401CCF800100A21DCF800203F
:1008A0001143CCF80010806C0168C90303D50168BE
:1008B00041F480710160BEF1000F05D0DEF8000048
:1008C00040F48070CEF80000DCF8000040F0010039
:1008D000CCF800000020BDE8F0810000B0B504466F
:1008E00000F0B4F9054640F22C00C2F200000068A6
:1008F000611C18BF044400BF00F0A8F9401BA042CF
:10090000FAD3B0BD80B5402874D020283CD0102840
:1009100040F0B3800520FFF7E1FF002042F20F71A5
:10092000884200F1010000BFFAD34FF0904010213F
:1009300000F080F9002840F0A08040F20E00C2F2E2
:1009400000000078002800F0988040F29D10C2F26C
:100950000000007801280FD140F24200C2F20000EE
:1009600001784A1C022988BF0022027040F241002F
:10097000C2F20000012101704FF09040102100F000
:1009800059F90028F8D078E00520FFF7A7FF0020EC
:1009900042F20F71884200F1010000BFFAD34FF01C
:1009A0009040202100F046F9002866D140F20F0067
:1009B000C2F20000007800285FD040F29D10C2F221
:1009C0000000017801290DD10221017040F241009F
:1009D000C2F200000121017040F24200C2F20000A8
:1009E000002101704FF09040202100F023F90028F1
:1009F000F8D042E00520FFF771FF002042F20F71AE
:100A0000884200F1010000BFFAD34FF0904040212E
:100A100000F010F988BB40F21000C2F2000000782C
:100A2000002808BF80BD40F29D10C2F2000001788E
:100A3000012907D10421017040F24101C2F20001F5
:100A400001220A700078042810D140F20D00C2F291
:100A5000000001784A1C022988BF0022027040F27F
:100A60004100C2F200000121017000BF4FF0904030
:100A7000402100F0DFF80028F8D080BD40F214419A
:100A8000C4F201010A68024214BF08607047FFF710
:100A900039BF00002DE9F04F83B00E68002E00F042
:100AA000C68000F1200241F2004C009200F138476C
:100AB000C4F6000C06224FEAB725604508BF0522A0
:100AC000052D38BF4FEAB722002500274FF0000A56
:100AD00001920AE00E680AF1010A36FA0AF207F1F9
:100AE000020705F1040500F0A280012202FA0AFCC7
:100AF00016EA0C09EED0D1F804B003220BF003087B
:100B0000A8F10106012E02FA07F610D8D0F808E085
:100B1000CC682EEA0602BC40224382604268CBF3D6
:100B2000001422EA0C0204FA0AF422434260B8F1EB
:100B3000030F1ED0C2688C68B243BC402243B8F198
:100B4000020FC26015D16FF00302009C02EA5A0B3B
:100B500054F80BC005F01C030F22D1F8108002FAE4
:100B600003FE2CEA0E0C08FA03F343EA0C0344F8E4
:100B70000B3002684B68B24303F00306BE403243B9
:100B800013F4403F0260A5D041F26003C4F20203B7
:100B90001A6840F2004E42F001021A601A68C4F26C
:100BA000010E02F001020292029A2AF003024FF6AD
:100BB000084C7244CFF6FF7C52F80C3005F00C065E
:100BC0000F24B440A343019C04FA06F6334342F8D1
:100BD0000C30DEF808204B6842EA090640F20C4C63
:100BE000DC0258BF22EA0906CEF80860C4F2010C04
:100BF000DCF800209C0242EA090658BF22EA0906F6
:100C0000CCF80060DEF804209C0342EA090658BFD5
:100C100022EA0906CEF80460DEF80020DB0342EA8F
:100C2000090658BF22EA0906CEF8006052E703B071
:100C3000BDE8F08F0069084018BF01207047000030
:100C40001823002A08BF2823C150704740F2B4106F
:100C5000C2F200000068704740F22C0040F2B4116C
:100C6000C2F20000C2F2000100680A681044086085
:100C70007047000080B5032000F098F8002000F0D5
:100C800009F800281CBF012080BD00F031F80020C9
:100C900080BD000040F22C01C2F200010968002969
:100CA00004BF0120704710B5044640F20400C2F2B0
:100CB00000004FF47A720068B2FBF1F1B0FBF1F082
:100CC00000F004FF01460F2C4FF001000ED8002960
:100CD00018BF10BD4FF0FF302146002200F03AF857
:100CE00040F230010020C2F200010C6010BD000093
:100CF00080B582B041F25800C4F20200816841F030
:100D000001018160816801F001010191019901688F
:100D100041F080510160006800F080500090009820
:100D2000052000F043F802B0BDE8804000F0C8B8EC
:100D3000002848BF704700F01F01012202FA01F1AC
:100D40001C2202EAD0004EF20012CEF200028150C4
:100D50007047000010B54EF60C5CCEF2000CDCF8CB
:100D60000030C3F3022E8EF00704042C28BF0424A5
:100D7000BEF103034FF0FF3E0EFA04F438BF002328
:100D8000A14399400EFA03F39A43114300F16042E4
:100D900000F00F03090102F56442043B634400289C
:100DA00048BF03F10C02117010BD00004EF60C514B
:100DB000CEF200010A684FF6FF031A4060F30A22E0
:100DC00042F0806040F0FD700860704747F2000C10
:100DD000C4F2000CDCF80020B0F5007F35D000280C
:100DE00066D1DCF8800002F4C06220F48070B2F5B5
:100DF000806FCCF8800026D1DCF80000012262F37D
:100E00004A20CCF8000040F20400C2F20000006862
:100E1000322358434DF68363C4F21B33A0FB030314
:100E200002EB9340002200BFDCF81410013842F1BD
:100E30000003490501D5002BF6D1DCF8140040056C
:100E400044BF0320704700207047DCF8800002F4A4
:100E5000C06140F48070B1F5806FCCF88000F2D1B1
:100E6000DCF80000012161F34A20CCF8000040F2D8
:100E70000400C2F200000068322250434DF6836243
:100E8000C4F21B32A0FB020201EB9240002200BF21
:100E9000DCF81410013842F10003490501D5002B9C
:100EA000F6D1DCF81400400544BF03207047CAE7C0
:100EB000022060F34A22CCF8002000207047000096
:100EC00047F20800C4F20000016841F4804101606B
:100ED000704700002DE9F04381B08146807841F2EF
:100EE00088060007C4F2020601D400204AE056F842
:100EF000300C5FEAC0080BD456F8300C40F080503C
:100F000046F8300C56F8300C00F0805000900098F5
:100F100047F20004C4F20004206840F480702060AE
:100F2000FFF794FE054600BF2068C70508D4FFF709
:100F30008DFE401B0328F7D30320002F03D418E0B5
:100F40000020002F15D5B16811F4407100F02981FF
:100F5000D9F85020914240F02981C90740F03581ED
:100F600038B9B068D9F8501020F440700843B06028
:100F70000020B8F1000F05D456F8301C21F0805144
:100F800046F8301CD9F80010CA0716D18A071DD4BC
:100F90004A0724D40A072BD4CA0632D48A0639D485
:100FA0004A0640D40A0647D4CA054ED48A0355D40B
:100FB0008A055CD44A0563D472E03268D9F80430FB
:100FC00022F003021A4332608A07E1D53268D9F869
:100FD000083022F00C021A4332604A07DAD5326830
:100FE000D9F80C3022F030021A4332600A07D3D508
:100FF0003268D9F8103022F0C0021A433260CA06B3
:10100000CCD53268D9F8143022F440721A433260D9
:101010008A06C5D53268D9F8183022F440621A43DE
:1010200032604A06BED53268D9F81C3022F44052EC
:101030001A4332600A06B7D53268D9F8203022F454
:1010400040421A433260CA05B0D53268D9F824301C
:1010500022F440321A4332608A03A9D57269D9F862
:10106000283022F003021A4372618A05A2D5326841
:10107000D9F82C3022F440221A4332604A050FD5A9
:101080003268D9F8303022F440121A43B3F5801F89
:10109000326005D156F87C2C42F4801246F87C2C44
:1010A0000A050FD53268D9F8343022F440021A43C9
:1010B000B3F5800F326005D156F87C2C42F48012D3
:1010C00046F87C2CCA040FD53268D9F8383022F0A3
:1010D00040721A43B3F1807F326005D156F87C2C00
:1010E00042F4801246F87C2C8A040FD53268D9F875
:1010F0003C3022F040621A43B3F1006F326005D1F8
:1011000056F87C2C42F4801246F87C2C4A040FD509
:101110003268D9F8403022F040621A43B3F1006FD0
:10112000326005D156F87C2C42F4801246F87C2CB3
:101130000A040FD53268D9F8443022F040521A43DD
:10114000B3F1805F326005D156F87C2C42F48032D6
:1011500046F87C2CCA030FD53268D9F8483022F003
:1011600040421A43B3F1804F326005D156F87C2CCF
:1011700042F4803246F87C2C49030FD57169D9F8C6
:101180004C2021F440111143B2F5001F716105D1CB
:1011900056F87C1C41F4801146F87C1C01B0BDE877
:1011A000F0830021C9073FF4DBAE0EE0B168B268FE
:1011B00021F4407142F48032B260B26822F480328D
:1011C000B260B160C9073FF4CBAE0446FFF73EFD05
:1011D000054641F2893700BFB068800709D4FFF7A0
:1011E00035FD401BB842F7D3032000287FF4C1AE81
:1011F000B7E6204600287FF4BCAEB2E62DE9F04702
:10120000002800F0FE8042F2000AC4F2020A0446FE
:10121000DAF800000D4600F00F0088420DD2DAF82F
:10122000000020F00F002843CAF80000DAF80000A0
:1012300000F00F00A84240F0E480216841F2080865
:10124000C807C4F202080CD14FF0000920688107DA
:101250004BD4B9F1000F61D0D8F8000020F0F000B5
:101260005AE0606858F8082C022800F0C88003286B
:1012700040F0CA80920140F1C480D8F80420D8F828
:10128000043042F20046C3F3031302F00302D8F81D
:1012900004700133C0F2F406032A04BF41F20026B1
:1012A000C0F27A06B6FBF3F2D8F80430C7F306278B
:1012B0007A43C3F34163022707EB4303B2FBF3F224
:1012C0004BF20043C0F2C4439A4240F2E480D8F8A3
:1012D000002012F0F00F00F0D480890740F1DB808D
:1012E000A168002940F0D780CBE0410705D5D8F8A8
:1012F000001041F4E061C8F80010000706D5D8F8E6
:101300000000072161F30D20C8F80000D8F80000A4
:10131000A16820F0F0000843C8F80000DAF80000E7
:1013200000F00F00A84219D9DAF8000020F00F00F1
:101330002843CAF80000FFF789FC064641F28837C7
:10134000DAF8000000F00F00A84207D0FFF77EFC9B
:10135000801BB842F4D90320BDE8F087206841071C
:1013600007D5D8F80010E26821F4E0611143C8F80D
:101370000010000708D5D8F80000216920F460505B
:1013800040EAC100C8F80000D8F8000042F200416D
:10139000C0F2F40100F00C000428084600F09C8024
:1013A000D8F8000000F00C00082841F20020C0F23C
:1013B0007A0000F09180D8F8002002F00C020C2A8C
:1013C00040F08980D8F80420D8F8043002F00302F5
:1013D000C3F30313D8F804700133032A08BF01468E
:1013E000B1FBF3F0D8F80410C7F30627C1F341614D
:1013F0000222784302EB4101B0FBF1F06CE0910373
:1014000004D40120BDE8F0875105FAD5D8F80010C2
:1014100001F00C0104293ED0D8F8001001F00C01B5
:10142000082938D0D8F8001001F00C010C2932D16D
:10143000D8F80410D8F8042042F20047C2F303128F
:1014400001F00301D8F804300132C0F2F407032997
:1014500004BF41F20027C0F27A07B7FBF2F1D8F8D7
:101460000420C3F306235943C2F34162022303EB72
:101470004202B1FBF2F14BF20042C0F2C44291428F
:1014800009D9D8F80010082262F307114FF00109BA
:10149000C8F8001001E04FF00009D8F8001021F062
:1014A00003010843C8F80000FFF7D0FB064641F2ED
:1014B000883700BFD8F80000616800F00C00B0EB7E
:1014C000810F3FF4C3AEFFF7C1FB801BB842F1D9D7
:1014D0000320BDE8F0870020D8F8001044F6A802E9
:1014E000C1F30311C0F60002515C40F2040201F0A6
:1014F0001F0120FA01F140F23000C2F20000006842
:10150000C2F200021160BDE8F047FFF7C3BB000064
:1015100040F2040041F20801C2F20000C4F20201EC
:101520000068096844F6B802C1F30221C0F600025F
:10153000515C01F01F01C8407047000040F20400F8
:1015400041F20801C2F20000C4F202010068096819
:1015500044F6B802C1F3C221C0F60002515C01F0AA
:101560001F01C8407047000041F20C01C4F20201A3
:1015700051F8040C42F20042C0F2F40200F00C00F8
:101580000428104608BF704751F8040C00F00C0006
:10159000082841F20020C0F27A0025D051F8043C1E
:1015A00003F00C030C2B1CBF0020704780B5D1F852
:1015B00000C00B680CF0030CC3F3031E0B680EF1A4
:1015C000010EBCF1030F08BF02460968B2FBFEF032
:1015D000C3F30623C1F341610222584302EB4101E8
:1015E000B0FBF1F0BDE8804070470000F0B585B079
:1015F000064602200190032041F2080703900020D4
:10160000C4F2020702901446C6F3034001227B6C29
:101610000D468102824001F1904043EA0201796463
:10162000B1B20091C6F3075104916946FFF732FA4F
:10163000F00006D4386844EA050120F0FE40084373
:10164000386005B0F0BD0000002804BF01207047DD
:101650002DE9F04182B00446007841F20006C0074F
:10166000C4F202061DD12078800737D42078000705
:101670005AD42078400778D42078800600F1BF80C3
:10168000E569002D00F01E82B06800F00C000C2807
:1016900040F01E81012D40F09881012002B0BDE88C
:1016A000F081B06800F00C01F068082954D00322E2
:1016B00081F00C0122EA00000844B0FA80F04009F1
:1016C0004AD165683068B5F5A02F00F0C680B5F541
:1016D000803F40F0C98040F48030CBE0B068F168D2
:1016E00000F00C00042864D001F0030180F00C002D
:1016F00081F002010844B0FA80F0400959D1E16854
:101700003068002900F0D18040F480703060FFF72D
:101710009DFA05463068400500F1FC80FFF796FA17
:10172000401B0228F6D936E16169D6F894000029F9
:1017300000F0818040F00100C6F89400FFF786FABF
:10174000054600BFD6F89400800792D4FFF77EFAD2
:10175000401B0228F6D91EE1306880037FF583AF75
:10176000606800287FF47FAF39E0B06D5FEAC008A1
:1017700008D4B06D40F08050B065B06D00F080507E
:101780000190019847F20007C4F200073868C005CD
:1017900029D4386840F480703860FFF757FA05465E
:1017A0003868C0051FD4FFF751FA401B0228F7D94B
:1017B000F1E03068400501D5E06880B170682169CA
:1017C00020F0FE4040EA0160706040F23000C2F25A
:1017D00000000068FFF75EFA00283FF447AF0120E1
:1017E00002B0BDE8F081A568D6F89000052D00F0A4
:1017F000AE80012D40F0B48040F00100B8E0A16956
:10180000D6F89800002900F08D8040F00100C6F85D
:101810009800FFF71BFA0546D6F8980080073FF5B9
:101820002FAFFFF713FA401B02284FF00300F3D944
:1018300002B0BDE8F08120F00100C6F89400FFF787
:1018400005FA0546D6F8940080077FF512AFFFF73A
:10185000FDF9401B0228F5D99DE040F4802030605E
:10186000306840F4803005E020F48030306030682B
:1018700020F480203060FFF7E9F9002D054610D0F4
:10188000306880033FF5EFAEFFF7E0F9401B6428B6
:10189000F6D980E0FFF7DAF9401B64284FF0030027
:1018A000C6D830688003F5D4DDE620F4807030605F
:1018B000FFF7CCF9054600BF306840057FF5D6AE8E
:1018C000FFF7C4F9401B02284FF00300F4D9AFE73B
:1018D000306820F080703060FFF7B8F9022D0546BF
:1018E0000CD100BF3068800140F1A880FFF7AEF94D
:1018F000401B02284FF00300F4D999E730688001BB
:1019000040F1D980FFF7A2F9401B02284FF00300F5
:10191000F4D98DE77068216920F0FE4040EA01604B
:101920007060A3E620F00100C6F89800FFF78EF97A
:10193000054600BFD6F8980080077FF5A1AEFFF7F7
:1019400085F9401B02284FF00300F3D970E740F0FF
:101950000400C6F89000D6F8900040F0010007E0BF
:1019600020F00100C6F89000D6F8900020F00400A6
:10197000C6F89000FFF76AF9002D054641F2883756
:1019800016D000BFD6F89000800715D4FFF75EF997
:10199000401BB842F6D9032002B0BDE8F08100BF79
:1019A000FFF754F9401BB8424FF003003FF640AF39
:1019B000D6F890008007F3D4B8F1000F3FF55CAE85
:1019C000B06D20F08050B06556E6F068216A00F0F6
:1019D00003028A427FF403AF626A6FF00F0300F0E4
:1019E000F00103EB021291427FF4F9AEA16A00F418
:1019F000FE42B2EB012F7FF4F2AEE16A00F07842D2
:101A0000B2EBC16F7FF4EBAE226B0023CFF6E07335
:101A100003EA025200F4C001A2F5001291427FF4E1
:101A2000DEAE616B4FF07E4202EA016100F0C06001
:101A300001F17E4188427FF4D2AE43E0F06848F283
:101A40000C01C0F29F1104F1200700EA010C8ECFB7
:101A50006FF00F00D4E90C5400EB02100022CFF617
:101A6000E07241EA0C0102EA05520843A2F50012B5
:101A70004FF07E4540EA032005EA0465104305F176
:101A80007E4540EAC7602843F060306840F08070CF
:101A90003060F06840F08070F060FFF7D7F80446DF
:101AA000306880010ED4FFF7D1F8001B02284FF0F8
:101AB0000300F5D9BCE6F0684FF6FC71CFF6EE6195
:101AC0000840F060002002B0BDE8F081411E002017
:101AD000B0EB116F1CBF012070474EF21002CEF226
:101AE000000251604EF62351CEF20001F0230B703C
:101AF000072190601160704790F88410012904BF9D
:101B0000022070472421C0F8881001680A680B6819
:101B100022F0005223F001030B60002343660A60A9
:101B20002021C0F8881080F8843000207047000021
:101B3000704700007047000090F88420012A04BF1D
:101B400002207047B0B50123242280F88430C0F809
:101B500088200268D0F864E0D2F800C01468BEF1B2
:101B6000000F24F001041460946824F0606441EADA
:101B7000040191601BD09168936844F69C4E5B0F02
:101B8000C0F6000E44F6A4451EF80340C0F600055A
:101B9000EB5CE400B4FBF3F3C1F34261A0F86A30FC
:101BA0001EF80130695CDB00B3FBF1F301E0A0F843
:101BB0006A302021A0F86830C2F800C0C0F8881050
:101BC000002180F884100020B0BD000090F884202F
:101BD000012A04BF02207047B0B50123242280F8F7
:101BE0008430C0F888200268D0F864E0D2F800C0E1
:101BF0001468BEF1000F24F001041460946824F00E
:101C0000604441EA040191601BD09168936844F6F6
:101C10009C4E5B0FC0F6000E44F6A4451EF8034030
:101C2000C0F60005EB5CE400B4FBF3F3C1F34261E2
:101C3000A0F86A301EF80130695CDB00B3FBF1F3F9
:101C400001E0A0F86A302021A0F86830C2F800C096
:101C5000C0F88810002180F884100020B0BD00007A
:101C60007047000070470000B0B501680446D0F826
:101C70008800D4F88C50896809062CD521282AD1EF
:101C8000206850E8020F216820F0800041E802023D
:101C9000002AF5D1E06F38B1FEF754FC20B1E06FB7
:101CA000FEF7C8FC202835D0206850E8000F2168D6
:101CB00020F0C00041E80002002AF5D1206850E879
:101CC000020F216820F4000041E80202002AF5D149
:101CD0002020C4F888002068806840064FF000008B
:101CE00048D5222D18BFB0BD206850E8020F2168EA
:101CF00020F0400041E80202002AF5D1D4F880002B
:101D000070B1FEF71FFC58B1D4F88000FEF792FCCA
:101D1000202805D11020C4F890000320B0BD00BFDA
:101D2000206850E8000F216820F4907041E800021C
:101D3000002AF5D14FF6FE70CEF6FF70216851E80B
:101D4000021F2268014042E80213002BF6D1E06E28
:101D5000012809D1206850E8000F216820F0100008
:101D600041E80002002AF5D12020C4F88C000020B0
:101D7000E0666067B0BD00007047000070B50468A1
:101D800040F62F03E2692168A6681340202B05D195
:101D900001F0200306F080555B1938D140F60F039F
:101DA00013400CD00123C1F2000306EA030C40F2F9
:101DB0002013C0F200430B4013EB0C032DD1C36E74
:101DC000D50616D5012B14D111F0100311D0102116
:101DD0002162A168490600F1FC80B0F85C10B0F8FF
:101DE0005E20B0F85E30002B18BF914240F0528167
:101DF00070BDD30240F1CB8016F4800300F0C780A1
:101E00004FF480112162BDE87040FFF72BBF416F96
:101E10000029EDD0BDE870400847D30718BF11F482
:101E2000807307D001232362D0F8903043F0010380
:101E3000C0F89030930706F0010E0AD5BEF1000FEE
:101E400007D002232362D0F8903043F00403C0F897
:101E5000903053070AD5BEF1000F07D00423236248
:101E6000D0F8903043F00203C0F8903013070CD53F
:101E700001F0200353EA0C0307D008232362D0F8B3
:101E8000903043F00803C0F8903013050BD511F0E3
:101E9000806308D04FF400632362D0F8903043F0A1
:101EA0002003C0F89030D0F89030002BA0D09206DC
:101EB0000AD501F0200106F08052891804D0416F44
:101EC00011B10446884720460168D0F890208968FF
:101ED00002F0280201F04001891807D10446FFF7FB
:101EE0004BFF0020C4F8900070BD00BF016851E8AE
:101EF000001F026821F4907142E80013002BF5D115
:101F00004FF6FE71CEF6FF71026852E8022F0368A9
:101F10000A4043E80226002EF6D1C16E012909D1FC
:101F2000016851E8001F026821F0100142E8001327
:101F3000002BF5D12021C0F88C100021C166026869
:101F400041679168490640F1988000BF016851E8F7
:101F5000021F026821F0400142E80213002BF5D174
:101F6000D0F88010002900F0888042F6D172C0F6C7
:101F70000002044608468A63FEF71CFB00283FF473
:101F800037AFD4F88000816BBDE870400847130676
:101F900006D501F0800306F400069B1940F0AB80E3
:101FA00053066ED511F040036BD000BF016851E8B5
:101FB000001F026821F0400142E80013002BF5D118
:101FC0002021C0F8881000218167BDE8704000F032
:101FD000B5BAD0F8801009684A6893B2002B3FF474
:101FE00007AFB0F85C60B342BFF402AFA0F85E2068
:101FF0000968890635D400BF016851E8001F0268EE
:1020000021F4807142E80013002BF5D1016851E8FA
:10201000021F026821F0010142E80213002BF5D1F2
:10202000016851E8021F026821F0400142E80213F2
:10203000002BF5D12021C0F88C100021C16600BF13
:10204000016851E8001F026821F0100142E8001306
:10205000002BF5D1D0F8801004460846FEF772FA3E
:10206000204602210167B0F85C10B0F85E20891AA2
:1020700089B2BDE87040FFF75BBDBDE87040FFF777
:102080007BBE13023ED511F080433BD0BDE87040CB
:10209000FFF7E6BD891A00BF026852E8002F036807
:1020A00022F4907243E80026002EF5D14FF6FE721E
:1020B000CEF6FF72036853E8023F0668134046E815
:1020C0000235002DF6D12022C0F88C200022C266F5
:1020D000426700BF026852E8002F036822F0100236
:1020E00043E80026002EF5D1022289B20267BDE83E
:1020F0007040FFF71DBD816F00293FF479AEBDE848
:1021000070400847D2017FF573AEB1F1FF3FC8BF01
:1021100070BDBDE87040FFF70DBD000010B5D0B137
:102120000446D0F8880028B9002084F884002046AE
:1021300000F026F82420C4F888002068A16A02680C
:1021400022F00102026011B1204600F06DFE20462F
:1021500001F09CFA08B1012010BD2168486820F404
:1021600090404860886820F02A008860086840F045
:10217000010220460A60BDE8104000F0C9BE000020
:102180002DE9F0419CB00446002502A854211B957E
:10219000CDE91955CDE91755FEF772F8206843F6D9
:1021A0000001C4F20101884202D01CB0BDE8F081F8
:1021B0000120CDE9020502A8FEF78CFE002818BF19
:1021C000FEF7BAF941F24C00C4F20200416940F254
:1021D000080841F4804141614169002601F48041D1
:1021E000019101990168C4F2020841F00401016003
:1021F000006817A900F004000190019830201790A2
:102200000220189007201B9040F60000C4F6000042
:10221000CDE91966FEF73EFC40F24805C2F2000522
:1022200018208027C5E900802846C5E90266C5E96F
:102230000476C5E906662E62FEF74CFA002818BF40
:10224000FEF77AF9C4F88050AC6240F2A80508F1B4
:102250001400C2F200051921102285E8C7002846A3
:10226000C5E90566C5E90766FEF734FA002818BF18
:10227000FEF762F9252000210022E567AC62FEF737
:1022800069FD2520FEF754FD1CB0BDE8F08100007B
:10229000D0F88C30202B0AD194460A4600294FF002
:1022A000010118BFBCF1000F04D10846704702219C
:1022B00008467047B0B54FF0000EC0F86CE00368F8
:1022C00048F20004C4F20004A3420DD05B681B0274
:1022D0000AD500BF036853E8003F046843F08063F9
:1022E00044E800310029F5D122218265A0F85CC0C4
:1022F000C0F890E0C0F88C10D0F880301BB343F2E7
:10230000A901C0F6000143F22D1442F6E17E03F16B
:102310002C07C0F60004C0F6000E87E812400168E2
:1023200000259D632431044618466346FEF764FA8F
:102330000146204639B11021C0F890102021C0F884
:102340008C10012121E0016951B100BF016851E801
:10235000001F026841F4807142E80013002BF5D1A0
:10236000016851E8021F026841F0010142E80213CE
:10237000002BF5D1016851E8021F026841F04001CD
:1023800042E80213002BF5D10021BDE8B040084619
:1023900070470000D0F88C30202B1CBF0220704703
:1023A00000294FF0010318BF002A01D118467047D9
:1023B00080B50023C366D0F800C048F20003C4F221
:1023C00000039C4510D0DCF804301B020CD500BF84
:1023D000036853E800CFD0F800E04CF080634EE88B
:1023E000003CBCF1000FF3D101F0B0FA0023BDE8CE
:1023F000804018467047000040F20811C2F2000108
:10240000884218BF7047B0B540F2081440F240054A
:10241000C2F20004C2F2000520462946012201232F
:1024200000F00AF8204629460122BDE8B040FFF737
:10243000B1BF0000704700002DE9F04381B00446B1
:10244000D0F88800202809D1884600294FF00100E3
:1024500018BF002A06D101B0BDE8F083022001B008
:10246000BDE8F0830020C4F8900021201D46C4F888
:1024700088001646FEF7EAFBA4F85460A4F85660FC
:10248000A1680646B1F5805F02D12069002852D0CC
:10249000C1464FF00008B4F8560060B36F1C0FE05F
:1024A000B9F1000F1ED019F8010B21688862B4F849
:1024B00056000138A4F85600B4F85600D8B100BF51
:1024C0002068C0690006EBD4002FF9D0FEF7BEFBF0
:1024D00001464FF0030045B3891BA94225D8206867
:1024E0000068EDE738F8020B21686FF35F2088621F
:1024F0004FF00009DBE72068C069400614D46F1C68
:1025000004E000BF2068C06940060DD4002FF9D058
:10251000FEF79CFB01464FF0030035B1891BA94231
:1025200003D820680068EDE700202021C4F8881057
:1025300001B0BDE8F0834FF00009ACE77047000040
:10254000FEE700002DE9F04715460A469846411976
:102550001344DDF8209041F2180A0139013BC4F61A
:10256000000AFDF715FF10214FEA450CCAF81010BC
:10257000002104220123402581F00700544603FA7C
:1025800000F044F8102F10F0720F18BF54460729BE
:1025900001F101012560CAF80020EDD30CFB08F021
:1025A000D0B100210422402319F80150002400BFBB
:1025B00084F00707564625FA07F746F8102FFF075D
:1025C00018BF5646072C04F101043360CAF80020F6
:1025D000EED301318142E7D11020CAF80000BDE8F6
:1025E000F087000010B586B041F24C00C4F2020042
:1025F000016841F2000441F0100101600068C4F676
:10260000000400F01000019001987E20019001204C
:10261000CDE902000320049001A92046FEF73AFA12
:10262000204610210122FEF70BFB06B010BD000072
:10263000B0B541F21804C4F60004022564202561F7
:10264000FEF74CF932202560FEF748F90120002101
:1026500000F0A8F902204FF4E06100F0A3F9032094
:1026600041F2300100F09EF90420002100F09AF9B7
:10267000082040F2022100F095F90920002100F025
:1026800091F90A20002100F08DF90C20002100F0C2
:1026900089F90D20002100F085F90F20002100F0BC
:1026A00081F91020002100F07DF91120072100F0B0
:1026B00079F91220002100F075F91320002100F0B3
:1026C00071F90720012100F06DF9C820FEF706F925
:1026D000102041F2906100F065F9112040F22721AD
:1026E00000F060F93220FEF7F9F812209D2100F089
:1026F00059F93220FEF7F2F813204FF4D05100F0D0
:1027000051F929201D2100F04DF92B200D2100F059
:1027100049F93220FEF7E2F82020002100F042F9CA
:102720002120002100F03EF93020002100F03AF98C
:10273000312040F2076100F035F9322040F20531D6
:1027400000F030F93520002100F02CF9362041F25C
:10275000046100F027F937204FF4017100F022F9ED
:102760003820012100F01EF9392040F2077100F0F5
:1027700019F93C20002100F015F93D200F2100F04F
:1027800011F95020002100F00DF95120EF2100F047
:1027900009F95220002100F005F9532040F23F11C1
:1027A00000F000F960204FF41C5100F0FBF86120AC
:1027B000012100F0F7F86A20002100F0F3F88020F2
:1027C000002100F0EFF88120002100F0EBF88220DA
:1027D000002100F0E7F88320002100F0E3F88420D6
:1027E000002100F0DFF88520002100F0DBF89020C8
:1027F000102100F0D7F892204FF4C06100F0D2F819
:10280000072040F2331100F0CDF80A20BDE8B040B7
:10281000FEF764B82DE9F04F89B092F800C002913C
:10282000BCF1000F019000F0B980139E44F6D80E61
:102830004FF6FE791C460020C0F6000E2327C0F29A
:10284000010910E0049A44F6D80E0120C0F6000EEB
:10285000232712F800C01118039ABCF1000F10448E
:102860000A4600F09B8001464FFA8CF00028019840
:102870000391C9B200EBC103049237D4ACF120003C
:10288000C0B2029A00019FB24FF0000A079007E021
:10289000089A0AF1010ABAF1100F02F10102D1D02F
:1028A00007984EF224215044C0F6000111F8008030
:1028B00095B24FF0000B089210E000BF0028129A6A
:1028C00007EB0B00294648BF2246FDF7CDFD0BF173
:1028D000010BBBF1080F4FEA4808D9D04FFA88F036
:1028E0000028EBD4002EF2D0E8E700BF029D4FF0A5
:1028F000000C0DE0DDF814C0049A0CF1010C44F654
:10290000D80EBCF1C80FC0F6000E4FF0230743D01D
:102910000CFB07F01EF800001178CDF814C08842B7
:10292000E8D10CFB07E0527841789142E2D10330C4
:102930004FF0000806900EE0079D18F001000544D6
:102940006FF0070008BF0820089B08F10108B8F1E4
:10295000200F0344CED006981FFA83FB10F80870AE
:102960000795ADB24FF0000A08930FE00028129AC5
:102970000BEB0A00294648BF2246FDF775FD0AF118
:10298000010ABAF1080F09EA4707D5D03806EDD495
:10299000002EF4D0EAE700BF02205AE709B0BDE8F4
:1029A000F08F000070B541F22802C4F60002102337
:1029B000136000234FF0040E0124A2F1100C4025F7
:1029C00083F0070604FA06F616F0700F6646C2F8A2
:1029D00000E008BF1646072B03F10103356042F8FB
:1029E00010ECEDD300230425402400BF072B03F196
:1029F00001031560146042F8105CF7D3C0B20023E5
:102A00000424402583F0070620FA06F6F6076646FA
:102A1000146008BF1646072B03F10103356042F826
:102A2000104CEFD3102042F8100C1060002004234B
:102A30000124402580F0070604FA06F616F0720F0E
:102A40006646136008BF1646072800F1010035608E
:102A500042F8103CEED3C1F30720002304244025A4
:102A600083F0070620FA06F6F6076646146008BFEC
:102A70001646072B03F10103356042F8104CEFD3E3
:102A8000C8B200210423402581F0070620FA06F68B
:102A9000F6076646136008BF1646072901F10101D3
:102AA000356042F8103CEFD3102042F8100C70BD96
:102AB0002DE9F04381B015460A4699464119134461
:102AC000DDF8208041F218040139013BC4F600040E
:102AD000FDF75EFC1020206100200421012240232C
:102AE00080F00707264602FA07F746F8101F17F08E
:102AF000720F18BF2646072800F1010033602160DD
:102B0000EED309FB05FCBCF1000F2FD0C8F3072161
:102B10005FFA88F24FF0000E04254023002700BF23
:102B200087F00700264621FA00F046F8105FC0073C
:102B300018BF2646072F07F1010733602560EFD342
:102B4000002700BF87F00700264622FA00F046F86B
:102B5000105FC00718BF2646072F07F10107336033
:102B60002560EFD30EF1010EE645D7D1102020608D
:102B700001B0BDE8F0830000F0B541F22807C4F6CB
:102B8000000710233B6000234FF0040C0124A7F141
:102B9000100E402583F0070604FA06F616F0700FB3
:102BA0007646C7F800C008BF3E46072B03F1010375
:102BB000356047F810CCEDD300230425402400BF36
:102BC000072B03F101033D603C6047F8105CF7D32D
:102BD00000230425402400BF022B3A463D6008BF75
:102BE0007246072B03F10103146047F8105CF3D31E
:102BF0001022002304244FF0010C402547F8102C2C
:102C00003A6000BF83F007020CFA02F212F0720F72
:102C100072463C6008BF3A46072B03F1010315607A
:102C200047F8104CEED34FEA102C00230424402523
:102C300083F007022CFA02F2D20772463C6008BF0A
:102C40003A46072B03F10103156047F8104CEFD308
:102C5000C0B200230424402583F0070220FA02F2C8
:102C6000D20772463C6008BF3A46072B03F10103C6
:102C7000156047F8104CEFD3102047F8100C38605F
:102C8000002004230124402580F0070204FA02F208
:102C900012F0700F72463B6008BF3A46072800F1F9
:102CA0000100156047F8103CEED3002004234025B6
:102CB000072800F101003B603D6047F8103CF7D366
:102CC000002004230124402580F0070204FA02F2C8
:102CD00012F0210F72463B6008BF3A46072800F108
:102CE0000100156047F8103CEED3102047F8100C97
:102CF0003860002004230124402500BF80F0070233
:102D000004FA02F212F0720F72463B6008BF3A46B4
:102D1000072800F10100156047F8103CEED3080ABF
:102D200000230424402500BF83F0070220FA02F2AA
:102D3000D20772463C6008BF3A46072B03F10103F5
:102D4000156047F8104CEFD3C8B20021042340258A
:102D500081F0070220FA02F2D20772463B6008BFF8
:102D60003A46072901F10101156047F8103CEFD3FD
:102D7000102047F8100CF0BDFEE70000FEE7000051
:102D80007047000070470000FDF766BF70B594B053
:102D900006AC20463821FDF773FA00250020059582
:102DA000CDE90355CDE90155FEF710F84FF4803019
:102DB00007904FF480700990402003260A9002206B
:102DC0005521CDE90D060F90CDE91010CDE9120087
:102DD00020460696FEF738FC18B1EFF3108072B665
:102DE000FEE70F20CDE9010601A80421CDE9035536
:102DF0000595FEF703FA20B1EFF3108072B600BF1D
:102E0000FEE74FF480704FF040710022FEF7EEFBBA
:102E100014B070BD4EF68850CEF20000016841F447
:102E20007001016070470000816A0A070CD4CA076C
:102E300015D18A071ED44A0727D4CA0630D48A0679
:102E400039D44A0642D457E00268D0F838C05368F3
:102E500023F4004343EA0C035360CA07E9D0026835
:102E6000D0F82CC0536823F4003343EA0C035360BA
:102E70008A07E0D50268D0F830C0536823F4803365
:102E800043EA0C0353604A07D7D50268D0F834C030
:102E9000536823F4802343EA0C035360CA06CED55B
:102EA0000268D0F83CC0936823F4805343EA0C03D3
:102EB00093608A06C5D50268D0F840C0936823F4B1
:102EC000005343EA0C0393604A0615D5D0F800C0BE
:102ED000436CDCF80420B3F5801F22F4801242EA30
:102EE0000302CCF8042007D1DCF80420836C22F420
:102EF000C0021A43CCF80420090658BF7047016885
:102F0000C06C4A6822F400221043486070470000F9
:102F1000B0B582B004460020C4F89000FDF796FEDC
:102F200021680546096809071AD56FF07E4C2046CE
:102F30004FF4001100222B46CDF800C000F094FDA4
:102F400070B100BF206850E8000F216820F08000B9
:102F500041E80002002AF5D103202021882230E038
:102F600020680068400723D56FF07E4C20464FF460
:102F7000800100222B46CDF800C000F075FDB8B1ED
:102F8000206850E8000F216820F4907041E80002AA
:102F9000002AF5D1206850E8020F216820F00100D6
:102FA00041E80202002AF5D1032020218C2208E00A
:102FB0002020C4F88800C4F88C0000217022002072
:102FC000E166A150002184F8841002B0B0BD000079
:102FD000806A0021A0F85E10A0F85610FEF7CCBE63
:102FE000806A0368D0F88820D0F88CC09B681B06E4
:102FF0001BD5212A19D10022A0F85620026852E8D8
:10300000002F036822F0C00243E800210029F5D117
:10301000016851E8021F026821F4000142E802132E
:10302000002BF5D12021C0F8881001688968490675
:1030300032D5BCF1220F2FD10021A0F85E1000BFC5
:10304000016851E8001F026821F4907142E8001302
:10305000002BF5D14FF6FE7CCEF6FF7C026852E8DD
:10306000022F036802EA0C0243E802210029F5D18D
:10307000C16E01290AD100BF016851E8001F026832
:1030800021F0100142E80013002BF5D12021C0F8F7
:103090008C100021C1664167D0F8901041F01001FA
:1030A000C0F89010FEF768BE0168806A096889065A
:1030B00030D40021A0F85E10016851E8001F0268BA
:1030C00021F4807142E80013002BF5D1016851E82A
:1030D000021F026821F0010142E80213002BF5D122
:1030E000016851E8021F026821F0400142E8021322
:1030F000002BF5D12021C0F88C10C16E012909D117
:10310000016851E8001F026821F0100142E8001335
:10311000002BF5D100210167C16E012918BFFFF70F
:103120006BB9B0F85C10FEF703BD0000806A0121A6
:103130000167C16E012918BFFFF77CB9B0F85C10B8
:103140004908FEF7F5BC0000B0F860200168D0F82F
:103150008C30222B5AD1496A836D114023F8021B0F
:103160008365B0F85E100139A0F85E10B0F85E100B
:10317000002918BF704700BF016851E8001F0268AE
:1031800021F4907142E80013002BF5D1016851E859
:10319000021F026821F0010142E80213002BF5D161
:1031A0002021C0F88C10002141670167016848F2B6
:1031B0000002C4F2000291420CD04968090209D50C
:1031C000016851E8001F026821F0806142E80013A5
:1031D000002BF5D1C16E012918BFFFF70DB90021F1
:1031E000C16600BF016851E8001F026821F01001AC
:1031F00042E80013002BF5D10168CA69D20644BF2A
:1032000010220A62B0F85C10FEF792BC886940F0A8
:1032100008008861704700002DE9F04F81B0036815
:103220000446B0F86050DA6918689968D4F88C7070
:10323000222F2AD1B4F86860002E18BF12F02002A5
:103240002AD1B4F85E00E8B1B4F86810884219D207
:10325000206850E8020F216820F0805041E8020207
:10326000002AF5D143F24910C0F60000606700BFA4
:10327000206850E8000F216840F0200041E800027B
:10328000002AF5D101B0BDE8F08F986940F0080040
:10329000986101B0BDE8F08F4FF6FE77CEF6FF776C
:1032A0004FF0000900F4807B01F0010807E02046A0
:1032B000FFF7A2F8002E18BF1AF02000C1D0206836
:1032C000A16D426A2A4021F8022BA165B4F85E1074
:1032D0000139A4F85E10D0F81CA05FEA4A7134D01E
:1032E0005FEACA7218BFBBF1000F03D15FEA8A72AE
:1032F0000BD415E001220262D4F8902042F00102C2
:10330000C4F890205FEA8A720AD5B8F1000F07D09E
:1033100002220262D4F8902042F00402C4F8902005
:1033200000290AD5B8F1000F07D004210162D4F8B2
:10333000900040F00200C4F89000D4F8900020B152
:103340002046FEF719FDC4F89090B4F85E000028FE
:10335000B0D100BF206850E8000F216820F48070D1
:1033600041E80002002AF5D1206850E8020F2168E8
:10337000384041E80202002AF6D12020C4F88C002F
:10338000C4F87490C4F87090206848F20001C4F248
:10339000000188420CD04068000209D5206850E83E
:1033A000000F216820F0806041E80002002AF5D17A
:1033B000E06E01287FF47BAFC4F86C90206850E881
:1033C000000F216820F0100041E80002002AF5D12A
:1033D0002068C169C90644BF10210162B4F85C10BD
:1033E0002046FEF7A5FB65E7B0F860100268D0F84C
:1033F0008C30222B5AD1526A836D11401970816D25
:1034000001318165B0F85E100139A0F85E10B0F8A6
:103410005E10002918BF7047016851E8001F02685C
:1034200021F4907142E80013002BF5D1016851E8B6
:10343000021F026821F0010142E80213002BF5D1BE
:103440002021C0F88C10002141670167016848F213
:103450000002C4F2000291420CD04968090209D569
:10346000016851E8001F026821F0806142E8001302
:10347000002BF5D1C16E012918BFFEF7BDBF002199
:10348000C16600BF016851E8001F026821F0100109
:1034900042E80013002BF5D10168CA69D20644BF87
:1034A00010220A62B0F85C10FEF742BB906940F04F
:1034B00008009061704700002DE9F04F81B003686B
:1034C0000446B0F86050DA6918689968D4F88C70CE
:1034D000222F2AD1B4F86860002E18BF12F0200203
:1034E0002AD1B4F85E00E8B1B4F86810884219D265
:1034F000206850E8020F216820F0805041E8020265
:10350000002AF5D143F2E930C0F60000606700BF41
:10351000206850E8000F216840F0200041E80002D8
:10352000002AF5D101B0BDE8F08F986940F008009D
:10353000986101B0BDE8F08F4FF6FE77CEF6FF77C9
:103540004FF0000900F4807B01F0010807E02046FD
:10355000FEF752FF002E18BF1AF02000C1D02068DD
:10356000A16D406A28400870A16D20680131A165F5
:10357000B4F85E100139A4F85E10D0F81CA05FEA20
:103580004A7134D05FEACA7218BFBBF1000F03D191
:103590005FEA8A720BD415E001220262D4F890200F
:1035A00042F00102C4F890205FEA8A720AD5B8F1AD
:1035B000000F07D002220262D4F8902042F00402E9
:1035C000C4F8902000290AD5B8F1000F07D00421D3
:1035D0000162D4F8900040F00200C4F89000D4F8E2
:1035E000900020B12046FEF7C7FBC4F89090B4F8D5
:1035F0005E000028AED100BF206850E8000F2168AF
:1036000020F4807041E80002002AF5D1206850E8DB
:10361000020F2168384041E80202002AF6D120203A
:10362000C4F88C00C4F87490C4F87090206848F214
:103630000001C4F2000188420CD04068000209D5A4
:10364000206850E8000F216820F0806041E8000207
:10365000002AF5D1E06E01287FF479AFC4F86C90B0
:10366000206850E8000F216820F0100041E80002B7
:10367000002AF5D12068C169C90644BF1021016242
:10368000B4F85C102046FEF753FA63E7F0B581B05A
:10369000044604F108064ECE0068194341EA0603C9
:1036A000E169066846F6F315CCF6FF752E40334304
:1036B0000B43036043684FF2FF4523F440531A4322
:1036C000426048F20002A369C4F2000290421CBFAB
:1036D000266A33438668C1F2FF152E403343836068
:1036E000C36A666A23F00F033343C36244F6FF7371
:1036F000C4F2000398424FF0100318DC44F2004675
:10370000C4F20006B04227D044F60006C4F2000618
:10371000B0422FD044F60046C4F20006B0423ED17B
:1037200041F28803C4F202031B689B092FE045F2B3
:103730000006C4F20006B04215D0904221D043F6F4
:103740000006C4F20106B04229D141F28803C4F256
:1037500002031B6879A61EE041F28803C4F202034B
:103760001B689B0813E041F28803C4F202031B6844
:103770001B0A0CE041F28803C4F202031B681B0918
:1037800005E041F28803C4F202031B689B0A44F679
:103790008C46C0F6000603F0030356F8233090422F
:1037A00042F20040C0F2F40013D0B1F5004F1ED138
:1037B000082B00F264800027DFE803F005697361DD
:1037C00071616161B500FDF7A3FE002840F06A80D9
:1037D0009DE0082B4ED80027DFE803F0054C1E4C77
:1037E000184C4C4C1C00FDF793FEB8B98FE0082B29
:1037F00049D80027DFE803F0054F74477247474771
:103800009C00FDF785FE00286BD180E0FDF7ACFE43
:1038100020B97CE04FF40040002878D0616A44F67B
:10382000C002C0F6000232F811206568B0FBF2F366
:1038300005EB45018B424FF001016BD32E03B342E0
:1038400068D800210023FCF7E3FC090241EA10617B
:10385000000210EB550041F100012A460023FCF75D
:10386000D7FC4FF60052A0F54071C0F20F02914212
:103870004BD34EE0002001270028CFD147E00020A5
:10388000012778B943E00020012750BB3FE0FDF756
:1038900055FE38B93BE0FDF751FE10BB37E0FDF7B0
:1038A00063FEA0B3616A44F6C002C0F6000232F8BB
:1038B00011106268B0FBF1F0510801EB4000B0FB61
:1038C000F2F04FF6EF72A0F11001914221D84FF6BD
:1038D000F0710140C0F34200084416E0FDF744FED9
:1038E000A8B1616A44F6C002C0F6000232F81110B5
:1038F0006268B0FBF1F000EB5200B0FBF2F04FF663
:10390000EF72A0F11001914203D82168C8603946D6
:1039100000E001214FF001100022A0666267084616
:10392000A26701B0F0BD4FF400400028BAD1EEE725
:103930004FF400400028D4D1E9E700BF01000000A7
:103940000400000002000000080000008165A0F8EB
:103950005C20A0F85E2081680023436771B1B1F15B
:10396000805F07D0B1F5805F0ED1016951B940F297
:10397000FF110AE0016919B13F2106E0016909B1AF
:103980007F2102E0FF2100E00021A0F8601000216B
:10399000C0F890102221C0F88C1000BF016851E8D7
:1039A000021FD0F800C041F001014CE80213002BC7
:1039B000F4D1416EB1F1005F03D1B0F868109142CB
:1039C00025D98168B1F5805F02D10169002941D014
:1039D00043F2E931C0F600010269416762B100BFFC
:1039E000016851E8001F026841F4907142E8001339
:1039F000002BF5D12CE000BF016851E8001F0268E0
:103A000041F0200142E80013002BF5D120E081684D
:103A1000B1F5805F01D1016909B343F2B941C0F644
:103A20000001026941674AB1016851E8001F02685C
:103A300041F4807142E80013002BF5D1016851E890
:103A4000021F026841F0805142E80213002BF5D1B9
:103A50000020704743F24911C0F60001BCE743F271
:103A60001921C0F60001DCE72DE9F04381B00446DE
:103A70000068C0690840401AB0FA80F040099042DE
:103A800057D1DDF8208015460E46994608F101070A
:103A900009E000BF2068C0693040801BB0FA80F0A8
:103AA0004009A84245D1002FF4D0FDF7CFF80146D8
:103AB000B8F1000F4FF003003CD0A1EB09014145E4
:103AC00038D8206801684907E4D5402EE2D0802E1E
:103AD000E0D0C169090730D4C1690905DAD54FF4CE
:103AE00000610162206850E8000F216820F49070A6
:103AF00041E80002002AF5D14FF6FE70CEF6FF70C5
:103B0000216851E8021F2268014042E80213002B9D
:103B1000F6D1E06E012809D1206850E8000F216835
:103B200020F0100041E80002002AF5D103202021F6
:103B30002CE0002001B0BDE8F0830821016200BF45
:103B4000206850E8000F216820F4907041E80002DE
:103B5000002AF5D14FF6FE70CEF6FF70216851E8CD
:103B6000021F2268014042E80213002BF6D1E06EEA
:103B7000012809D1206850E8000F216820F01000CA
:103B800041E80002002AF5D1012008212022C4F8D2
:103B90008C200022E2666267C4F8901084F88420CA
:103BA00001B0BDE8F083000040F20810C2F200004E
:103BB0000068C169C9066ED570B51021016240F276
:103BC0000810C2F20000FEF74FF840F24800C2F2BF
:103BD0000000006840F29F144068C2F20004C0F187
:103BE0001500C0B2002121542EA0214600F04EFD48
:103BF00040F29D15C2F200052878042801D0022861
:103C000005D140F29F10C2F2000000F05BF8287866
:103C1000032822D140F29F104EF6C901C2F20000E3
:103C2000C0F600010522FCF749FB4FF0010668B120
:103C300040F29F104EF6CF01C2F20000C0F6000124
:103C40000522FCF73BFB40B9022000E00120287070
:103C500040F24100C2F2000006702878042809D121
:103C600040F20D00C2F200000078012802D112A03B
:103C700000F008FE002020752061E060A060606018
:103C8000206040F20810C2F2000021461522FEF723
:103C9000FFFABDE8704040F20810C2F20000FEF7E3
:103CA0006DB800BF526563656976656420646174B0
:103CB000613A2025730D0A004861616148410000A6
:103CC000FEE7000010B584B05BA108220446FCF7B3
:103CD00002FB002843D05BA120460422FCF7FBFA3C
:103CE000A0BB04F10F0059A10422FCF7F4FA68BB51
:103CF0002046FCF7DCFA132828D1211D01A80B224D
:103D0000FCF7C9FA00218DF80F1052A10C22FCF724
:103D1000D5FA002855D04EF66C010446C0F60001D5
:103D200001A80C22FCF7CAFAB0B34EF67C01C0F62B
:103D3000000101A80C22FCF7C1FA68B34EF6B500E9
:103D4000C0F6000000F09EFD04B010BD4EF6B500B8
:103D5000C0F6000004B0BDE8104000F093BD40F292
:103D60009D10C2F200000121017040F24100C2F238
:103D70000000017040F20E00C2F20000002202704A
:103D800040F20F00C2F20000017040F21000C2F2D7
:103D90000000027004B010BD9CB14EF66C01C0F67C
:103DA000000101A80C22FCF789FAF8B14EF67C015B
:103DB000C0F6000101A80C22FCF780FA30B304B071
:103DC00010BD2FA000F05EFD40F29D10C2F2000079
:103DD0000321017040F24100C2F200000121017094
:103DE00040F24400C2F20000022122E020A000F0D4
:103DF00049FD40F29D10C2F200000321017040F223
:103E00004100C2F20000012101700EE014A000F098
:103E100039FD40F29D10C2F200000321017040F212
:103E20004100C2F200000122027040F24400C2F2DE
:103E30000000016004B010BD4135354141354135C8
:103E4000000000004135354100000000413541359A
:103E50000000000032303232313037313031390039
:103E600032303232313037313334350D000000001A
:103E700032303232313037313437330D0000000008
:103E800032303232313037313031390D00000000FC
:103E9000501E032842D8B0B582B00FF20601DFE809
:103EA00000F00211050E00F051F834E040F2440039
:103EB000C2F200000068013800F0F8F82BE000F0D2
:103EC00063F928E04EF64F0200244FF6FF75C0F666
:103ED00000020A2050210023CDE90054FEF79AFC8D
:103EE0004EF62402C0F600020A2064210023CDE928
:103EF0000054FEF78FFC40F20E00C2F200000121D8
:103F0000017040F20F00C2F20000017040F2100098
:103F1000C2F20000017002B0BDE8B040002070475E
:103F2000B0B582B040F20815C2F200050446019017
:103F300001A9284601224FF47A73FEF77DFA28681A
:103F4000C1694906FCD5204602B0B0BD2DE9F0415B
:103F500082B04FF000080A2533A64FF6FF77002401
:103F600004EBC40056F8242005EB800081B20A203F
:103F70000023CDE90078FEF74DFC0134062CEFD18B
:103F800040F24200C2F200000078032848D8DFE87F
:103F900000F0023313234EF6360200274FF6FF7669
:103FA000C0F600025020BE210023CDE90067FEF7D5
:103FB00031FC02B0BDE8F0814EF6D30200274FF687
:103FC000FF76C0F600025020BE210023CDE9006735
:103FD000FEF720FC23A01EE04EF6760200274FF6E7
:103FE000FF76C0F600025020BE210023CDE9006715
:103FF000FEF710FC12A00EE04EF6CD0200274FF6A1
:10400000FF76C0F600025020BE210023CDE90067F4
:10401000FEF700FC1CA002B0BDE8F04100F036BB8A
:1040200002B0BDE8F08100BF38E8000866E800088B
:1040300088E8000878E80008A1E8000898E8000887
:104040004B455933205072657373210A0D41353544
:10405000412032303232313037313334352041353E
:10406000413500004B455932205072657373210A67
:104070000D41353541203230323231303731303137
:1040800039204135413500004B455931205072658A
:104090007373210A0D4135354120323032323130CF
:1040A00037313437332041354135000070B582B0A7
:1040B000044600254FF6FF7629A20A20142100238A
:1040C000CDE90065FEF7A6FB40F21400C2F2000045
:1040D00050F82420642028210023CDE90065FEF754
:1040E00099FB40F22000C2F2000050F824204B203F
:1040F0003C210023CDE90065FEF78CFB022C0FD09C
:10410000012C05D0BCB947F61466C0F600060BE0DA
:1041100044F6AC46C0F60006502064214F2206E06B
:104120004BF21C06C0F6000650206421502250239A
:104130000096FEF707FA40F20E00C2F20000017886
:1041400040F20F00C2F20000027840F21000C2F20A
:104150000000037807A002B0BDE8704000F096BAF6
:104160007265636569766564207269676874206446
:10417000617461006B313A25642C206B323A2564FE
:104180002C206B333A256400B0B582B000244FF682
:10419000FF7536A20A2014210023CDE90054FEF752
:1041A00039FB4EF62402C0F600020A204621002305
:1041B000CDE90054FEF72EFB2EA20A204FF4967193
:1041C0000023CDE90054FEF725FB40F20D00C2F2BA
:1041D00000000078032847D8DFE800F002341E29E9
:1041E0002FA000F04FFB4EF6B40200244FF6FF75EF
:1041F000C0F600020A2064210023CDE90054FEF736
:1042000009FB4EF63602C0F6000246204FF49671C6
:104210000023CDE9005425E01BA000F033FB4EF64F
:10422000D30200254FF6FF74C0F6000214E013A07D
:1042300000F028FB4EF6760200254FF6FF74C0F61C
:10424000000209E013A000F01DFB4EF6CD02002590
:104250004FF6FF74C0F6000250204FF49671002311
:10426000CDE90045FEF7D6FA02B0B0BD66756E63C3
:10427000203400007061747465726E00706963743C
:104280007572652043000000706963747572652063
:10429000420000007069637475726520410000007F
:1042A0004E756C6C0000000088B040F60049C4F602
:1042B0000009FCF7DFFCFEF769FD002741F24C0422
:1042C0000797CDE90577CDE90377C4F202042068AA
:1042D00009F5806640F01000206020681A2100F087
:1042E0001000029002982068002240F02000206018
:1042F00020684FF01A0B00F020000290029820680E
:1043000040F001002060206800F001000290029857
:10431000206840F004002060206800F00400029053
:104320000298206840F008002060206800F0080033
:10433000029002983046FCF783FC48464FF44061F7
:1043400001224FF0010AFCF77BFC6420039005205A
:1043500003AD4FF00208079030462946CDE90487A7
:104360000697FCF797FB30462946CDE903BACDE91D
:104370000577FCF78FFB702003904FF40410CDE914
:10438000040A4FF090402946FCF784FB4FF440604C
:10439000CDE9030A48462946CDE90577FCF77AFBC3
:1043A0004FF48070CDE903080320CDE906074FF0F4
:1043B000904029460597FCF76DFB0A200321002257
:1043C000FCF7C8FC0A20FCF7B3FC172003210322EA
:1043D000FCF7C0FC1720FCF7ABFC54F8040C0021E0
:1043E00040F0040044F8040C54F8040C002200F0DF
:1043F00004000390039854F8040C40F0010044F8C2
:10440000040C54F8040C00F00100039003980B20F6
:10441000FCF7A0FC0B20FCF78BFC0C2000210022F9
:104420000C24FCF797FC0C20FCF782FC40F20810EF
:1044300043F60001C2F20000C4F201014FF4E13280
:1044400080E88600C0E90377C0E90547C0E907773F
:10445000C0E90977FDF762FE18B1EFF3108072B67C
:10446000FEE740F20810C2F200000021FDF7AEFBAB
:1044700018B1EFF3108072B6FEE740F20810C2F2F6
:1044800000000021FDF758FB18B1EFF3108072B661
:10449000FEE740F20815C2F200052846FDF72CFBA6
:1044A00018B1EFF3108072B6FEE728681322016896
:1044B00041F01001016040F29F11C2F20001284654
:1044C000FDF7E6FEFEF78EF8FEF7B2F84FF6FF7A3C
:1044D00000200021F0224FF4A073CDF800A04FF08F
:1044E0000009FEF7E5FA66A2642078210023CDE9F1
:1044F00000A9FEF78FF940F23402C2F200026420F4
:104500008C210023CDE900A9FEF784F940F20802CE
:10451000C2F200026420A0210023CDE900A9FEF729
:1045200079F940F23B02C2F200026420B421002378
:10453000CDE900A9FEF76EF940F29C15C2F2000524
:1045400040F29E162878C2F20006317830308DF89D
:104550000C0001F130008DF80E002C200DF10C0B39
:104560008DF80D000127C8204FF496715A4600239C
:104570008DF80F90CDE900A7FEF74CF94FF47A7053
:10458000FCF7ACF900200021F0224FF4A073CDF825
:1045900000A0FEF78DFA40F24200C2F2000040F2A5
:1045A0009D1400783178C2F2000401222770FFF7D1
:1045B0006FFCC8204FF496715A4600234FF0010853
:1045C000CDE900A7FEF726F940F2410AC2F2000A3F
:1045D0002878317830308DF80C009AF800000128E6
:1045E00001F130008DF80E001BD100200021F022D7
:1045F0004FF4A0734FF6FF770097FEF759FA40F299
:104600004200C2F20000007831782278FFF740FCC7
:10461000C8204FF496715A460023CDE90078FEF782
:10462000F9F864208AF80090FCF758F920780428FB
:10463000CED140F20D00C2F2000000780328C7D8A6
:10464000C0004FF001115F4640F6004BC14040F200
:104650000112C4F6000B22FA00F8CAB258464FF411
:104660008061FCF7EDFA5FFA88F258464FF400617A
:104670004FF001084FF00009BB46FCF7E1FAA7E74D
:104680004D6164652062793A000000000FB4054B6B
:1046900010B503A9044A029800F018F810BC5DF8A0
:1046A00014FB0000213F00080000002002E008C8C1
:1046B000121F08C1002AFAD170477047002001E09C
:1046C00001C1121F002AFBD1704700002DE9FF4FE6
:1046D0008BB09A460F460546002606E025280BD0EB
:1046E00052460D9990476D1C761C28780028F5D10C
:1046F0000FB03046BDE8F08F0024A046012260498B
:1047000000E0044315F8013F203B02FA03F00842A1
:10471000F7D128782E2817D115F8010F44F004049A
:104720002A280ED06FF02F022878A0F13001092935
:104730000AD808EB880102EB410100EB01086D1C6F
:10474000F2E757F8048B6D1C287869283ED006DC08
:104750000028CDD063280BD0642804D136E073281C
:1047600010D075284BD052460D999047761C85E0A5
:1047700017F8040B8DF8000000208DF80100E946C1
:10478000012003E057F8049B4FF0FF3061074FF022
:10479000000401D40AE0641C44450DDA8442FADBCB
:1047A00019F804100029F6D106E0641C8442FCDBF1
:1047B00019F804100029F8D1264404E019F8010B77
:1047C00052460D999047641EF8D257E001CF4FF042
:1047D0000A0B002802DA40422D2102E0210504D50F
:1047E0002B218DF82410012103E0E10705D02021C1
:1047F000F7E70DF1200908910CE00021F9E701CF5E
:104800004FF00A0BF9E75946FBF774FD01F130024E
:1048100009F8012D0028F6D1ADEB090000F1200BBD
:10482000600701D44FF00108D84502DDA8EB0B006A
:1048300000E000208046002406E009A85246005D02
:104840000D999047641C761C08988442F5DB04E0BF
:10485000302052460D999047761CB8F10001A8F11E
:104860000108F5DC05E019F8010B52460D99904757
:10487000761CBBF10001ABF1010BF4DC6D1C34E7DD
:104880000928010010B5044601E0FFF749FB14F8C0
:10489000010B04490028F8D1BDE810400A20FFF7B9
:1048A0003FBB0000000000200000000000000000EE
:1048B00001020304060708090000000001020304C6
:1048C000010002000400060008000A000C001000AD
:1048D0002000400080000001D0EC0010401040207B
:1048E000A04110920815F620406040A7FC2040220D
:1048F0005022482444284421402080CEB000084063
:104900000840084017FE1040304033FC50409040B3
:1049100017FE10421042104A104410401040C1E8E7
:10492000000040404023F82040004007FE111012D4
:10493000882484E1F0231024A0204020A023100C20
:104940000CB2DC0004400440FFFE04403FF8244861
:104950003FF824483FF800001FF010101FF010101F
:104960001FF01010C8D90008200820FFFE08200002
:10497000007FFE4002810401007FFC0380054009A6
:10498000203118C1060100D2D7000FF0081008101E
:104990000FF0081008100FF0040008001FFC22445C
:1049A000424404840884112802109546001FF01028
:1049B0001010101FF0101010101FF0020001007FE7
:1049C000FC08200440038004401830E00EB4AE0020
:1049D000010001003FF8210821083FF80100010013
:1049E0007FFC410441047FFC4104010001000100FF
:1049F000BFDA00000000003FF8200820082008204F
:104A0000082008200820082008200820083FF82057
:104A1000080000CDA800000047F8201021A00040A9
:104A200007FCE444244427FC2444244427FC244475
:104A3000245454088FFED0C500084008200BFE10F7
:104A400000100031FC3000500091FC1000100011EB
:104A5000FC1104110411FC1104D1DD000080204080
:104A600017FC1404800043F8404013F8124823F860
:104A7000E24823F82000211022080404CABE0000E6
:104A8000003FF80000000000000000FFFE010001F0
:104A9000001110110821044102810205000200CF1B
:104AA000B50000F83F000400082010403F800100DE
:104AB000061018087FFC0104092011102108450484
:104AC0000200CDB30010401020202023FE4840F803
:104AD00088110423FE4092F890409000901912E152
:104AE00012420E0400C7EB000040404027FC20406B
:104AF00003F80040E7FE200023F8220823F82208EC
:104B00002BF8320822280210BDAB00088008F809F3
:104B1000084A1028A0284008900B1018102BFEC837
:104B20001009100890081008500820B0B400104078
:104B30001020102013FEFA02144410401BFE30888F
:104B4000D088110810D01020105050882304BCFCCD
:104B500000201020103B7C211441FE7A14A27C27F7
:104B600010F97C251025FE22102A10350028FE00A1
:104B700000CFA200010002001FF010101FF0101063
:104B80001FF010101FF01010010008844892481206
:104B900087F00000B7A20001001110110822003FA9
:104BA000FC0200040007F80A080908111010A020F0
:104BB0004040A003181C06B5BD000004FF84080493
:104BC000102422244124FFA408A4082408247F24BC
:104BD000082408040F84F8144008CAD500084008C7
:104BE000404840488048FE49084A884888488858D4
:104BF00050685048200850088809040A02D5FD0072
:104C000000007FFC0100010001000100110011F80B
:104C1000110011001100110011001100FFFE000031
:104C2000C8B70000400040FC7C1084110822FE3C04
:104C300092649264FEA492249224FE3C9225122156
:104C40000A0204CAFD00082049202A20083EFF4429
:104C50002A44494488A41028FE28221042106428BF
:104C600018283444C282BEDD00200023FC22042226
:104C700004FBFC222022202BFE3220E22022FC22F8
:104C80008422842484A4FC488400000000000000E6
:104C90000400000002000000080000000101010300
:104CA0000701000008040204080101011010004F70
:104CB0000050011B39C629A53165296529442123E6
:104CC000212321231923190318E318E318E318C338
:104CD00018C310A208C208A2088110811080108099
:104CE00010801080108008810861086108610861E7
:104CF0000861086108610861004000400000000090
:104D000010A2A534BDB6AD139C7093EF93EE6AC9A3
:104D1000520628C15A056AA662861040002000008B
:104D20000000000000000000000000000000000083
:104D30000000000000000000000000000000000073
:104D40000000000000000000000000000000000063
:104D5000000031A631852944294421232103210360
:104D6000210318E318E318E318C318E210A210A2F5
:104D700018C210A210A21080108110801080108024
:104D800010800860006108610861086108610861BD
:104D900008610061004000200860B596C617C6167D
:104DA000B5338BED628841633922390238C12880DE
:104DB00020A02060208030C25A075A6810400000AE
:104DC00000000000000000000000000000000000E3
:104DD00000000000000000000000000000000000D3
:104DE00000000000000000000000000000000000C3
:104DF00031853185294429442103210321032103DD
:104E000018E318E318C318C210A110A210C208A218
:104E100010A108A11081086108610861088108815A
:104E20000860006108610861086108610861084064
:104E300000200000AD74C616C616B532836B49C596
:104E400028C1288020602060204020402060206011
:104E5000208020802081188030C26268A470000009
:104E60000000000000000000000000000000000042
:104E70000000000000000000000000000000000032
:104E8000000000000000000000000000000031856C
:104E900031652944294421232123210318E218E301
:104EA00018E318C210A210A210C210A210A208A2E9
:104EB00010810880004008610861004008400860D7
:104EC00008400840084000200000002000000000CA
:104ED000B595BDD5CE16ACD162A820A020A020806B
:104EE00020602060206018402060206020812060C9
:104EF000208020802081208028815A06A42F312400
:104F00000020000000000000000000000000000081
:104F10000000000000000000000000000000000091
:104F20000000000000000000000000003185316535
:104F300029242944294421032103210318E318E3E8
:104F400018E210A210A210A210A210A208811080D4
:104F5000088100610861086100610840084008405C
:104F6000000000000000000000000000B595C6161B
:104F7000C5F5A4905204208020802060206020414C
:104F8000204020612040286120402040186020817E
:104F90002081208120812060206159E6A44F732B5D
:104FA0000000000000000000000000000000000001
:104FB00000000000000000000000000000000000F1
:104FC0000000000000000000000031853185294408
:104FD0002944294421031903210318E318E318E2A3
:104FE00010C210A210A210A210A21081108008817D
:104FF00008610861086108610820002000000000C5
:105000000000000000000000840FC5F7CDF69C4FA3
:105010003942208020801860186020602040208164
:105020002061286120402040204020402040204036
:105030002061208120402061208049A49C0E9C9109
:10504000002100000000000000000000000000003F
:105050000000000000000000000000000000000050
:105060000000000000000000318531852144294402
:10507000294421031902210318E318E318E318C295
:1050800010A210A210A210A2108110A00861088125
:105090000861086108610061002000000000000054
:1050A000000000000000BDB5C5F6ACF1520620A01E
:1050B00020802080206020602060206020602060B0
:1050C0002061186020402040204020402040206087
:1050D0002061204020602061288151C6A42F9CD1EE
:1050E00000200000000000000000000000000000A0
:1050F0000000000000000000000000000020002070
:10510000004008400020318531652165294429444B
:1051100021232123190318E318E318E318E310A24D
:1051200010A210A210A2108110A01080108108619E
:1051300000600861086100400020000000000000DD
:1051400000009CD2C5D6C5D56AC820A0208020808A
:1051500020802060206020402040204020402040CF
:105160002061186020402040204020402040204006
:10517000204018402040206128815A26A4B00820F1
:10518000000000000000000000000000000000001F
:10519000002000200020002000200840004008409F
:1051A00018A039A431852965294529442944294471
:1051B00021042103210318E318E318E210A110A22F
:1051C00010C210A210A208811080108010800881E7
:1051D0000081086108610840002000000000000014
:1051E000C5F7C5D6940D28C12080208020801840A6
:1051F0001860BD7218612040186020602061206135
:10520000204020402040204018602060184020406E
:10521000204020402040206020606267B53300209D
:105220000020002000200000000000400020084076
:105230000840006008400860106039844A05522424
:1052400052252965318629652944294429442104A8
:1052500021032103212418E318C218E210A210A28E
:1052600010A210A208A1108110811080088108816D
:105270000881086008610840004000000000C5F691
:10528000C5D5628720802080206020802060186043
:10529000B54EA48F20401840186018401860204078
:1052A0002040206120602060B4F120802040204018
:1052B000204120412060208030E18BCD18C20020A9
:1052C00008400040084000400060088110810881CB
:1052D000088029024A0452044A0341C328E120E11C
:1052E00031A5316529652944294429242124212314
:1052F00021032103190318E318C310A218A210A256
:1053000010A20881108108A11080108010801080E8
:10531000088108610841084000000000CE37CDF543
:10532000396320802080208020801860B54FAD2D0B
:10533000AD2C20601840204018602060204018608C
:1053400020811860732AB54D2080206020402040C5
:10535000206020811860206149E49C90000000409A
:1053600008610841086110800860188041A451E379
:1053700051C43121208018A118E120C1290131A692
:1053800031852985296429442944292421032103BD
:10539000210318E218E318E318E318E210A210C280
:1053A00010A210A210A21081108110801080108015
:1053B00008610861084000200000CE37EEF828E1BF
:1053C00020A0208020802061ACD0AD2DAD2CB52D4B
:1053D000B50E2080186018601860184020601820F2
:1053E00041A3ACECB54CC59120602040204020404A
:1053F00020811840208130C1838C086008410861F9
:10540000088110811060414341A3396328E118A04D
:1054100018A018C118A120E22901290231A631855E
:105420003185216429452944292429442124212422
:10543000210318E218E318E318E310A210A210A148
:1054400010A210A210A208A110811081108010815A
:105450000861004000200000C5F6DE55AD0F186061
:105460001860186073087B8683C783A78BE78C0856
:105470009CABBD511860186120611000A4CDB54CE3
:10548000AD2CAD0CAD0D18402061204020402060B7
:1054900018602081208051E5ACF208611061106035
:1054A00018A03983414320C118A110A018A018A149
:1054B00018E218E118E12923314331C631853185DD
:1054C000318529652164216429442144192421035B
:1054D00018E318E318E318E318E218C210A210A2A8
:1054E00010A210A210A11081108110800860084045
:1054F000004000000000C5D5C5927B8873477B49FA
:105500007328734773466B256B2573256B4573258D
:1055100073466B05734773466B24A4ABAD0CACECC0
:10552000A4ECA4EBB530184020402040206020605F
:10553000184020603943942E0861106128E13943F6
:1055400020A11080108110A108A110A110C218C2C2
:10555000210321232943396331A629A531853185CA
:1055600031852165216529442944212321232103F3
:10557000210318E318E318E318C310C210C208A2ED
:1055800010A208A210A108800860084100200000B5
:105590000000AD55C5B541A37B667366734673665F
:1055A000734673466B056B256B056B456B25732541
:1055B00073257346734573466B466B456B04A4CBEA
:1055C000A4CBA4CB1020206018601860204020409D
:1055D00020402081730AA4D118A120A1186010A135
:1055E00010A2108210A210A210A210A218E3190398
:1055F00021223142396339C631A631853185318561
:1056000029642965294429442123212321232103B5
:105610002103190318E318E318E210A208A210A24C
:1056200008A210810861084000000000000000206E
:10563000C617B55339A4734673467346734673460B
:105640006B266B266B256B256B456B456B2573268F
:105650007325732573266B266B456B456B256B4550
:105660009CAAA4CB8BCB186118402060204120411C
:10567000B51320806AE9A49108001040086008A1D1
:1056800010A210A210A210A210A218C32103292256
:105690003143398239C631C631853185318531850D
:1056A0002965294429442123192321232103210386
:1056B00018E318E318C318E210A208A208A10861B1
:1056C0000840004000000000000000200880C636AE
:1056D000944F20C3734773467346734673266B26F5
:1056E0006B2673256B266B266B266B266B266B262B
:1056F0006B266B256B456B456B266B256B246B45C9
:105700006B259CABA4CC6AE8184018609C6DA48FF4
:105710002080208152079C706B0B1040108108A2E2
:1057200010A210A210A210A118E2210329233143D4
:1057300039A339E739C631A63185318531853185BF
:10574000294429442944192321232103210318E34F
:1057500018E318C218C2108108A2006000200000DF
:1057600000200020002008400040BDD5C5F66B2A6F
:1057700018A108007365734673266B266B266B268B
:105780006B266B266B266B266B266B266B266306B9
:1057900063056B256B266B266B256B246B256B25B0
:1057A0006B256B05736694499C8B9C8B182020613C
:1057B000208120814185730B9CB10840088010A294
:1057C00010A210A210A118E22123292329633982F3
:1057D00042273A0639E529A53185318531852945A4
:1057E00029442944212321232103210318E318E319
:1057F00018C210A1086100200020084000200061AC
:10580000006108610861006073ADBDD55A88106001
:10581000084020C173666B256B26630662E86B291E
:1058200020E231A463084A254227422442445B080F
:1058300000204A444A4273466B266B266B456B2513
:105840006B256B256B256AE62081208120602081F5
:10585000206120813123730B83EE1060108008815A
:1058600010A210A210A218C32123294331A3422859
:105870003A0739E631C629853185298529442944E5
:105880002944294421232123190318E318E2108114
:10589000004000400020004000400061088110806E
:1058A00010800880088018E2B5B4314310601060A1
:1058B00020C220E1422642474227420618E273AC4A
:1058C00073AB634A31844AA66368740A7C2A7BEA14
:1058D000634A18E073A9738842025AC46B456B454A
:1058E0006B275A6610601880208118601880184055
:1058F000184020813123730B18810860108008A2A2
:1059000008A210C218E32103292331634A684248E0
:105910003A0739E631C531852965294429442943A7
:1059200029242103210318E210A208610840004045
:1059300008410860108108600860086010801080CD
:10594000108008800880A5124A254A4631A54A677A
:105950004A68630AAD75A533AD7594B29CF29CD2CA
:105960009CD294D294D294D194F294D17BED52A84B
:1059700019224246738B738A18C05AC95AC86308E1
:1059800062E84A0618601841184018611861184109
:105990001861184028E252070820088008A010A1CA
:1059A00010A210C218E22943316352894A68422783
:1059B0003A0731C531853185298529442943292470
:1059C000210318E31081086108811081108110A261
:1059D00010A208A210A208A208A1108110810880BC
:1059E00010C1FFFE9CD1630A9CF242281903426950
:1059F0009D1394B19CF20000000000004A4994B24B
:105A000094D294D294D294B294B294B28C9194B130
:105A100094B194B194B194B28C30948E738963062E
:105A200062E583CA8BED1860184018401841184091
:105A300018411841208139A57BAD20E210A110A2A8
:105A400010A210C22103214252A95289422839E7EB
:105A500039E631C63185318529642944210310A1F5
:105A6000108110A218C218E218E218C218E218E257
:105A700010A110A210A208A218E218C218C2C638BB
:105A8000AD759D339CF39CF310A29D1394D294D3D7
:105A90009CF384300000000000004A6994B294B284
:105AA00094B294B28CB28CB294B28C9294B294B2FE
:105AB00094B294B294B294B2DEF8C6138C4C6B27B5
:105AC00010201041102010401040102010211041D3
:105AD0001020104018807B8A736A630810A0108120
